Component: ARM Compiler 5.06 update 7 (build 960) Tool: armlink [4d3601]

==============================================================================

Section Cross References

    main.o(.text) refers to rtx_kernel.o(.text.osKernelGetState) for osKernelGetState
    main.o(.text) refers to rtx_kernel.o(.text.osKernelGetTickCount) for osKernelGetTickCount
    main.o(.text) refers to stm32f4xx_hal_rcc.o(.text) for HAL_RCC_OscConfig
    main.o(.text) refers to stm32f4xx_hal.o(.text) for HAL_GetREVID
    main.o(.text) refers to system_stm32f4xx.o(.text) for SystemCoreClockUpdate
    main.o(.text) refers to rtx_kernel.o(.text.osKernelInitialize) for osKernelInitialize
    main.o(.text) refers to rtx_thread.o(.text.osThreadNew) for osThreadNew
    main.o(.text) refers to rtx_kernel.o(.text.osKernelStart) for osKernelStart
    main.o(.text) refers to system_stm32f4xx.o(.data) for SystemCoreClock
    main.o(.text) refers to main.o(.data) for .data
    main.o(.text) refers to http_server.o(.constdata) for app_main_attr
    main.o(.text) refers to http_server.o(.text) for app_main
    http_server.o(.text) refers to stm32f4xx_hal_gpio.o(.text) for HAL_GPIO_WritePin
    http_server.o(.text) refers to rtx_thread.o(.text.osThreadFlagsSet) for osThreadFlagsSet
    http_server.o(.text) refers to stm32f4xx_hal_pwr.o(.text) for HAL_PWR_EnterSLEEPMode
    http_server.o(.text) refers to stm32f4xx_hal.o(.text) for HAL_SuspendTick
    http_server.o(.text) refers to rtx_timer.o(.text.osTimerNew) for osTimerNew
    http_server.o(.text) refers to rtx_thread.o(.text.osThreadFlagsWait) for osThreadFlagsWait
==============================================================================

Removing Unused input sections from the image.

    Removing main.o(.rev16_text), (4 bytes).
    Removing main.o(.revsh_text), (4 bytes).
    Removing main.o(.rrx_text), (6 bytes).
    Removing http_server.o(.rev16_text), (4 bytes).
    Removing http_server.o(.revsh_text), (4 bytes).
    Removing http_server.o(.rrx_text), (6 bytes).
    Removing http_server.o(.data), (4 bytes).
    Removing http_server_cgi.o(.rev16_text), (4 bytes).
    Removing http_server_cgi.o(.revsh_text), (4 bytes).
    Removing http_server_cgi.o(.rrx_text), (6 bytes).
    Removing led.o(.rev16_text), (4 bytes).
    Removing led.o(.revsh_text), (4 bytes).
    Removing led.o(.rrx_text), (6 bytes).
    Removing lcd.o(.rev16_text), (4 bytes).
    Removing lcd.o(.revsh_text), (4 bytes).
    Removing lcd.o(.rrx_text), (6 bytes).
    Removing adc.o(.rev16_text), (4 bytes).
    Removing adc.o(.revsh_text), (4 bytes).
==============================================================================

Image Symbol Table

    Local Symbols

    Symbol Name                              Value     Ov Type        Size  Object(Section)

    ../clib/../cmprslib/zerorunl2.c          0x00000000   Number         0  __dczerorl2.o ABSOLUTE
    ../clib/microlib/ctype/ctype.c           0x00000000   Number         0  isprint_o.o ABSOLUTE
    ../clib/microlib/ctype/ctype.c           0x00000000   Number         0  isspace_o.o ABSOLUTE
    ../clib/microlib/ctype/ctype.c           0x00000000   Number         0  ctype_o.o ABSOLUTE
    ../clib/microlib/ctype/ctype.c           0x00000000   Number         0  islower_o.o ABSOLUTE
    ../clib/microlib/ctype/ctype.c           0x00000000   Number         0  isalnum_o.o ABSOLUTE
    ../clib/microlib/ctype/ctype.c           0x00000000   Number         0  isalpha_o.o ABSOLUTE
    ../clib/microlib/ctype/ctype.c           0x00000000   Number         0  isblank_o.o ABSOLUTE
    ../clib/microlib/ctype/ctype.c           0x00000000   Number         0  isdigit_o.o ABSOLUTE
    ../clib/microlib/ctype/ctype.c           0x00000000   Number         0  isgraph_o.o ABSOLUTE
    ../clib/microlib/ctype/ctype.c           0x00000000   Number         0  iscntrl_o.o ABSOLUTE
    ../clib/microlib/ctype/ctype.c           0x00000000   Number         0  isupper_o.o ABSOLUTE
    ../clib/microlib/ctype/ctype.c           0x00000000   Number         0  isxdigit_o.o ABSOLUTE
    ../clib/microlib/ctype/ctype.c           0x00000000   Number         0  ispunct_o.o ABSOLUTE
    ../clib/microlib/division.c              0x00000000   Number         0  uldiv.o ABSOLUTE
    ../clib/microlib/division.c              0x00000000   Number         0  uidiv.o ABSOLUTE
    ../clib/microlib/errno.c                 0x00000000   Number         0  errno.o ABSOLUTE
    ../clib/microlib/init/entry.s            0x00000000   Number         0  entry8a.o ABSOLUTE
    ../clib/microlib/init/entry.s            0x00000000   Number         0  entry7a.o ABSOLUTE
    ../clib/microlib/init/entry.s            0x00000000   Number         0  entry9b.o ABSOLUTE
    ../clib/microlib/init/entry.s            0x00000000   Number         0  entry2.o ABSOLUTE
    ../clib/microlib/init/entry.s            0x00000000   Number         0  entry10b.o ABSOLUTE
    ../clib/microlib/init/entry.s            0x00000000   Number         0  entry11a.o ABSOLUTE
    ../clib/microlib/init/entry.s            0x00000000   Number         0  entry11b.o ABSOLUTE
    ../clib/microlib/init/entry.s            0x00000000   Number         0  entry.o ABSOLUTE
    ../clib/microlib/init/entry.s            0x00000000   Number         0  entry12a.o ABSOLUTE
    ../clib/microlib/init/entry.s            0x00000000   Number         0  entry12b.o ABSOLUTE
    ../clib/microlib/init/entry.s            0x00000000   Number         0  entry9a.o ABSOLUTE
    ../clib/microlib/init/entry.s            0x00000000   Number         0  entry8b.o ABSOLUTE
    ../clib/microlib/init/entry.s            0x00000000   Number         0  entry5.o ABSOLUTE
    ../clib/microlib/init/entry.s            0x00000000   Number         0  entry10a.o ABSOLUTE
    ../clib/microlib/init/entry.s            0x00000000   Number         0  entry7b.o ABSOLUTE
    ../clib/microlib/longlong.c              0x00000000   Number         0  llushr.o ABSOLUTE
    ../clib/microlib/longlong.c              0x00000000   Number         0  llshl.o ABSOLUTE
    ../clib/microlib/longlong.c              0x00000000   Number         0  llsshr.o ABSOLUTE
    ../clib/microlib/printf/printf.c         0x00000000   Number         0  printf4.o ABSOLUTE
    ../clib/microlib/printf/printf.c         0x00000000   Number         0  printf3.o ABSOLUTE
    ../clib/microlib/printf/printf.c         0x00000000   Number         0  printf2.o ABSOLUTE
    ../clib/microlib/printf/printf.c         0x00000000   Number         0  printf1.o ABSOLUTE
    ../clib/microlib/printf/printf.c         0x00000000   Number         0  printfb.o ABSOLUTE
    ../clib/microlib/printf/printf.c         0x00000000   Number         0  printf0.o ABSOLUTE
    ../clib/microlib/printf/printf.c         0x00000000   Number         0  printf7.o ABSOLUTE
    ../clib/microlib/printf/printf.c         0x00000000   Number         0  printf6.o ABSOLUTE
    ../clib/microlib/printf/printf.c         0x00000000   Number         0  printfa.o ABSOLUTE
    ../clib/microlib/printf/printf.c         0x00000000   Number         0  printf5.o ABSOLUTE
    ../clib/microlib/printf/printf.c         0x00000000   Number         0  printf8.o ABSOLUTE
    ../clib/microlib/printf/stubs.s          0x00000000   Number         0  stubs.o ABSOLUTE
    ../clib/microlib/stdio/fputc.c           0x00000000   Number         0  fputc.o ABSOLUTE
    ../clib/microlib/stdio/semi.s            0x00000000   Number         0  semi.o ABSOLUTE
    ../clib/microlib/stdio/streams.c         0x00000000   Number         0  stdout.o ABSOLUTE
    ../clib/microlib/string/memcmp.c         0x00000000   Number         0  memcmp.o ABSOLUTE
    ../clib/microlib/string/memcpy.c         0x00000000   Number         0  memcpya.o ABSOLUTE
    ../clib/microlib/string/memcpy.c         0x00000000   Number         0  memcpyb.o ABSOLUTE
    ../clib/microlib/string/memset.c         0x00000000   Number         0  memseta.o ABSOLUTE
    ../clib/microlib/string/strcmp.c         0x00000000   Number         0  strcmp.o ABSOLUTE
    ../clib/microlib/string/strcpy.c         0x00000000   Number         0  strcpy.o ABSOLUTE
    ../clib/microlib/string/strlen.c         0x00000000   Number         0  strlen.o ABSOLUTE
    ../clib/microlib/string/strncmp.c        0x00000000   Number         0  strncmp.o ABSOLUTE
    ../clib/microlib/stubs.s                 0x00000000   Number         0  iusefp.o ABSOLUTE
    ../clib/microlib/stubs.s                 0x00000000   Number         0  iusesemip.o ABSOLUTE
    ../clib/microlib/time/asctime.c          0x00000000   Number         0  asctime_s.o ABSOLUTE
    ../clib/microlib/time/localtime.c        0x00000000   Number         0  localtime.o ABSOLUTE
    ../clib/microlib/time/strftime.c         0x00000000   Number         0  strftime.o ABSOLUTE
    ../clib/scanf.c                          0x00000000   Number         0  _chval.o ABSOLUTE
    ../clib/scanf.c                          0x00000000   Number         0  atoi.o ABSOLUTE
    ../clib/scanf.c                          0x00000000   Number         0  _strtoul.o ABSOLUTE
    ../clib/scanf.c                          0x00000000   Number         0  strtol.o ABSOLUTE
    ../fplib/microlib/f2d.c                  0x00000000   Number         0  f2d.o ABSOLUTE
    ../fplib/microlib/fpadd.c                0x00000000   Number         0  dadd.o ABSOLUTE
    ../fplib/microlib/fpdiv.c                0x00000000   Number         0  ddiv.o ABSOLUTE
    ../fplib/microlib/fpepilogue.c           0x00000000   Number         0  depilogue.o ABSOLUTE
    ../fplib/microlib/fpfix.c                0x00000000   Number         0  dfixul.o ABSOLUTE
    ../fplib/microlib/fpmul.c                0x00000000   Number         0  dmul.o ABSOLUTE
    C:\Users\Usuario\AppData\Local\Arm\Packs\ARM\CMSIS-Driver\2.6.1\ETH\PHY_LAN8742A.c 0x00000000   Number         0  phy_lan8742a.o ABSOLUTE
    C:\Users\Usuario\AppData\Local\Arm\Packs\ARM\CMSIS\5.8.0\CMSIS\RTOS2\RTX\Source\rtx_lib.c 0x00000000   Number         0  rtx_lib.o ABSOLUTE
    C:\Users\Usuario\AppData\Local\Arm\Packs\Keil\STM32F4xx_DFP\2.15.0\CMSIS\Driver\EMAC_STM32F4xx.c 0x00000000   Number         0  emac_stm32f4xx.o ABSOLUTE
    C:\Users\Usuario\AppData\Local\Arm\Packs\Keil\STM32F4xx_DFP\2.15.0\CMSIS\Driver\SPI_STM32F4xx.c 0x00000000   Number         0  spi_stm32f4xx.o ABSOLUTE
    C:\Users\Usuario\AppData\Local\Arm\Packs\Keil\STM32F4xx_DFP\2.15.0\Drivers\STM32F4xx_HAL_Driver\Src\stm32f4xx_hal.c 0x00000000   Number         0  stm32f4xx_hal.o ABSOLUTE
    C:\Users\Usuario\AppData\Local\Arm\Packs\Keil\STM32F4xx_DFP\2.15.0\Drivers\STM32F4xx_HAL_Driver\Src\stm32f4xx_hal_adc.c 0x00000000   Number         0  stm32f4xx_hal_adc.o ABSOLUTE
    C:\Users\Usuario\AppData\Local\Arm\Packs\Keil\STM32F4xx_DFP\2.15.0\Drivers\STM32F4xx_HAL_Driver\Src\stm32f4xx_hal_adc_ex.c 0x00000000   Number         0  stm32f4xx_hal_adc_ex.o ABSOLUTE
    C:\Users\Usuario\AppData\Local\Arm\Packs\Keil\STM32F4xx_DFP\2.15.0\Drivers\STM32F4xx_HAL_Driver\Src\stm32f4xx_hal_cortex.c 0x00000000   Number         0  stm32f4xx_hal_cortex.o ABSOLUTE
    C:\Users\Usuario\AppData\Local\Arm\Packs\Keil\STM32F4xx_DFP\2.15.0\Drivers\STM32F4xx_HAL_Driver\Src\stm32f4xx_hal_dma.c 0x00000000   Number         0  stm32f4xx_hal_dma.o ABSOLUTE
    C:\Users\Usuario\AppData\Local\Arm\Packs\Keil\STM32F4xx_DFP\2.15.0\Drivers\STM32F4xx_HAL_Driver\Src\stm32f4xx_hal_dma_ex.c 0x00000000   Number         0  stm32f4xx_hal_dma_ex.o ABSOLUTE
    C:\Users\Usuario\AppData\Local\Arm\Packs\Keil\STM32F4xx_DFP\2.15.0\Drivers\STM32F4xx_HAL_Driver\Src\stm32f4xx_hal_exti.c 0x00000000   Number         0  stm32f4xx_hal_exti.o ABSOLUTE
    C:\Users\Usuario\AppData\Local\Arm\Packs\Keil\STM32F4xx_DFP\2.15.0\Drivers\STM32F4xx_HAL_Driver\Src\stm32f4xx_hal_gpio.c 0x00000000   Number         0  stm32f4xx_hal_gpio.o ABSOLUTE
    C:\Users\Usuario\AppData\Local\Arm\Packs\Keil\STM32F4xx_DFP\2.15.0\Drivers\STM32F4xx_HAL_Driver\Src\stm32f4xx_hal_pwr.c 0x00000000   Number         0  stm32f4xx_hal_pwr.o ABSOLUTE
    C:\Users\Usuario\AppData\Local\Arm\Packs\Keil\STM32F4xx_DFP\2.15.0\Drivers\STM32F4xx_HAL_Driver\Src\stm32f4xx_hal_pwr_ex.c 0x00000000   Number         0  stm32f4xx_hal_pwr_ex.o ABSOLUTE
    C:\Users\Usuario\AppData\Local\Arm\Packs\Keil\STM32F4xx_DFP\2.15.0\Drivers\STM32F4xx_HAL_Driver\Src\stm32f4xx_hal_rcc.c 0x00000000   Number         0  stm32f4xx_hal_rcc.o ABSOLUTE
    C:\Users\Usuario\AppData\Local\Arm\Packs\Keil\STM32F4xx_DFP\2.15.0\Drivers\STM32F4xx_HAL_Driver\Src\stm32f4xx_hal_rcc_ex.c 0x00000000   Number         0  stm32f4xx_hal_rcc_ex.o ABSOLUTE
    C:\Users\Usuario\AppData\Local\Arm\Packs\Keil\STM32F4xx_DFP\2.15.0\Drivers\STM32F4xx_HAL_Driver\Src\stm32f4xx_hal_rtc.c 0x00000000   Number         0  stm32f4xx_hal_rtc.o ABSOLUTE
    C:\Users\Usuario\AppData\Local\Arm\Packs\Keil\STM32F4xx_DFP\2.15.0\Drivers\STM32F4xx_HAL_Driver\Src\stm32f4xx_hal_rtc_ex.c 0x00000000   Number         0  stm32f4xx_hal_rtc_ex.o ABSOLUTE
    C:\Users\Usuario\AppData\Local\Arm\Packs\Keil\STM32F4xx_DFP\2.15.0\Drivers\STM32F4xx_HAL_Driver\Src\stm32f4xx_hal_spi.c 0x00000000   Number         0  stm32f4xx_hal_spi.o ABSOLUTE
    C:\Users\Usuario\AppData\Local\Arm\Packs\Keil\STM32F4xx_DFP\2.15.0\Drivers\STM32F4xx_HAL_Driver\Src\stm32f4xx_hal_sram.c 0x00000000   Number         0  stm32f4xx_hal_sram.o ABSOLUTE
    C:\Users\Usuario\AppData\Local\Arm\Packs\Keil\STM32F4xx_DFP\2.15.0\Drivers\STM32F4xx_HAL_Driver\Src\stm32f4xx_hal_tim.c 0x00000000   Number         0  stm32f4xx_hal_tim.o ABSOLUTE
    C:\Users\Usuario\AppData\Local\Arm\Packs\Keil\STM32F4xx_DFP\2.15.0\Drivers\STM32F4xx_HAL_Driver\Src\stm32f4xx_hal_tim_ex.c 0x00000000   Number         0  stm32f4xx_hal_tim_ex.o ABSOLUTE
    C:\Users\Usuario\AppData\Local\Arm\Packs\Keil\STM32F4xx_DFP\2.15.0\Drivers\STM32F4xx_HAL_Driver\Src\stm32f4xx_ll_fmc.c 0x00000000   Number         0  stm32f4xx_ll_fmc.o ABSOLUTE
    C:\Users\Usuario\AppData\Local\Arm\Packs\Keil\STM32F4xx_DFP\2.15.0\MDK\Boards\Keil\MCBSTM32F400\Common\ADC_MCBSTM32F400.c 0x00000000   Number         0  adc_mcbstm32f400.o ABSOLUTE
    C:\Users\Usuario\AppData\Local\Arm\Packs\Keil\STM32F4xx_DFP\2.15.0\MDK\Boards\Keil\MCBSTM32F400\Common\Buttons_MCBSTM32F400.c 0x00000000   Number         0  buttons_mcbstm32f400.o ABSOLUTE
    C:\Users\Usuario\AppData\Local\Arm\Packs\Keil\STM32F4xx_DFP\2.15.0\MDK\Boards\Keil\MCBSTM32F400\Common\LED_MCBSTM32F400.c 0x00000000   Number         0  led_mcbstm32f400.o ABSOLUTE
    C:\\Users\\Usuario\\AppData\\Local\\Arm\\Packs\\ARM\\CMSIS\\5.8.0\\CMSIS\\RTOS2\\RTX\\Source\\rtx_lib.c 0x00000000   Number         0  rtx_lib.o ABSOLUTE
    C:\\Users\\Usuario\\AppData\\Local\\Arm\\Packs\\Keil\\STM32F4xx_DFP\\2.15.0\\CMSIS\\Driver\\EMAC_STM32F4xx.c 0x00000000   Number         0  emac_stm32f4xx.o ABSOLUTE
    C:\\Users\\Usuario\\AppData\\Local\\Arm\\Packs\\Keil\\STM32F4xx_DFP\\2.15.0\\CMSIS\\Driver\\SPI_STM32F4xx.c 0x00000000   Number         0  spi_stm32f4xx.o ABSOLUTE
    C:\\Users\\Usuario\\AppData\\Local\\Arm\\Packs\\Keil\\STM32F4xx_DFP\\2.15.0\\Drivers\\STM32F4xx_HAL_Driver\\Src\\stm32f4xx_hal.c 0x00000000   Number         0  stm32f4xx_hal.o ABSOLUTE
    C:\\Users\\Usuario\\AppData\\Local\\Arm\\Packs\\Keil\\STM32F4xx_DFP\\2.15.0\\Drivers\\STM32F4xx_HAL_Driver\\Src\\stm32f4xx_hal_adc.c 0x00000000   Number         0  stm32f4xx_hal_adc.o ABSOLUTE
    C:\\Users\\Usuario\\AppData\\Local\\Arm\\Packs\\Keil\\STM32F4xx_DFP\\2.15.0\\Drivers\\STM32F4xx_HAL_Driver\\Src\\stm32f4xx_hal_adc_ex.c 0x00000000   Number         0  stm32f4xx_hal_adc_ex.o ABSOLUTE
    C:\\Users\\Usuario\\AppData\\Local\\Arm\\Packs\\Keil\\STM32F4xx_DFP\\2.15.0\\Drivers\\STM32F4xx_HAL_Driver\\Src\\stm32f4xx_hal_cortex.c 0x00000000   Number         0  stm32f4xx_hal_cortex.o ABSOLUTE
    C:\\Users\\Usuario\\AppData\\Local\\Arm\\Packs\\Keil\\STM32F4xx_DFP\\2.15.0\\Drivers\\STM32F4xx_HAL_Driver\\Src\\stm32f4xx_hal_dma.c 0x00000000   Number         0  stm32f4xx_hal_dma.o ABSOLUTE
    C:\\Users\\Usuario\\AppData\\Local\\Arm\\Packs\\Keil\\STM32F4xx_DFP\\2.15.0\\Drivers\\STM32F4xx_HAL_Driver\\Src\\stm32f4xx_hal_dma_ex.c 0x00000000   Number         0  stm32f4xx_hal_dma_ex.o ABSOLUTE
    C:\\Users\\Usuario\\AppData\\Local\\Arm\\Packs\\Keil\\STM32F4xx_DFP\\2.15.0\\Drivers\\STM32F4xx_HAL_Driver\\Src\\stm32f4xx_hal_exti.c 0x00000000   Number         0  stm32f4xx_hal_exti.o ABSOLUTE
    C:\\Users\\Usuario\\AppData\\Local\\Arm\\Packs\\Keil\\STM32F4xx_DFP\\2.15.0\\Drivers\\STM32F4xx_HAL_Driver\\Src\\stm32f4xx_hal_gpio.c 0x00000000   Number         0  stm32f4xx_hal_gpio.o ABSOLUTE
    C:\\Users\\Usuario\\AppData\\Local\\Arm\\Packs\\Keil\\STM32F4xx_DFP\\2.15.0\\Drivers\\STM32F4xx_HAL_Driver\\Src\\stm32f4xx_hal_pwr.c 0x00000000   Number         0  stm32f4xx_hal_pwr.o ABSOLUTE
    C:\\Users\\Usuario\\AppData\\Local\\Arm\\Packs\\Keil\\STM32F4xx_DFP\\2.15.0\\Drivers\\STM32F4xx_HAL_Driver\\Src\\stm32f4xx_hal_pwr_ex.c 0x00000000   Number         0  stm32f4xx_hal_pwr_ex.o ABSOLUTE
    C:\\Users\\Usuario\\AppData\\Local\\Arm\\Packs\\Keil\\STM32F4xx_DFP\\2.15.0\\Drivers\\STM32F4xx_HAL_Driver\\Src\\stm32f4xx_hal_rcc.c 0x00000000   Number         0  stm32f4xx_hal_rcc.o ABSOLUTE
    C:\\Users\\Usuario\\AppData\\Local\\Arm\\Packs\\Keil\\STM32F4xx_DFP\\2.15.0\\Drivers\\STM32F4xx_HAL_Driver\\Src\\stm32f4xx_hal_rcc_ex.c 0x00000000   Number         0  stm32f4xx_hal_rcc_ex.o ABSOLUTE
    C:\\Users\\Usuario\\AppData\\Local\\Arm\\Packs\\Keil\\STM32F4xx_DFP\\2.15.0\\Drivers\\STM32F4xx_HAL_Driver\\Src\\stm32f4xx_hal_rtc.c 0x00000000   Number         0  stm32f4xx_hal_rtc.o ABSOLUTE
    C:\\Users\\Usuario\\AppData\\Local\\Arm\\Packs\\Keil\\STM32F4xx_DFP\\2.15.0\\Drivers\\STM32F4xx_HAL_Driver\\Src\\stm32f4xx_hal_rtc_ex.c 0x00000000   Number         0  stm32f4xx_hal_rtc_ex.o ABSOLUTE
    C:\\Users\\Usuario\\AppData\\Local\\Arm\\Packs\\Keil\\STM32F4xx_DFP\\2.15.0\\Drivers\\STM32F4xx_HAL_Driver\\Src\\stm32f4xx_hal_spi.c 0x00000000   Number         0  stm32f4xx_hal_spi.o ABSOLUTE
    C:\\Users\\Usuario\\AppData\\Local\\Arm\\Packs\\Keil\\STM32F4xx_DFP\\2.15.0\\Drivers\\STM32F4xx_HAL_Driver\\Src\\stm32f4xx_hal_sram.c 0x00000000   Number         0  stm32f4xx_hal_sram.o ABSOLUTE
    C:\\Users\\Usuario\\AppData\\Local\\Arm\\Packs\\Keil\\STM32F4xx_DFP\\2.15.0\\Drivers\\STM32F4xx_HAL_Driver\\Src\\stm32f4xx_hal_tim.c 0x00000000   Number         0  stm32f4xx_hal_tim.o ABSOLUTE
    C:\\Users\\Usuario\\AppData\\Local\\Arm\\Packs\\Keil\\STM32F4xx_DFP\\2.15.0\\Drivers\\STM32F4xx_HAL_Driver\\Src\\stm32f4xx_hal_tim_ex.c 0x00000000   Number         0  stm32f4xx_hal_tim_ex.o ABSOLUTE
    C:\\Users\\Usuario\\AppData\\Local\\Arm\\Packs\\Keil\\STM32F4xx_DFP\\2.15.0\\Drivers\\STM32F4xx_HAL_Driver\\Src\\stm32f4xx_ll_fmc.c 0x00000000   Number         0  stm32f4xx_ll_fmc.o ABSOLUTE
    C:\\Users\\Usuario\\AppData\\Local\\Arm\\Packs\\Keil\\STM32F4xx_DFP\\2.15.0\\MDK\\Boards\\Keil\\MCBSTM32F400\\Common\\ADC_MCBSTM32F400.c 0x00000000   Number         0  adc_mcbstm32f400.o ABSOLUTE
    C:\\Users\\Usuario\\AppData\\Local\\Arm\\Packs\\Keil\\STM32F4xx_DFP\\2.15.0\\MDK\\Boards\\Keil\\MCBSTM32F400\\Common\\Buttons_MCBSTM32F400.c 0x00000000   Number         0  buttons_mcbstm32f400.o ABSOLUTE
    C:\\Users\\Usuario\\AppData\\Local\\Arm\\Packs\\Keil\\STM32F4xx_DFP\\2.15.0\\MDK\\Boards\\Keil\\MCBSTM32F400\\Common\\LED_MCBSTM32F400.c 0x00000000   Number         0  led_mcbstm32f400.o ABSOLUTE
    HTTP_Server.c                            0x00000000   Number         0  http_server.o ABSOLUTE
    HTTP_Server.c                            0x00000000   Number         0  http_server.o ABSOLUTE
    HTTP_Server_CGI.c                        0x00000000   Number         0  http_server_cgi.o ABSOLUTE
    HTTP_Server_CGI.c                        0x00000000   Number         0  http_server_cgi.o ABSOLUTE
    RL_ARM.s                                 0x00000000   Number         0  net_ping_core.o ABSOLUTE
    RL_ARM.s                                 0x00000000   Number         0  net_addr.o ABSOLUTE
    RL_ARM.s                                 0x00000000   Number         0  net_version.o ABSOLUTE
    RL_ARM.s                                 0x00000000   Number         0  net_arp.o ABSOLUTE
    RL_ARM.s                                 0x00000000   Number         0  net_base64.o ABSOLUTE
    RL_ARM.s                                 0x00000000   Number         0  net_tcp.o ABSOLUTE
    RL_ARM.s                                 0x00000000   Number         0  net_udp.o ABSOLUTE
    RL_ARM.s                                 0x00000000   Number         0  net_ip4_frag.o ABSOLUTE
    RL_ARM.s                                 0x00000000   Number         0  net_nbns_client.o ABSOLUTE
    RL_ARM.s                                 0x00000000   Number         0  net_loopback.o ABSOLUTE
    RL_ARM.s                                 0x00000000   Number         0  net_sntp_client_core.o ABSOLUTE
    RL_ARM.s                                 0x00000000   Number         0  net_ndp.o ABSOLUTE
    RL_ARM.s                                 0x00000000   Number         0  net_dhcp6_client.o ABSOLUTE
    RL_ARM.s                                 0x00000000   Number         0  net_sntp_client.o ABSOLUTE
    RL_ARM.s                                 0x00000000   Number         0  net_dns_client.o ABSOLUTE
    RL_ARM.s                                 0x00000000   Number         0  net_http_server_auth.o ABSOLUTE
    RL_ARM.s                                 0x00000000   Number         0  net_md5.o ABSOLUTE
    RL_ARM.s                                 0x00000000   Number         0  net_common.o ABSOLUTE
    RL_ARM.s                                 0x00000000   Number         0  net_icmp6.o ABSOLUTE
    RL_ARM.s                                 0x00000000   Number         0  net_sys.o ABSOLUTE
    RL_ARM.s                                 0x00000000   Number         0  net_mem.o ABSOLUTE
    RL_ARM.s                                 0x00000000   Number         0  net_http_server_err.o ABSOLUTE
    RL_ARM.s                                 0x00000000   Number         0  net_http_server.o ABSOLUTE
    RL_ARM.s                                 0x00000000   Number         0  net_eth.o ABSOLUTE
    RL_ARM.s                                 0x00000000   Number         0  net_icmp.o ABSOLUTE
    RL_ARM.s                                 0x00000000   Number         0  net_ip4.o ABSOLUTE
    RL_ARM.s                                 0x00000000   Number         0  net_ip6.o ABSOLUTE
    RTE\CMSIS\RTX_Config.c                   0x00000000   Number         0  rtx_config.o ABSOLUTE
    RTE\Device\STM32F429ZITx\startup_stm32f429xx.s 0x00000000   Number         0  startup_stm32f429xx.o ABSOLUTE
    RTE\Device\STM32F429ZITx\system_stm32f4xx.c 0x00000000   Number         0  system_stm32f4xx.o ABSOLUTE
    RTE\Network\Net_Config.c                 0x00000000   Number         0  net_config.o ABSOLUTE
    RTE\\CMSIS\\RTX_Config.c                 0x00000000   Number         0  rtx_config.o ABSOLUTE
    RTE\\Device\\STM32F429ZITx\\system_stm32f4xx.c 0x00000000   Number         0  system_stm32f4xx.o ABSOLUTE
    SRC\net_addr.c                           0x00000000   Number         0  net_addr.o ABSOLUTE
    SRC\net_arp.c                            0x00000000   Number         0  net_arp.o ABSOLUTE
    SRC\net_base64.c                         0x00000000   Number         0  net_base64.o ABSOLUTE
    SRC\net_common.c                         0x00000000   Number         0  net_common.o ABSOLUTE
    SRC\net_dhcp6_client.c                   0x00000000   Number         0  net_dhcp6_client.o ABSOLUTE
    SRC\net_dns_client.c                     0x00000000   Number         0  net_dns_client.o ABSOLUTE
    SRC\net_eth.c                            0x00000000   Number         0  net_eth.o ABSOLUTE
    SRC\net_http_server.c                    0x00000000   Number         0  net_http_server.o ABSOLUTE
    SRC\net_http_server_auth.c               0x00000000   Number         0  net_http_server_auth.o ABSOLUTE
    SRC\net_http_server_err.c                0x00000000   Number         0  net_http_server_err.o ABSOLUTE
    SRC\net_icmp.c                           0x00000000   Number         0  net_icmp.o ABSOLUTE
    SRC\net_icmp6.c                          0x00000000   Number         0  net_icmp6.o ABSOLUTE
    SRC\net_ip4.c                            0x00000000   Number         0  net_ip4.o ABSOLUTE
    SRC\net_ip4_frag.c                       0x00000000   Number         0  net_ip4_frag.o ABSOLUTE
    SRC\net_ip6.c                            0x00000000   Number         0  net_ip6.o ABSOLUTE
    SRC\net_loopback.c                       0x00000000   Number         0  net_loopback.o ABSOLUTE
    SRC\net_md5.c                            0x00000000   Number         0  net_md5.o ABSOLUTE
    SRC\net_mem.c                            0x00000000   Number         0  net_mem.o ABSOLUTE
    SRC\net_nbns_client.c                    0x00000000   Number         0  net_nbns_client.o ABSOLUTE
    SRC\net_ndp.c                            0x00000000   Number         0  net_ndp.o ABSOLUTE
    SRC\net_ping_core.c                      0x00000000   Number         0  net_ping_core.o ABSOLUTE
    SRC\net_sntp_client.c                    0x00000000   Number         0  net_sntp_client.o ABSOLUTE
    SRC\net_sntp_client_core.c               0x00000000   Number         0  net_sntp_client_core.o ABSOLUTE
    SRC\net_sys.c                            0x00000000   Number         0  net_sys.o ABSOLUTE
    SRC\net_tcp.c                            0x00000000   Number         0  net_tcp.o ABSOLUTE
    SRC\net_udp.c                            0x00000000   Number         0  net_udp.o ABSOLUTE
    SRC\net_version.c                        0x00000000   Number         0  net_version.o ABSOLUTE
    Web\Web.c                                0x00000000   Number         0  web.o ABSOLUTE
    adc.c                                    0x00000000   Number         0  adc.o ABSOLUTE
    adc.c                                    0x00000000   Number         0  adc.o ABSOLUTE
    cdcmple.s                                0x00000000   Number         0  cdcmple.o ABSOLUTE
    cdrcmple.s                               0x00000000   Number         0  cdrcmple.o ABSOLUTE
    dc.s                                     0x00000000   Number         0  dc.o ABSOLUTE
    handlers.s                               0x00000000   Number         0  handlers.o ABSOLUTE
    init.s                                   0x00000000   Number         0  init.o ABSOLUTE
    lcd.c                                    0x00000000   Number         0  lcd.o ABSOLUTE
    lcd.c                                    0x00000000   Number         0  lcd.o ABSOLUTE
    led.c                                    0x00000000   Number         0  led.o ABSOLUTE
    led.c                                    0x00000000   Number         0  led.o ABSOLUTE
    main.c                                   0x00000000   Number         0  main.o ABSOLUTE
    main.c                                   0x00000000   Number         0  main.o ABSOLUTE
    os_systick.c                             0x00000000   Number         0  os_systick.o ABSOLUTE
    rtc.c                                    0x00000000   Number         0  rtc.o ABSOLUTE
    rtc.c                                    0x00000000   Number         0  rtc.o ABSOLUTE
    rtx_delay.c                              0x00000000   Number         0  rtx_delay.o ABSOLUTE
    rtx_kernel.c                             0x00000000   Number         0  rtx_kernel.o ABSOLUTE
    rtx_memory.c                             0x00000000   Number         0  rtx_memory.o ABSOLUTE
    rtx_mempool.c                            0x00000000   Number         0  rtx_mempool.o ABSOLUTE
    rtx_msgqueue.c                           0x00000000   Number         0  rtx_msgqueue.o ABSOLUTE
    rtx_mutex.c                              0x00000000   Number         0  rtx_mutex.o ABSOLUTE
    rtx_semaphore.c                          0x00000000   Number         0  rtx_semaphore.o ABSOLUTE
    rtx_system.c                             0x00000000   Number         0  rtx_system.o ABSOLUTE
    rtx_thread.c                             0x00000000   Number         0  rtx_thread.o ABSOLUTE
    rtx_timer.c                              0x00000000   Number         0  rtx_timer.o ABSOLUTE
    stm32f4xx_hal_msp.c                      0x00000000   Number         0  stm32f4xx_hal_msp.o ABSOLUTE
    stm32f4xx_hal_msp.c                      0x00000000   Number         0  stm32f4xx_hal_msp.o ABSOLUTE
    FPU_USED                                 0x00000001   Number         0  irq_armv7m.o ABSOLUTE
    osRtxErrorStackOverflow                  0x00000001   Number         0  irq_armv7m.o ABSOLUTE
    I_T_RUN_OFS                              0x00000014   Number         0  irq_armv7m.o ABSOLUTE
    TCB_SF_OFS                               0x00000022   Number         0  irq_armv7m.o ABSOLUTE
    TCB_SP_OFS                               0x00000038   Number         0  irq_armv7m.o ABSOLUTE
    RESET                                    0x08000000   Section      428  startup_stm32f429xx.o(RESET)
    .ARM.Collect$$$$00000000                 0x080001ac   Section        0  entry.o(.ARM.Collect$$$$00000000)
    .ARM.Collect$$$$00000001                 0x080001ac   Section        4  entry2.o(.ARM.Collect$$$$00000001)
    .ARM.Collect$$$$00000004                 0x080001b0   Section        4  entry5.o(.ARM.Collect$$$$00000004)
    .ARM.Collect$$$$00000008                 0x080001b4   Section        0  entry7b.o(.ARM.Collect$$$$00000008)
    .ARM.Collect$$$$0000000A                 0x080001b4   Section        0  entry8b.o(.ARM.Collect$$$$0000000A)
    .ARM.Collect$$$$0000000B                 0x080001b4   Section        8  entry9a.o(.ARM.Collect$$$$0000000B)
    .ARM.Collect$$$$0000000E                 0x080001bc   Section        4  entry12b.o(.ARM.Collect$$$$0000000E)
    .ARM.Collect$$$$0000000F                 0x080001c0   Section        0  entry10a.o(.ARM.Collect$$$$0000000F)
    .ARM.Collect$$$$00000011                 0x080001c0   Section        0  entry11a.o(.ARM.Collect$$$$00000011)
    .ARM.Collect$$$$00002712                 0x080001c0   Section        4  entry2.o(.ARM.Collect$$$$00002712)
    __lit__00000000                          0x080001c0   Data           4  entry2.o(.ARM.Collect$$$$00002712)
    .text                                    0x080001c4   Section        0  main.o(.text)
    Error_Handler                            0x08000207   Thumb Code     2  main.o(.text)
    SystemClock_Config                       0x08000209   Thumb Code   146  main.o(.text)
    .text                                    0x080002d8   Section        0  http_server.o(.text)
    Th_WaterSensor                           0x0800039b   Thumb Code    32  http_server.o(.text)
    Th_WaterSensorOff                        0x080003cd   Thumb Code    32  http_server.o(.text)
    Th_SLEEP                                 0x08000841   Thumb Code    66  http_server.o(.text)
    Th_SNTP                                  0x080008a1   Thumb Code   202  http_server.o(.text)
    ThSetCalendar                            0x08000987   Thumb Code   124  http_server.o(.text)
    Th_AlarmLED                              0x08000a21   Thumb Code    46  http_server.o(.text)
    ThRtc                                    0x08000a6b   Thumb Code    60  http_server.o(.text)
    ThAdcRead                                0x08000bcf   Thumb Code    30  http_server.o(.text)
    GPIO_init                                0x08000c11   Thumb Code    46  http_server.o(.text)
    .text                                    0x08000dc0   Section        0  http_server_cgi.o(.text)
    .text                                    0x0800161c   Section        0  web.o(.text)
    crc32_8bit                               0x0800161d   Thumb Code    28  web.o(.text)
    .text                                    0x08001694   Section        0  led.o(.text)
    .text                                    0x080016d0   Section        0  lcd.o(.text)
    .text                                    0x08001a3c   Section        0  adc.o(.text)
    .text                                    0x08001b84   Section        0  rtc.o(.text)
    .text                                    0x08001d08   Section        0  stm32f4xx_hal_msp.o(.text)
    .text                                    0x08001d58   Section        0  led_mcbstm32f400.o(.text)
    .text                                    0x08001e7c   Section        0  rtx_config.o(.text)
    .text                                    0x08001e80   Section        0  phy_lan8742a.o(.text)
    GetVersion                               0x08001e81   Thumb Code     6  phy_lan8742a.o(.text)
    Initialize                               0x08001e87   Thumb Code    38  phy_lan8742a.o(.text)
    Uninitialize                             0x08001ead   Thumb Code    16  phy_lan8742a.o(.text)
    PowerControl                             0x08001ebd   Thumb Code   150  phy_lan8742a.o(.text)
    SetInterface                             0x08001f53   Thumb Code    28  phy_lan8742a.o(.text)
    SetMode                                  0x08001f6f   Thumb Code    88  phy_lan8742a.o(.text)
    GetLinkState                             0x08001fc7   Thumb Code    34  phy_lan8742a.o(.text)
    GetLinkInfo                              0x08001fe9   Thumb Code    58  phy_lan8742a.o(.text)
    .text                                    0x0800202c   Section        0  emac_stm32f4xx.o(.text)
    Enable_GPIO_Clock                        0x0800202d   Thumb Code   268  emac_stm32f4xx.o(.text)
    init_rx_desc                             0x08002139   Thumb Code    70  emac_stm32f4xx.o(.text)
    init_tx_desc                             0x0800217f   Thumb Code    62  emac_stm32f4xx.o(.text)
    init_dma                                 0x080021bd   Thumb Code    48  emac_stm32f4xx.o(.text)
    crc32_8bit_rev                           0x080021ed   Thumb Code    30  emac_stm32f4xx.o(.text)
    crc32_data                               0x0800220b   Thumb Code    32  emac_stm32f4xx.o(.text)
    GetVersion                               0x0800222b   Thumb Code     6  emac_stm32f4xx.o(.text)
    GetCapabilities                          0x08002231   Thumb Code     6  emac_stm32f4xx.o(.text)
    Initialize                               0x08002237   Thumb Code    98  emac_stm32f4xx.o(.text)
    Uninitialize                             0x08002299   Thumb Code    42  emac_stm32f4xx.o(.text)
    PowerControl                             0x080022c3   Thumb Code   526  emac_stm32f4xx.o(.text)
    GetMacAddress                            0x080024d1   Thumb Code    54  emac_stm32f4xx.o(.text)
    SetMacAddress                            0x08002507   Thumb Code    62  emac_stm32f4xx.o(.text)
    SetAddressFilter                         0x08002545   Thumb Code   286  emac_stm32f4xx.o(.text)
    SendFrame                                0x08002663   Thumb Code   210  emac_stm32f4xx.o(.text)
    ReadFrame                                0x08002735   Thumb Code   124  emac_stm32f4xx.o(.text)
    GetRxFrameSize                           0x080027b1   Thumb Code    58  emac_stm32f4xx.o(.text)
    GetRxFrameTime                           0x080027eb   Thumb Code     6  emac_stm32f4xx.o(.text)
    GetTxFrameTime                           0x080027f1   Thumb Code     6  emac_stm32f4xx.o(.text)
    ControlTimer                             0x080027f7   Thumb Code     6  emac_stm32f4xx.o(.text)
    Control                                  0x080027fd   Thumb Code   302  emac_stm32f4xx.o(.text)
    PHY_Read                                 0x0800292b   Thumb Code    82  emac_stm32f4xx.o(.text)
    PHY_Write                                0x0800297d   Thumb Code    78  emac_stm32f4xx.o(.text)
    .text                                    0x08002a14   Section        0  spi_stm32f4xx.o(.text)
    Enable_GPIO_Clock                        0x08002a15   Thumb Code   268  spi_stm32f4xx.o(.text)
    Enable_SPI_Clock                         0x08002b21   Thumb Code   154  spi_stm32f4xx.o(.text)
    Disable_SPI_Clock                        0x08002bbb   Thumb Code   104  spi_stm32f4xx.o(.text)
    SPI_PeripheralReset                      0x08002c23   Thumb Code   224  spi_stm32f4xx.o(.text)
    SPIX_GetVersion                          0x08002d03   Thumb Code     6  spi_stm32f4xx.o(.text)
    SPIX_GetCapabilities                     0x08002d09   Thumb Code     6  spi_stm32f4xx.o(.text)
    SPI_Initialize                           0x08002d0f   Thumb Code   194  spi_stm32f4xx.o(.text)
    SPI_Control                              0x08002dd1   Thumb Code  1146  spi_stm32f4xx.o(.text)
    SPI_PowerControl                         0x0800324b   Thumb Code   218  spi_stm32f4xx.o(.text)
    SPI_Uninitialize                         0x08003325   Thumb Code    86  spi_stm32f4xx.o(.text)
    SPI_TxData                               0x0800337b   Thumb Code    72  spi_stm32f4xx.o(.text)
    SPI_Send                                 0x080033c3   Thumb Code   110  spi_stm32f4xx.o(.text)
    SPI_Receive                              0x08003431   Thumb Code   110  spi_stm32f4xx.o(.text)
    SPI_Transfer                             0x0800349f   Thumb Code   118  spi_stm32f4xx.o(.text)
    SPI_GetDataCount                         0x08003515   Thumb Code     6  spi_stm32f4xx.o(.text)
    SPI_GetStatus                            0x0800351b   Thumb Code    26  spi_stm32f4xx.o(.text)
    SPI_RxData                               0x08003535   Thumb Code    68  spi_stm32f4xx.o(.text)
    SPI_IRQHandler                           0x08003579   Thumb Code   198  spi_stm32f4xx.o(.text)
    SPI3_Initialize                          0x0800363f   Thumb Code     6  spi_stm32f4xx.o(.text)
    SPI3_Uninitialize                        0x08003645   Thumb Code     4  spi_stm32f4xx.o(.text)
    SPI3_PowerControl                        0x08003649   Thumb Code     4  spi_stm32f4xx.o(.text)
    SPI3_Send                                0x0800364d   Thumb Code     4  spi_stm32f4xx.o(.text)
    SPI3_Receive                             0x08003651   Thumb Code     4  spi_stm32f4xx.o(.text)
    SPI3_Transfer                            0x08003655   Thumb Code     4  spi_stm32f4xx.o(.text)
    SPI3_GetDataCount                        0x08003659   Thumb Code     4  spi_stm32f4xx.o(.text)
    SPI3_Control                             0x0800365d   Thumb Code     6  spi_stm32f4xx.o(.text)
    SPI3_GetStatus                           0x08003663   Thumb Code     4  spi_stm32f4xx.o(.text)
    .text                                    0x08003670   Section        0  stm32f4xx_hal.o(.text)
    .text                                    0x08003838   Section        0  stm32f4xx_hal_adc.o(.text)
    ADC_Init                                 0x08003839   Thumb Code   298  stm32f4xx_hal_adc.o(.text)
    ADC_DMAError                             0x08003ec9   Thumb Code    22  stm32f4xx_hal_adc.o(.text)
    ADC_DMAHalfConvCplt                      0x08003ee1   Thumb Code    10  stm32f4xx_hal_adc.o(.text)
    ADC_DMAConvCplt                          0x08003eeb   Thumb Code   110  stm32f4xx_hal_adc.o(.text)
    .text                                    0x080042f0   Section        0  stm32f4xx_hal_adc_ex.o(.text)
    ADC_MultiModeDMAError                    0x08004615   Thumb Code    18  stm32f4xx_hal_adc_ex.o(.text)
    ADC_MultiModeDMAHalfConvCplt             0x08004627   Thumb Code     6  stm32f4xx_hal_adc_ex.o(.text)
    ADC_MultiModeDMAConvCplt                 0x0800462d   Thumb Code    90  stm32f4xx_hal_adc_ex.o(.text)
    .text                                    0x08004a14   Section        0  stm32f4xx_hal_cortex.o(.text)
    __NVIC_SetPriority                       0x08004c83   Thumb Code    32  stm32f4xx_hal_cortex.o(.text)
    .text                                    0x08004cac   Section        0  stm32f4xx_hal_dma.o(.text)
    DMA_CalcBaseAndBitshift                  0x08004cad   Thumb Code    38  stm32f4xx_hal_dma.o(.text)
    DMA_CheckFifoParam                       0x08004cd3   Thumb Code   120  stm32f4xx_hal_dma.o(.text)
    DMA_SetConfig                            0x08004e81   Thumb Code    42  stm32f4xx_hal_dma.o(.text)
    .text                                    0x080053c4   Section        0  stm32f4xx_hal_gpio.o(.text)
    .text                                    0x08005728   Section        0  stm32f4xx_hal_pwr.o(.text)
    .text                                    0x080058a0   Section        0  stm32f4xx_hal_rcc.o(.text)
    .text                                    0x08006000   Section        0  stm32f4xx_hal_rcc_ex.o(.text)
    .text                                    0x080065e4   Section        0  stm32f4xx_hal_rtc.o(.text)
    .text                                    0x08006f54   Section        0  stm32f4xx_hal_rtc_ex.o(.text)
    .text                                    0x08007a60   Section        0  stm32f4xx_hal_tim.o(.text)
    TIM_DMAPeriodElapsedHalfCplt             0x08007c23   Thumb Code    16  stm32f4xx_hal_tim.o(.text)
    TIM_DMAPeriodElapsedCplt                 0x08007c35   Thumb Code    16  stm32f4xx_hal_tim.o(.text)
    TIM_OC4_SetConfig                        0x08009083   Thumb Code    74  stm32f4xx_hal_tim.o(.text)
    TIM_OC3_SetConfig                        0x080090cd   Thumb Code   104  stm32f4xx_hal_tim.o(.text)
    TIM_OC1_SetConfig                        0x0800919f   Thumb Code    96  stm32f4xx_hal_tim.o(.text)
    TIM_TI4_SetConfig                        0x08009253   Thumb Code    56  stm32f4xx_hal_tim.o(.text)
    TIM_TI3_SetConfig                        0x0800928b   Thumb Code    50  stm32f4xx_hal_tim.o(.text)
    TIM_TI2_SetConfig                        0x080092bd   Thumb Code    54  stm32f4xx_hal_tim.o(.text)
    TIM_DMATriggerHalfCplt                   0x080095f7   Thumb Code    16  stm32f4xx_hal_tim.o(.text)
    TIM_DMATriggerCplt                       0x08009607   Thumb Code    16  stm32f4xx_hal_tim.o(.text)
    TIM_ITRx_SetConfig                       0x08009b75   Thumb Code    16  stm32f4xx_hal_tim.o(.text)
    TIM_TI1_ConfigInputStage                 0x08009b85   Thumb Code    34  stm32f4xx_hal_tim.o(.text)
    TIM_TI2_ConfigInputStage                 0x08009ba7   Thumb Code    36  stm32f4xx_hal_tim.o(.text)
    TIM_SlaveTimer_SetConfig                 0x08009cbd   Thumb Code   134  stm32f4xx_hal_tim.o(.text)
    .text                                    0x08009e34   Section        0  stm32f4xx_hal_tim_ex.o(.text)
    TIM_CCxNChannelCmd                       0x0800a0a5   Thumb Code    26  stm32f4xx_hal_tim_ex.o(.text)
    .text                                    0x0800a9e4   Section       36  startup_stm32f429xx.o(.text)
    $v0                                      0x0800a9e4   Number         0  startup_stm32f429xx.o(.text)
    .text                                    0x0800aa08   Section        0  system_stm32f4xx.o(.text)
    .text                                    0x0800aaa8   Section        0  net_config.o(.text)
    ms2tick                                  0x0800aaa9   Thumb Code    44  net_config.o(.text)
    eth0_callback                            0x0800abc7   Thumb Code     6  net_config.o(.text)
    [Anonymous Symbol]                       0x0800ac14   Section        0  irq_armv7m.o(.text)
    SVC_Context                              0x0800ac3c   Number         0  irq_armv7m.o(.text)
    SVC_FP_LazyState                         0x0800ac4c   Number         0  irq_armv7m.o(.text)
    SVC_ContextSave                          0x0800ac5e   Number         0  irq_armv7m.o(.text)
    SVC_ContextRestore                       0x0800ac74   Number         0  irq_armv7m.o(.text)
    SVC_Exit                                 0x0800ac90   Number         0  irq_armv7m.o(.text)
    SVC_User                                 0x0800ac92   Number         0  irq_armv7m.o(.text)
    .text                                    0x0800acdc   Section        0  uldiv.o(.text)
    .text                                    0x0800ad40   Section        0  localtime.o(.text)
    .text                                    0x0800add4   Section        0  strftime.o(.text)
    _isoweek                                 0x0800add5   Thumb Code    64  strftime.o(.text)
    _yeardays                                0x0800b059   Thumb Code    42  strftime.o(.text)
    .text                                    0x0800b168   Section        0  memcpya.o(.text)
    .text                                    0x0800b18c   Section        0  memseta.o(.text)
    .text                                    0x0800b1b0   Section        0  strlen.o(.text)
    .text                                    0x0800b1be   Section        0  strcmp.o(.text)
    .text                                    0x0800b1da   Section        0  memcmp.o(.text)
    .text                                    0x0800b1f4   Section        0  strcpy.o(.text)
    .text                                    0x0800b206   Section        0  strncmp.o(.text)
    .text                                    0x0800b224   Section        0  atoi.o(.text)
    .text                                    0x0800b23e   Section        0  dmul.o(.text)
    .text                                    0x0800b322   Section        0  f2d.o(.text)
    .text                                    0x0800b348   Section       48  cdcmple.o(.text)
    .text                                    0x0800b378   Section       48  cdrcmple.o(.text)
    .text                                    0x0800b3a8   Section        0  llshl.o(.text)
    .text                                    0x0800b3c6   Section        0  llushr.o(.text)
    .text                                    0x0800b3e6   Section        0  strtol.o(.text)
    .text                                    0x0800b456   Section        0  depilogue.o(.text)
    .text                                    0x0800b456   Section        0  iusefp.o(.text)
    .text                                    0x0800b510   Section       36  init.o(.text)
    .text                                    0x0800b534   Section        0  ctype_o.o(.text)
    .text                                    0x0800b53c   Section        0  _strtoul.o(.text)
    .text                                    0x0800b5da   Section        0  _chval.o(.text)
    .text                                    0x0800b5f6   Section        0  __dczerorl2.o(.text)
    [Anonymous Symbol]                       0x0800b64c   Section        0  rtx_msgqueue.o(.text.MessageQueueGet)
    MessageQueueGet                          0x0800b64d   Thumb Code    64  rtx_msgqueue.o(.text.MessageQueueGet)
    [Anonymous Symbol]                       0x0800b68c   Section        0  rtx_msgqueue.o(.text.MessageQueuePut)
    MessageQueuePut                          0x0800b68d   Thumb Code    88  rtx_msgqueue.o(.text.MessageQueuePut)
    [Anonymous Symbol]                       0x0800b6e4   Section        0  rtx_msgqueue.o(.text.MessageQueueRemove)
    MessageQueueRemove                       0x0800b6e5   Thumb Code    28  rtx_msgqueue.o(.text.MessageQueueRemove)
    [Anonymous Symbol]                       0x0800b700   Section        0  os_systick.o(.text.OS_Tick_AcknowledgeIRQ)
    __arm_cp.3_0                             0x0800b708   Number         4  os_systick.o(.text.OS_Tick_AcknowledgeIRQ)
    [Anonymous Symbol]                       0x0800b70c   Section        0  os_systick.o(.text.OS_Tick_Enable)
    __arm_cp.1_0                             0x0800b72c   Number         4  os_systick.o(.text.OS_Tick_Enable)
    __arm_cp.1_1                             0x0800b730   Number         4  os_systick.o(.text.OS_Tick_Enable)
    __arm_cp.1_2                             0x0800b734   Number         4  os_systick.o(.text.OS_Tick_Enable)
    [Anonymous Symbol]                       0x0800b738   Section        0  os_systick.o(.text.OS_Tick_GetIRQn)
    [Anonymous Symbol]                       0x0800b740   Section        0  os_systick.o(.text.OS_Tick_Setup)
    __arm_cp.0_0                             0x0800b770   Number         4  os_systick.o(.text.OS_Tick_Setup)
    __arm_cp.0_1                             0x0800b774   Number         4  os_systick.o(.text.OS_Tick_Setup)
    __arm_cp.0_2                             0x0800b778   Number         4  os_systick.o(.text.OS_Tick_Setup)
    __arm_cp.0_3                             0x0800b77c   Number         4  os_systick.o(.text.OS_Tick_Setup)
    [Anonymous Symbol]                       0x0800b780   Section        0  rtx_kernel.o(.text.OUTLINED_FUNCTION_0)
    OUTLINED_FUNCTION_0                      0x0800b781   Thumb Code    12  rtx_kernel.o(.text.OUTLINED_FUNCTION_0)
    [Anonymous Symbol]                       0x0800b78c   Section        0  rtx_thread.o(.text.OUTLINED_FUNCTION_0)
    OUTLINED_FUNCTION_0                      0x0800b78d   Thumb Code     6  rtx_thread.o(.text.OUTLINED_FUNCTION_0)
    [Anonymous Symbol]                       0x0800b792   Section        0  rtx_msgqueue.o(.text.OUTLINED_FUNCTION_0)
    OUTLINED_FUNCTION_0                      0x0800b793   Thumb Code    12  rtx_msgqueue.o(.text.OUTLINED_FUNCTION_0)
    [Anonymous Symbol]                       0x0800b79e   Section        0  rtx_kernel.o(.text.OUTLINED_FUNCTION_1)
    OUTLINED_FUNCTION_1                      0x0800b79f   Thumb Code     6  rtx_kernel.o(.text.OUTLINED_FUNCTION_1)
    [Anonymous Symbol]                       0x0800b7a4   Section        0  rtx_thread.o(.text.OUTLINED_FUNCTION_1)
    OUTLINED_FUNCTION_1                      0x0800b7a5   Thumb Code     6  rtx_thread.o(.text.OUTLINED_FUNCTION_1)
    [Anonymous Symbol]                       0x0800b7aa   Section        0  rtx_thread.o(.text.OUTLINED_FUNCTION_2)
    OUTLINED_FUNCTION_2                      0x0800b7ab   Thumb Code    20  rtx_thread.o(.text.OUTLINED_FUNCTION_2)
    [Anonymous Symbol]                       0x0800b7be   Section        0  rtx_thread.o(.text.OUTLINED_FUNCTION_3)
    OUTLINED_FUNCTION_3                      0x0800b7bf   Thumb Code     8  rtx_thread.o(.text.OUTLINED_FUNCTION_3)
    [Anonymous Symbol]                       0x0800b7c6   Section        0  rtx_semaphore.o(.text.SemaphoreTokenIncrement)
    SemaphoreTokenIncrement                  0x0800b7c7   Thumb Code    46  rtx_semaphore.o(.text.SemaphoreTokenIncrement)
    [Anonymous Symbol]                       0x0800b7f4   Section        0  rtx_thread.o(.text.ThreadFlagsCheck)
    ThreadFlagsCheck                         0x0800b7f5   Thumb Code   100  rtx_thread.o(.text.ThreadFlagsCheck)
    [Anonymous Symbol]                       0x0800b858   Section        0  rtx_timer.o(.text.TimerInsert)
    TimerInsert                              0x0800b859   Thumb Code    68  rtx_timer.o(.text.TimerInsert)
    __arm_cp.9_0                             0x0800b89c   Number         4  rtx_timer.o(.text.TimerInsert)
    [Anonymous Symbol]                       0x0800b8a0   Section        0  rtx_timer.o(.text.TimerRemove)
    TimerRemove                              0x0800b8a1   Thumb Code    36  rtx_timer.o(.text.TimerRemove)
    __arm_cp.13_0                            0x0800b8c4   Number         4  rtx_timer.o(.text.TimerRemove)
    [Anonymous Symbol]                       0x0800b8c8   Section        0  rtx_delay.o(.text.osDelay)
    __arm_cp.0_0                             0x0800b8e8   Number         4  rtx_delay.o(.text.osDelay)
    [Anonymous Symbol]                       0x0800b8ec   Section        0  rtx_kernel.o(.text.osKernelGetState)
    __arm_cp.5_0                             0x0800b914   Number         4  rtx_kernel.o(.text.osKernelGetState)
    __arm_cp.5_1                             0x0800b918   Number         4  rtx_kernel.o(.text.osKernelGetState)
    [Anonymous Symbol]                       0x0800b91c   Section        0  rtx_kernel.o(.text.osKernelGetTickCount)
    __arm_cp.13_0                            0x0800b93c   Number         4  rtx_kernel.o(.text.osKernelGetTickCount)
    __arm_cp.13_1                            0x0800b940   Number         4  rtx_kernel.o(.text.osKernelGetTickCount)
    [Anonymous Symbol]                       0x0800b944   Section        0  rtx_kernel.o(.text.osKernelGetTickFreq)
    __arm_cp.15_0                            0x0800b964   Number         4  rtx_kernel.o(.text.osKernelGetTickFreq)
    __arm_cp.15_1                            0x0800b968   Number         4  rtx_kernel.o(.text.osKernelGetTickFreq)
    [Anonymous Symbol]                       0x0800b96c   Section        0  rtx_kernel.o(.text.osKernelInitialize)
    __arm_cp.2_0                             0x0800b994   Number         4  rtx_kernel.o(.text.osKernelInitialize)
    [Anonymous Symbol]                       0x0800b998   Section        0  rtx_kernel.o(.text.osKernelStart)
    __arm_cp.7_0                             0x0800b9b8   Number         4  rtx_kernel.o(.text.osKernelStart)
    [Anonymous Symbol]                       0x0800b9bc   Section        0  rtx_msgqueue.o(.text.osMessageQueueGet)
    __arm_cp.5_0                             0x0800ba28   Number         4  rtx_msgqueue.o(.text.osMessageQueueGet)
    [Anonymous Symbol]                       0x0800ba2c   Section        0  rtx_msgqueue.o(.text.osMessageQueueNew)
    __arm_cp.2_0                             0x0800ba4c   Number         4  rtx_msgqueue.o(.text.osMessageQueueNew)
    [Anonymous Symbol]                       0x0800ba50   Section        0  rtx_msgqueue.o(.text.osMessageQueuePut)
    __arm_cp.4_0                             0x0800bacc   Number         4  rtx_msgqueue.o(.text.osMessageQueuePut)
    [Anonymous Symbol]                       0x0800bad0   Section        0  rtx_mutex.o(.text.osMutexAcquire)
    __arm_cp.4_0                             0x0800baf0   Number         4  rtx_mutex.o(.text.osMutexAcquire)
    [Anonymous Symbol]                       0x0800baf4   Section        0  rtx_mutex.o(.text.osMutexDelete)
    __arm_cp.7_0                             0x0800bb14   Number         4  rtx_mutex.o(.text.osMutexDelete)
    [Anonymous Symbol]                       0x0800bb18   Section        0  rtx_mutex.o(.text.osMutexNew)
    __arm_cp.2_0                             0x0800bb38   Number         4  rtx_mutex.o(.text.osMutexNew)
    [Anonymous Symbol]                       0x0800bb3c   Section        0  rtx_mutex.o(.text.osMutexRelease)
    __arm_cp.5_0                             0x0800bb5c   Number         4  rtx_mutex.o(.text.osMutexRelease)
    [Anonymous Symbol]                       0x0800bb60   Section        0  rtx_kernel.o(.text.osRtxKernelErrorNotify)
    [Anonymous Symbol]                       0x0800bb64   Section        0  rtx_kernel.o(.text.osRtxKernelPreInit)
    [Anonymous Symbol]                       0x0800bb66   Section        0  rtx_memory.o(.text.osRtxMemoryAlloc)
    [Anonymous Symbol]                       0x0800bbd2   Section        0  rtx_memory.o(.text.osRtxMemoryFree)
    [Anonymous Symbol]                       0x0800bc14   Section        0  rtx_memory.o(.text.osRtxMemoryInit)
    [Anonymous Symbol]                       0x0800bc4a   Section        0  rtx_mempool.o(.text.osRtxMemoryPoolAlloc)
    [Anonymous Symbol]                       0x0800bc84   Section        0  rtx_mempool.o(.text.osRtxMemoryPoolFree)
    [Anonymous Symbol]                       0x0800bcce   Section        0  rtx_mempool.o(.text.osRtxMemoryPoolInit)
    [Anonymous Symbol]                       0x0800bd06   Section        0  rtx_msgqueue.o(.text.osRtxMessageQueuePostProcess)
    osRtxMessageQueuePostProcess             0x0800bd07   Thumb Code   170  rtx_msgqueue.o(.text.osRtxMessageQueuePostProcess)
    [Anonymous Symbol]                       0x0800bdb0   Section        0  rtx_msgqueue.o(.text.osRtxMessageQueueTimerSetup)
    __arm_cp.0_0                             0x0800bdd0   Number         4  rtx_msgqueue.o(.text.osRtxMessageQueueTimerSetup)
    __arm_cp.0_1                             0x0800bdd4   Number         4  rtx_msgqueue.o(.text.osRtxMessageQueueTimerSetup)
    [Anonymous Symbol]                       0x0800bdd8   Section        0  rtx_mutex.o(.text.osRtxMutexOwnerRelease)
    [Anonymous Symbol]                       0x0800be20   Section        0  rtx_mutex.o(.text.osRtxMutexOwnerRestore)
    [Anonymous Symbol]                       0x0800be64   Section        0  rtx_system.o(.text.osRtxPendSV_Handler)
    __arm_cp.1_0                             0x0800beec   Number         4  rtx_system.o(.text.osRtxPendSV_Handler)
    [Anonymous Symbol]                       0x0800bef0   Section        0  rtx_system.o(.text.osRtxPostProcess)
    __arm_cp.2_0                             0x0800bf5c   Number         4  rtx_system.o(.text.osRtxPostProcess)
    __arm_cp.2_1                             0x0800bf60   Number         4  rtx_system.o(.text.osRtxPostProcess)
    [Anonymous Symbol]                       0x0800bf64   Section        0  rtx_semaphore.o(.text.osRtxSemaphorePostProcess)
    osRtxSemaphorePostProcess                0x0800bf65   Thumb Code    54  rtx_semaphore.o(.text.osRtxSemaphorePostProcess)
    [Anonymous Symbol]                       0x0800bf9c   Section        0  rtx_thread.o(.text.osRtxThreadBlock)
    osRtxThreadBlock                         0x0800bf9d   Thumb Code    52  rtx_thread.o(.text.osRtxThreadBlock)
    __arm_cp.10_0                            0x0800bfd0   Number         4  rtx_thread.o(.text.osRtxThreadBlock)
    [Anonymous Symbol]                       0x0800bfd4   Section        0  rtx_thread.o(.text.osRtxThreadDelayInsert)
    osRtxThreadDelayInsert                   0x0800bfd5   Thumb Code   124  rtx_thread.o(.text.osRtxThreadDelayInsert)
    __arm_cp.14_0                            0x0800c050   Number         4  rtx_thread.o(.text.osRtxThreadDelayInsert)
    [Anonymous Symbol]                       0x0800c054   Section        0  rtx_thread.o(.text.osRtxThreadDelayRemove)
    osRtxThreadDelayRemove                   0x0800c055   Thumb Code    60  rtx_thread.o(.text.osRtxThreadDelayRemove)
    __arm_cp.12_0                            0x0800c090   Number         4  rtx_thread.o(.text.osRtxThreadDelayRemove)
    [Anonymous Symbol]                       0x0800c094   Section        0  rtx_thread.o(.text.osRtxThreadDelayTick)
    __arm_cp.5_0                             0x0800c0dc   Number         4  rtx_thread.o(.text.osRtxThreadDelayTick)
    [Anonymous Symbol]                       0x0800c0e0   Section        0  rtx_thread.o(.text.osRtxThreadDestroy)
    osRtxThreadDestroy                       0x0800c0e1   Thumb Code    32  rtx_thread.o(.text.osRtxThreadDestroy)
    __arm_cp.56_0                            0x0800c100   Number         4  rtx_thread.o(.text.osRtxThreadDestroy)
    [Anonymous Symbol]                       0x0800c104   Section        0  rtx_thread.o(.text.osRtxThreadDispatch)
    __arm_cp.9_0                             0x0800c154   Number         4  rtx_thread.o(.text.osRtxThreadDispatch)
    [Anonymous Symbol]                       0x0800c158   Section        0  rtx_thread.o(.text.osRtxThreadFree)
    osRtxThreadFree                          0x0800c159   Thumb Code    84  rtx_thread.o(.text.osRtxThreadFree)
    __arm_cp.52_0                            0x0800c1ac   Number         4  rtx_thread.o(.text.osRtxThreadFree)
    [Anonymous Symbol]                       0x0800c1b0   Section        0  rtx_thread.o(.text.osRtxThreadJoinWakeup)
    osRtxThreadJoinWakeup                    0x0800c1b1   Thumb Code    30  rtx_thread.o(.text.osRtxThreadJoinWakeup)
    [Anonymous Symbol]                       0x0800c1ce   Section        0  rtx_thread.o(.text.osRtxThreadListGet)
    [Anonymous Symbol]                       0x0800c1e0   Section        0  rtx_thread.o(.text.osRtxThreadListPut)
    [Anonymous Symbol]                       0x0800c20c   Section        0  rtx_thread.o(.text.osRtxThreadListRemove)
    [Anonymous Symbol]                       0x0800c220   Section        0  rtx_thread.o(.text.osRtxThreadListRoot)
    osRtxThreadListRoot                      0x0800c221   Thumb Code    12  rtx_thread.o(.text.osRtxThreadListRoot)
    [Anonymous Symbol]                       0x0800c22c   Section        0  rtx_thread.o(.text.osRtxThreadListSort)
    [Anonymous Symbol]                       0x0800c252   Section        0  rtx_thread.o(.text.osRtxThreadPostProcess)
    osRtxThreadPostProcess                   0x0800c253   Thumb Code    40  rtx_thread.o(.text.osRtxThreadPostProcess)
    [Anonymous Symbol]                       0x0800c27c   Section        0  rtx_thread.o(.text.osRtxThreadReadyPut)
    __arm_cp.4_0                             0x0800c28c   Number         4  rtx_thread.o(.text.osRtxThreadReadyPut)
    [Anonymous Symbol]                       0x0800c290   Section        0  rtx_thread.o(.text.osRtxThreadRegPtr)
    [Anonymous Symbol]                       0x0800c2a4   Section        0  rtx_thread.o(.text.osRtxThreadStartup)
    __arm_cp.15_0                            0x0800c2d4   Number         4  rtx_thread.o(.text.osRtxThreadStartup)
    __arm_cp.15_1                            0x0800c2d8   Number         4  rtx_thread.o(.text.osRtxThreadStartup)
    __arm_cp.15_2                            0x0800c2dc   Number         4  rtx_thread.o(.text.osRtxThreadStartup)
    [Anonymous Symbol]                       0x0800c2e0   Section        0  rtx_thread.o(.text.osRtxThreadSwitch)
    __arm_cp.8_0                             0x0800c2ec   Number         4  rtx_thread.o(.text.osRtxThreadSwitch)
    [Anonymous Symbol]                       0x0800c2f0   Section        0  rtx_thread.o(.text.osRtxThreadWaitEnter)
    __arm_cp.13_0                            0x0800c328   Number         4  rtx_thread.o(.text.osRtxThreadWaitEnter)
    [Anonymous Symbol]                       0x0800c32c   Section        0  rtx_thread.o(.text.osRtxThreadWaitExit)
    [Anonymous Symbol]                       0x0800c35c   Section        0  rtx_system.o(.text.osRtxTick_Handler)
    __arm_cp.0_0                             0x0800c3d0   Number         4  rtx_system.o(.text.osRtxTick_Handler)
    [Anonymous Symbol]                       0x0800c3d4   Section        0  rtx_timer.o(.text.osRtxTimerSetup)
    __arm_cp.0_0                             0x0800c3ec   Number         4  rtx_timer.o(.text.osRtxTimerSetup)
    __arm_cp.0_1                             0x0800c3f0   Number         4  rtx_timer.o(.text.osRtxTimerSetup)
    [Anonymous Symbol]                       0x0800c3f4   Section        0  rtx_timer.o(.text.osRtxTimerThread)
    [Anonymous Symbol]                       0x0800c414   Section        0  rtx_timer.o(.text.osRtxTimerTick)
    osRtxTimerTick                           0x0800c415   Thumb Code   108  rtx_timer.o(.text.osRtxTimerTick)
    __arm_cp.1_0                             0x0800c480   Number         4  rtx_timer.o(.text.osRtxTimerTick)
    [Anonymous Symbol]                       0x0800c484   Section        0  rtx_semaphore.o(.text.osSemaphoreAcquire)
    __arm_cp.2_0                             0x0800c4d4   Number         4  rtx_semaphore.o(.text.osSemaphoreAcquire)
    [Anonymous Symbol]                       0x0800c4d8   Section        0  rtx_semaphore.o(.text.osSemaphoreDelete)
    __arm_cp.6_0                             0x0800c4f8   Number         4  rtx_semaphore.o(.text.osSemaphoreDelete)
    [Anonymous Symbol]                       0x0800c4fc   Section        0  rtx_semaphore.o(.text.osSemaphoreNew)
    __arm_cp.0_0                             0x0800c51c   Number         4  rtx_semaphore.o(.text.osSemaphoreNew)
    [Anonymous Symbol]                       0x0800c520   Section        0  rtx_semaphore.o(.text.osSemaphoreRelease)
    __arm_cp.3_0                             0x0800c568   Number         4  rtx_semaphore.o(.text.osSemaphoreRelease)
    [Anonymous Symbol]                       0x0800c56c   Section        0  rtx_thread.o(.text.osThreadExit)
    __arm_cp.31_0                            0x0800c574   Number         4  rtx_thread.o(.text.osThreadExit)
    [Anonymous Symbol]                       0x0800c578   Section        0  rtx_thread.o(.text.osThreadFlagsClear)
    __arm_cp.36_0                            0x0800c598   Number         4  rtx_thread.o(.text.osThreadFlagsClear)
    [Anonymous Symbol]                       0x0800c59c   Section        0  rtx_thread.o(.text.osThreadFlagsSet)
    __arm_cp.35_0                            0x0800c5f0   Number         4  rtx_thread.o(.text.osThreadFlagsSet)
    [Anonymous Symbol]                       0x0800c5f4   Section        0  rtx_thread.o(.text.osThreadFlagsWait)
    __arm_cp.38_0                            0x0800c614   Number         4  rtx_thread.o(.text.osThreadFlagsWait)
    [Anonymous Symbol]                       0x0800c618   Section        0  rtx_thread.o(.text.osThreadGetId)
    __arm_cp.19_0                            0x0800c638   Number         4  rtx_thread.o(.text.osThreadGetId)
    __arm_cp.19_1                            0x0800c63c   Number         4  rtx_thread.o(.text.osThreadGetId)
    [Anonymous Symbol]                       0x0800c640   Section        0  rtx_thread.o(.text.osThreadNew)
    __arm_cp.17_0                            0x0800c660   Number         4  rtx_thread.o(.text.osThreadNew)
    [Anonymous Symbol]                       0x0800c664   Section        0  rtx_thread.o(.text.osThreadTerminate)
    __arm_cp.32_0                            0x0800c684   Number         4  rtx_thread.o(.text.osThreadTerminate)
    [Anonymous Symbol]                       0x0800c688   Section        0  rtx_thread.o(.text.osThreadYield)
    __arm_cp.26_0                            0x0800c6a8   Number         4  rtx_thread.o(.text.osThreadYield)
    [Anonymous Symbol]                       0x0800c6ac   Section        0  rtx_timer.o(.text.osTimerDelete)
    __arm_cp.8_0                             0x0800c6cc   Number         4  rtx_timer.o(.text.osTimerDelete)
    [Anonymous Symbol]                       0x0800c6d0   Section        0  rtx_timer.o(.text.osTimerNew)
    __arm_cp.3_0                             0x0800c6f0   Number         4  rtx_timer.o(.text.osTimerNew)
    [Anonymous Symbol]                       0x0800c6f4   Section        0  rtx_timer.o(.text.osTimerStart)
    __arm_cp.5_0                             0x0800c714   Number         4  rtx_timer.o(.text.osTimerStart)
    [Anonymous Symbol]                       0x0800c718   Section        0  rtx_delay.o(.text.svcRtxDelay)
    svcRtxDelay                              0x0800c719   Thumb Code    22  rtx_delay.o(.text.svcRtxDelay)
    [Anonymous Symbol]                       0x0800c730   Section        0  rtx_kernel.o(.text.svcRtxKernelGetState)
    svcRtxKernelGetState                     0x0800c731   Thumb Code     8  rtx_kernel.o(.text.svcRtxKernelGetState)
    __arm_cp.6_0                             0x0800c738   Number         4  rtx_kernel.o(.text.svcRtxKernelGetState)
    [Anonymous Symbol]                       0x0800c73c   Section        0  rtx_kernel.o(.text.svcRtxKernelGetTickCount)
    svcRtxKernelGetTickCount                 0x0800c73d   Thumb Code     8  rtx_kernel.o(.text.svcRtxKernelGetTickCount)
    __arm_cp.14_0                            0x0800c744   Number         4  rtx_kernel.o(.text.svcRtxKernelGetTickCount)
    [Anonymous Symbol]                       0x0800c748   Section        0  rtx_kernel.o(.text.svcRtxKernelGetTickFreq)
    svcRtxKernelGetTickFreq                  0x0800c749   Thumb Code     8  rtx_kernel.o(.text.svcRtxKernelGetTickFreq)
    __arm_cp.16_0                            0x0800c750   Number         4  rtx_kernel.o(.text.svcRtxKernelGetTickFreq)
    [Anonymous Symbol]                       0x0800c754   Section        0  rtx_kernel.o(.text.svcRtxKernelInitialize)
    svcRtxKernelInitialize                   0x0800c755   Thumb Code   244  rtx_kernel.o(.text.svcRtxKernelInitialize)
    __arm_cp.21_0                            0x0800c848   Number         4  rtx_kernel.o(.text.svcRtxKernelInitialize)
    __arm_cp.21_1                            0x0800c84c   Number         4  rtx_kernel.o(.text.svcRtxKernelInitialize)
    __arm_cp.21_2                            0x0800c850   Number         4  rtx_kernel.o(.text.svcRtxKernelInitialize)
    [Anonymous Symbol]                       0x0800c854   Section        0  rtx_kernel.o(.text.svcRtxKernelStart)
    svcRtxKernelStart                        0x0800c855   Thumb Code   120  rtx_kernel.o(.text.svcRtxKernelStart)
    __arm_cp.22_0                            0x0800c8cc   Number         4  rtx_kernel.o(.text.svcRtxKernelStart)
    __arm_cp.22_1                            0x0800c8d0   Number         4  rtx_kernel.o(.text.svcRtxKernelStart)
    __arm_cp.22_2                            0x0800c8d4   Number         4  rtx_kernel.o(.text.svcRtxKernelStart)
    __arm_cp.22_3                            0x0800c8d8   Number         4  rtx_kernel.o(.text.svcRtxKernelStart)
    [Anonymous Symbol]                       0x0800c8dc   Section        0  rtx_msgqueue.o(.text.svcRtxMessageQueueGet)
    svcRtxMessageQueueGet                    0x0800c8dd   Thumb Code   212  rtx_msgqueue.o(.text.svcRtxMessageQueueGet)
    __arm_cp.22_0                            0x0800c9b0   Number         4  rtx_msgqueue.o(.text.svcRtxMessageQueueGet)
    [Anonymous Symbol]                       0x0800c9b4   Section        0  rtx_msgqueue.o(.text.svcRtxMessageQueueNew)
    svcRtxMessageQueueNew                    0x0800c9b5   Thumb Code   272  rtx_msgqueue.o(.text.svcRtxMessageQueueNew)
    __arm_cp.1_0                             0x0800cac4   Number         4  rtx_msgqueue.o(.text.svcRtxMessageQueueNew)
    __arm_cp.1_1                             0x0800cac8   Number         4  rtx_msgqueue.o(.text.svcRtxMessageQueueNew)
    [Anonymous Symbol]                       0x0800cacc   Section        0  rtx_msgqueue.o(.text.svcRtxMessageQueuePut)
    svcRtxMessageQueuePut                    0x0800cacd   Thumb Code   176  rtx_msgqueue.o(.text.svcRtxMessageQueuePut)
    __arm_cp.20_0                            0x0800cb7c   Number         4  rtx_msgqueue.o(.text.svcRtxMessageQueuePut)
    [Anonymous Symbol]                       0x0800cb80   Section        0  rtx_mutex.o(.text.svcRtxMutexAcquire)
    svcRtxMutexAcquire                       0x0800cb81   Thumb Code   140  rtx_mutex.o(.text.svcRtxMutexAcquire)
    __arm_cp.10_0                            0x0800cc0c   Number         4  rtx_mutex.o(.text.svcRtxMutexAcquire)
    [Anonymous Symbol]                       0x0800cc10   Section        0  rtx_mutex.o(.text.svcRtxMutexDelete)
    svcRtxMutexDelete                        0x0800cc11   Thumb Code   172  rtx_mutex.o(.text.svcRtxMutexDelete)
    __arm_cp.13_0                            0x0800ccbc   Number         4  rtx_mutex.o(.text.svcRtxMutexDelete)
    [Anonymous Symbol]                       0x0800ccc0   Section        0  rtx_mutex.o(.text.svcRtxMutexNew)
    svcRtxMutexNew                           0x0800ccc1   Thumb Code   100  rtx_mutex.o(.text.svcRtxMutexNew)
    __arm_cp.8_0                             0x0800cd24   Number         4  rtx_mutex.o(.text.svcRtxMutexNew)
    [Anonymous Symbol]                       0x0800cd28   Section        0  rtx_mutex.o(.text.svcRtxMutexRelease)
    svcRtxMutexRelease                       0x0800cd29   Thumb Code   176  rtx_mutex.o(.text.svcRtxMutexRelease)
    __arm_cp.11_0                            0x0800cdd8   Number         4  rtx_mutex.o(.text.svcRtxMutexRelease)
    [Anonymous Symbol]                       0x0800cddc   Section        0  rtx_semaphore.o(.text.svcRtxSemaphoreAcquire)
    svcRtxSemaphoreAcquire                   0x0800cddd   Thumb Code    84  rtx_semaphore.o(.text.svcRtxSemaphoreAcquire)
    __arm_cp.10_0                            0x0800ce30   Number         4  rtx_semaphore.o(.text.svcRtxSemaphoreAcquire)
    [Anonymous Symbol]                       0x0800ce34   Section        0  rtx_semaphore.o(.text.svcRtxSemaphoreDelete)
    svcRtxSemaphoreDelete                    0x0800ce35   Thumb Code    92  rtx_semaphore.o(.text.svcRtxSemaphoreDelete)
    __arm_cp.13_0                            0x0800ce90   Number         4  rtx_semaphore.o(.text.svcRtxSemaphoreDelete)
    [Anonymous Symbol]                       0x0800ce94   Section        0  rtx_semaphore.o(.text.svcRtxSemaphoreNew)
    svcRtxSemaphoreNew                       0x0800ce95   Thumb Code   116  rtx_semaphore.o(.text.svcRtxSemaphoreNew)
    __arm_cp.7_0                             0x0800cf08   Number         4  rtx_semaphore.o(.text.svcRtxSemaphoreNew)
    __arm_cp.7_1                             0x0800cf0c   Number         4  rtx_semaphore.o(.text.svcRtxSemaphoreNew)
    [Anonymous Symbol]                       0x0800cf10   Section        0  rtx_semaphore.o(.text.svcRtxSemaphoreRelease)
    svcRtxSemaphoreRelease                   0x0800cf11   Thumb Code    56  rtx_semaphore.o(.text.svcRtxSemaphoreRelease)
    [Anonymous Symbol]                       0x0800cf48   Section        0  rtx_thread.o(.text.svcRtxThreadExit)
    svcRtxThreadExit                         0x0800cf49   Thumb Code    72  rtx_thread.o(.text.svcRtxThreadExit)
    __arm_cp.54_0                            0x0800cf90   Number         4  rtx_thread.o(.text.svcRtxThreadExit)
    [Anonymous Symbol]                       0x0800cf94   Section        0  rtx_thread.o(.text.svcRtxThreadFlagsClear)
    svcRtxThreadFlagsClear                   0x0800cf95   Thumb Code    48  rtx_thread.o(.text.svcRtxThreadFlagsClear)
    __arm_cp.61_0                            0x0800cfc4   Number         4  rtx_thread.o(.text.svcRtxThreadFlagsClear)
    [Anonymous Symbol]                       0x0800cfc8   Section        0  rtx_thread.o(.text.svcRtxThreadFlagsSet)
    svcRtxThreadFlagsSet                     0x0800cfc9   Thumb Code   102  rtx_thread.o(.text.svcRtxThreadFlagsSet)
    [Anonymous Symbol]                       0x0800d030   Section        0  rtx_thread.o(.text.svcRtxThreadFlagsWait)
    svcRtxThreadFlagsWait                    0x0800d031   Thumb Code    72  rtx_thread.o(.text.svcRtxThreadFlagsWait)
    __arm_cp.63_0                            0x0800d078   Number         4  rtx_thread.o(.text.svcRtxThreadFlagsWait)
    [Anonymous Symbol]                       0x0800d07c   Section        0  rtx_thread.o(.text.svcRtxThreadGetId)
    svcRtxThreadGetId                        0x0800d07d   Thumb Code     8  rtx_thread.o(.text.svcRtxThreadGetId)
    __arm_cp.20_0                            0x0800d084   Number         4  rtx_thread.o(.text.svcRtxThreadGetId)
    [Anonymous Symbol]                       0x0800d088   Section        0  rtx_thread.o(.text.svcRtxThreadNew)
    svcRtxThreadNew                          0x0800d089   Thumb Code   472  rtx_thread.o(.text.svcRtxThreadNew)
    __arm_cp.16_0                            0x0800d260   Number         4  rtx_thread.o(.text.svcRtxThreadNew)
    __arm_cp.16_1                            0x0800d264   Number         4  rtx_thread.o(.text.svcRtxThreadNew)
    __arm_cp.16_2                            0x0800d268   Number         4  rtx_thread.o(.text.svcRtxThreadNew)
    __arm_cp.16_3                            0x0800d26c   Number         4  rtx_thread.o(.text.svcRtxThreadNew)
    __arm_cp.16_4                            0x0800d270   Number         4  rtx_thread.o(.text.svcRtxThreadNew)
    [Anonymous Symbol]                       0x0800d274   Section        0  rtx_thread.o(.text.svcRtxThreadTerminate)
    svcRtxThreadTerminate                    0x0800d275   Thumb Code   132  rtx_thread.o(.text.svcRtxThreadTerminate)
    __arm_cp.57_0                            0x0800d2f8   Number         4  rtx_thread.o(.text.svcRtxThreadTerminate)
    [Anonymous Symbol]                       0x0800d2fc   Section        0  rtx_thread.o(.text.svcRtxThreadYield)
    svcRtxThreadYield                        0x0800d2fd   Thumb Code    52  rtx_thread.o(.text.svcRtxThreadYield)
    __arm_cp.47_0                            0x0800d330   Number         4  rtx_thread.o(.text.svcRtxThreadYield)
    [Anonymous Symbol]                       0x0800d334   Section        0  rtx_timer.o(.text.svcRtxTimerDelete)
    svcRtxTimerDelete                        0x0800d335   Thumb Code    72  rtx_timer.o(.text.svcRtxTimerDelete)
    __arm_cp.16_0                            0x0800d37c   Number         4  rtx_timer.o(.text.svcRtxTimerDelete)
    [Anonymous Symbol]                       0x0800d380   Section        0  rtx_timer.o(.text.svcRtxTimerNew)
    svcRtxTimerNew                           0x0800d381   Thumb Code   116  rtx_timer.o(.text.svcRtxTimerNew)
    __arm_cp.10_0                            0x0800d3f4   Number         4  rtx_timer.o(.text.svcRtxTimerNew)
    [Anonymous Symbol]                       0x0800d3f8   Section        0  rtx_timer.o(.text.svcRtxTimerStart)
    svcRtxTimerStart                         0x0800d3f9   Thumb Code    68  rtx_timer.o(.text.svcRtxTimerStart)
    __arm_cp.12_0                            0x0800d43c   Number         4  rtx_timer.o(.text.svcRtxTimerStart)
    i.__0sprintf$8                           0x0800d440   Section        0  printf8.o(i.__0sprintf$8)
    i.__aeabi_errno_addr                     0x0800d468   Section        0  errno.o(i.__aeabi_errno_addr)
    i.__scatterload_copy                     0x0800d470   Section       14  handlers.o(i.__scatterload_copy)
    i.__scatterload_null                     0x0800d47e   Section        2  handlers.o(i.__scatterload_null)
    i.__scatterload_zeroinit                 0x0800d480   Section       14  handlers.o(i.__scatterload_zeroinit)
    i._printf_core                           0x0800d490   Section        0  printf8.o(i._printf_core)
    _printf_core                             0x0800d491   Thumb Code   984  printf8.o(i._printf_core)
    i._printf_post_padding                   0x0800d894   Section        0  printf8.o(i._printf_post_padding)
    _printf_post_padding                     0x0800d895   Thumb Code    36  printf8.o(i._printf_post_padding)
    i._printf_pre_padding                    0x0800d8b8   Section        0  printf8.o(i._printf_pre_padding)
    _printf_pre_padding                      0x0800d8b9   Thumb Code    46  printf8.o(i._printf_pre_padding)
    i._sputc                                 0x0800d8e6   Section        0  printf8.o(i._sputc)
    _sputc                                   0x0800d8e7   Thumb Code    10  printf8.o(i._sputc)
    i.add_server_id                          0x0800d8f0   Section        0  net_http_server.o(i.add_server_id)
    add_server_id                            0x0800d8f1   Thumb Code    46  net_http_server.o(i.add_server_id)
    i.arp_cache_alloc                        0x0800d944   Section        0  net_arp.o(i.arp_cache_alloc)
    arp_cache_alloc                          0x0800d945   Thumb Code    92  net_arp.o(i.arp_cache_alloc)
    i.arp_cache_run                          0x0800d9a0   Section        0  net_arp.o(i.arp_cache_run)
    arp_cache_run                            0x0800d9a1   Thumb Code   240  net_arp.o(i.arp_cache_run)
    i.arp_is_cacheable                       0x0800da94   Section        0  net_arp.o(i.arp_is_cacheable)
    arp_is_cacheable                         0x0800da95   Thumb Code    56  net_arp.o(i.arp_is_cacheable)
    i.arp_probe_run                          0x0800dacc   Section        0  net_arp.o(i.arp_probe_run)
    arp_probe_run                            0x0800dacd   Thumb Code    72  net_arp.o(i.arp_probe_run)
    i.arp_proc_response                      0x0800db14   Section        0  net_arp.o(i.arp_proc_response)
    arp_proc_response                        0x0800db15   Thumb Code   182  net_arp.o(i.arp_proc_response)
    i.arp_que_free                           0x0800dbca   Section        0  net_arp.o(i.arp_que_free)
    arp_que_free                             0x0800dbcb   Thumb Code    26  net_arp.o(i.arp_que_free)
    i.arp_send_reply                         0x0800dbe4   Section        0  net_arp.o(i.arp_send_reply)
    arp_send_reply                           0x0800dbe5   Thumb Code   128  net_arp.o(i.arp_send_reply)
    i.arp_send_request                       0x0800dc64   Section        0  net_arp.o(i.arp_send_request)
    arp_send_request                         0x0800dc65   Thumb Code   158  net_arp.o(i.arp_send_request)
    i.arp_sender_valid                       0x0800dd0c   Section        0  net_arp.o(i.arp_sender_valid)
    arp_sender_valid                         0x0800dd0d   Thumb Code    90  net_arp.o(i.arp_sender_valid)
    i.check_client_id                        0x0800dd74   Section        0  net_dhcp6_client.o(i.check_client_id)
    check_client_id                          0x0800dd75   Thumb Code   104  net_dhcp6_client.o(i.check_client_id)
    i.chk_post_req                           0x0800dde0   Section        0  net_http_server.o(i.chk_post_req)
    chk_post_req                             0x0800dde1   Thumb Code   260  net_http_server.o(i.chk_post_req)
    i.crc32_8bit                             0x0800df50   Section        0  net_common.o(i.crc32_8bit)
    crc32_8bit                               0x0800df51   Thumb Code    34  net_common.o(i.crc32_8bit)
    i.dhcp6_client_run                       0x0800df78   Section        0  net_dhcp6_client.o(i.dhcp6_client_run)
    dhcp6_client_run                         0x0800df79   Thumb Code   638  net_dhcp6_client.o(i.dhcp6_client_run)
    i.dhcp6_client_start                     0x0800e200   Section        0  net_dhcp6_client.o(i.dhcp6_client_start)
    dhcp6_client_start                       0x0800e201   Thumb Code    62  net_dhcp6_client.o(i.dhcp6_client_start)
    i.dhcp6_listener                         0x0800e248   Section        0  net_dhcp6_client.o(i.dhcp6_listener)
    dhcp6_listener                           0x0800e249   Thumb Code   806  net_dhcp6_client.o(i.dhcp6_listener)
    i.dhcp6_send_message                     0x0800e578   Section        0  net_dhcp6_client.o(i.dhcp6_send_message)
    dhcp6_send_message                       0x0800e579   Thumb Code   460  net_dhcp6_client.o(i.dhcp6_send_message)
    i.dns_client_start                       0x0800e754   Section        0  net_dns_client.o(i.dns_client_start)
    dns_client_start                         0x0800e755   Thumb Code   446  net_dns_client.o(i.dns_client_start)
    i.dns_client_stop                        0x0800e928   Section        0  net_dns_client.o(i.dns_client_stop)
    dns_client_stop                          0x0800e929   Thumb Code    44  net_dns_client.o(i.dns_client_stop)
    i.dns_get_server                         0x0800e958   Section        0  net_dns_client.o(i.dns_get_server)
    dns_get_server                           0x0800e959   Thumb Code   128  net_dns_client.o(i.dns_get_server)
    i.dns_listener                           0x0800e9dc   Section        0  net_dns_client.o(i.dns_listener)
    dns_listener                             0x0800e9dd   Thumb Code   522  net_dns_client.o(i.dns_listener)
    i.dns_notify                             0x0800ebf0   Section        0  net_dns_client.o(i.dns_notify)
    dns_notify                               0x0800ebf1   Thumb Code    32  net_dns_client.o(i.dns_notify)
    i.dns_send_message                       0x0800ec14   Section        0  net_dns_client.o(i.dns_send_message)
    dns_send_message                         0x0800ec15   Thumb Code    86  net_dns_client.o(i.dns_send_message)
    i.eth_check_link                         0x0800ec70   Section        0  net_eth.o(i.eth_check_link)
    eth_check_link                           0x0800ec71   Thumb Code   154  net_eth.o(i.eth_check_link)
    i.eth_if_map                             0x0800ed0c   Section        0  net_eth.o(i.eth_if_map)
    eth_if_map                               0x0800ed0d   Thumb Code    26  net_eth.o(i.eth_if_map)
    i.eth_iface_init                         0x0800ed2c   Section        0  net_eth.o(i.eth_iface_init)
    eth_iface_init                           0x0800ed2d   Thumb Code   610  net_eth.o(i.eth_iface_init)
    i.eth_iface_run                          0x0800ef94   Section        0  net_eth.o(i.eth_iface_run)
    eth_iface_run                            0x0800ef95   Thumb Code   542  net_eth.o(i.eth_iface_run)
    i.eth_lock                               0x0800f1c0   Section        0  net_eth.o(i.eth_lock)
    eth_lock                                 0x0800f1c1   Thumb Code     8  net_eth.o(i.eth_lock)
    i.eth_mtu_limit                          0x0800f1c8   Section        0  net_eth.o(i.eth_mtu_limit)
    eth_mtu_limit                            0x0800f1c9   Thumb Code    28  net_eth.o(i.eth_mtu_limit)
    i.eth_opt_len                            0x0800f1e4   Section        0  net_eth.o(i.eth_opt_len)
    eth_opt_len                              0x0800f1e5   Thumb Code    72  net_eth.o(i.eth_opt_len)
    i.eth_receive                            0x0800f22c   Section        0  net_eth.o(i.eth_receive)
    eth_receive                              0x0800f22d   Thumb Code   136  net_eth.o(i.eth_receive)
    i.eth_unlock                             0x0800f2b4   Section        0  net_eth.o(i.eth_unlock)
    eth_unlock                               0x0800f2b5   Thumb Code     8  net_eth.o(i.eth_unlock)
    i.frag_map_session                       0x0800f2bc   Section        0  net_ip4_frag.o(i.frag_map_session)
    frag_map_session                         0x0800f2bd   Thumb Code   120  net_ip4_frag.o(i.frag_map_session)
    i.get_next_field                         0x0800f338   Section        0  net_http_server.o(i.get_next_field)
    get_next_field                           0x0800f339   Thumb Code    40  net_http_server.o(i.get_next_field)
    i.get_next_par                           0x0800f360   Section        0  net_http_server.o(i.get_next_par)
    get_next_par                             0x0800f361   Thumb Code    50  net_http_server.o(i.get_next_par)
    i.get_tout                               0x0800f392   Section        0  net_dhcp6_client.o(i.get_tout)
    get_tout                                 0x0800f393   Thumb Code    92  net_dhcp6_client.o(i.get_tout)
    i.hex2byte                               0x0800f3ee   Section        0  net_http_server.o(i.hex2byte)
    hex2byte                                 0x0800f3ef   Thumb Code    34  net_http_server.o(i.hex2byte)
    i.http_add_header                        0x0800f410   Section        0  net_http_server.o(i.http_add_header)
    http_add_header                          0x0800f411   Thumb Code   354  net_http_server.o(i.http_add_header)
    i.http_auth_basic_add                    0x0800f77c   Section        0  net_http_server_auth.o(i.http_auth_basic_add)
    http_auth_basic_add                      0x0800f77d   Thumb Code    38  net_http_server_auth.o(i.http_auth_basic_add)
    i.http_auth_basic_parse                  0x0800f7cc   Section        0  net_http_server_auth.o(i.http_auth_basic_parse)
    http_auth_basic_parse                    0x0800f7cd   Thumb Code   112  net_http_server_auth.o(i.http_auth_basic_parse)
    i.http_auth_dummy                        0x0800f848   Section        0  net_http_server_auth.o(i.http_auth_dummy)
    http_auth_dummy                          0x0800f849   Thumb Code     2  net_http_server_auth.o(i.http_auth_dummy)
    i.http_auth_init                         0x0800f84c   Section        0  net_http_server_auth.o(i.http_auth_init)
    http_auth_init                           0x0800f84d   Thumb Code    28  net_http_server_auth.o(i.http_auth_init)
    i.http_error_msg                         0x0800f870   Section        0  net_http_server.o(i.http_error_msg)
    http_error_msg                           0x0800f871   Thumb Code   256  net_http_server.o(i.http_error_msg)
    i.http_get_ftype                         0x0800fa3c   Section        0  net_http_server.o(i.http_get_ftype)
    http_get_ftype                           0x0800fa3d   Thumb Code   106  net_http_server.o(i.http_get_ftype)
    i.http_kill_session                      0x0800fab4   Section        0  net_http_server.o(i.http_kill_session)
    http_kill_session                        0x0800fab5   Thumb Code    94  net_http_server.o(i.http_kill_session)
    i.http_listener                          0x0800fb14   Section        0  net_http_server.o(i.http_listener)
    http_listener                            0x0800fb15   Thumb Code   494  net_http_server.o(i.http_listener)
    i.http_open_file                         0x0800fd24   Section        0  net_http_server.o(i.http_open_file)
    http_open_file                           0x0800fd25   Thumb Code   246  net_http_server.o(i.http_open_file)
    i.http_parse_header                      0x0800fe3c   Section        0  net_http_server.o(i.http_parse_header)
    http_parse_header                        0x0800fe3d   Thumb Code   196  net_http_server.o(i.http_parse_header)
    i.http_proc_multipart                    0x0800ff44   Section        0  net_http_server.o(i.http_proc_multipart)
    http_proc_multipart                      0x0800ff45   Thumb Code   314  net_http_server.o(i.http_proc_multipart)
    i.http_proc_post                         0x080100a8   Section        0  net_http_server.o(i.http_proc_post)
    http_proc_post                           0x080100a9   Thumb Code   236  net_http_server.o(i.http_proc_post)
    i.http_server_run                        0x0801019c   Section        0  net_http_server.o(i.http_server_run)
    http_server_run                          0x0801019d   Thumb Code   942  net_http_server.o(i.http_server_run)
    i.http_server_start                      0x0801055c   Section        0  net_http_server.o(i.http_server_start)
    http_server_start                        0x0801055d   Thumb Code    72  net_http_server.o(i.http_server_start)
    i.http_strcpy                            0x080105ac   Section        0  net_http_server.o(i.http_strcpy)
    http_strcpy                              0x080105ad   Thumb Code    32  net_http_server.o(i.http_strcpy)
    i.http_to_utc                            0x080105cc   Section        0  net_http_server.o(i.http_to_utc)
    http_to_utc                              0x080105cd   Thumb Code   168  net_http_server.o(i.http_to_utc)
    i.i2str                                  0x08010678   Section        0  net_common.o(i.i2str)
    i2str                                    0x08010679   Thumb Code    26  net_common.o(i.i2str)
    i.ip4_get_chksum                         0x08010692   Section        0  net_ip4.o(i.ip4_get_chksum)
    ip4_get_chksum                           0x08010693   Thumb Code    12  net_ip4.o(i.ip4_get_chksum)
    i.ip4_get_mtu                            0x0801069e   Section        0  net_ip4.o(i.ip4_get_mtu)
    ip4_get_mtu                              0x0801069f   Thumb Code    40  net_ip4.o(i.ip4_get_mtu)
    i.ip4_ntoa                               0x080106c6   Section        0  net_addr.o(i.ip4_ntoa)
    ip4_ntoa                                 0x080106c7   Thumb Code    64  net_addr.o(i.ip4_ntoa)
    i.ip6_ntoa                               0x08010708   Section        0  net_addr.o(i.ip6_ntoa)
    ip6_ntoa                                 0x08010709   Thumb Code   202  net_addr.o(i.ip6_ntoa)
    i.mem_lock                               0x080107d4   Section        0  net_mem.o(i.mem_lock)
    mem_lock                                 0x080107d5   Thumb Code     8  net_mem.o(i.mem_lock)
    i.mem_unlock                             0x080107e0   Section        0  net_mem.o(i.mem_unlock)
    mem_unlock                               0x080107e1   Thumb Code     8  net_mem.o(i.mem_unlock)
    i.nbns_listener                          0x080107ec   Section        0  net_nbns_client.o(i.nbns_listener)
    nbns_listener                            0x080107ed   Thumb Code   284  net_nbns_client.o(i.nbns_listener)
    i.ndp_cache_add                          0x08010914   Section        0  net_ndp.o(i.ndp_cache_add)
    ndp_cache_add                            0x08010915   Thumb Code   146  net_ndp.o(i.ndp_cache_add)
    i.ndp_cache_alloc                        0x080109a6   Section        0  net_ndp.o(i.ndp_cache_alloc)
    ndp_cache_alloc                          0x080109a7   Thumb Code   114  net_ndp.o(i.ndp_cache_alloc)
    i.ndp_cache_run                          0x08010a18   Section        0  net_ndp.o(i.ndp_cache_run)
    ndp_cache_run                            0x08010a19   Thumb Code   212  net_ndp.o(i.ndp_cache_run)
    i.ndp_check_frame                        0x08010af0   Section        0  net_ndp.o(i.ndp_check_frame)
    ndp_check_frame                          0x08010af1   Thumb Code    44  net_ndp.o(i.ndp_check_frame)
    i.ndp_next_opt                           0x08010b1c   Section        0  net_ndp.o(i.ndp_next_opt)
    ndp_next_opt                             0x08010b1d   Thumb Code    18  net_ndp.o(i.ndp_next_opt)
    i.ndp_prefix_add                         0x08010b2e   Section        0  net_ndp.o(i.ndp_prefix_add)
    ndp_prefix_add                           0x08010b2f   Thumb Code   192  net_ndp.o(i.ndp_prefix_add)
    i.ndp_probe_run                          0x08010bee   Section        0  net_ndp.o(i.ndp_probe_run)
    ndp_probe_run                            0x08010bef   Thumb Code    72  net_ndp.o(i.ndp_probe_run)
    i.ndp_proc_response                      0x08010c36   Section        0  net_ndp.o(i.ndp_proc_response)
    ndp_proc_response                        0x08010c37   Thumb Code   174  net_ndp.o(i.ndp_proc_response)
    i.ndp_que_free                           0x08010ce4   Section        0  net_ndp.o(i.ndp_que_free)
    ndp_que_free                             0x08010ce5   Thumb Code    26  net_ndp.o(i.ndp_que_free)
    i.ndp_router_remove                      0x08010d00   Section        0  net_ndp.o(i.ndp_router_remove)
    ndp_router_remove                        0x08010d01   Thumb Code    52  net_ndp.o(i.ndp_router_remove)
    i.ndp_send_reply                         0x08010d38   Section        0  net_ndp.o(i.ndp_send_reply)
    ndp_send_reply                           0x08010d39   Thumb Code   106  net_ndp.o(i.ndp_send_reply)
    i.ndp_send_request                       0x08010da8   Section        0  net_ndp.o(i.ndp_send_request)
    ndp_send_request                         0x08010da9   Thumb Code   128  net_ndp.o(i.ndp_send_request)
    i.ndp_slaac_run                          0x08010e2c   Section        0  net_ndp.o(i.ndp_slaac_run)
    ndp_slaac_run                            0x08010e2d   Thumb Code   330  net_ndp.o(i.ndp_slaac_run)
    i.netCGI_Charset                         0x08010f84   Section        0  net_http_server.o(i.netCGI_Charset)
    i.netCGI_ContentType                     0x08010f88   Section        0  net_http_server.o(i.netCGI_ContentType)
    i.netCGI_CustomHeader                    0x08010f8c   Section        0  net_http_server.o(i.netCGI_CustomHeader)
    i.netCGI_GetEnvVar                       0x08010f90   Section        0  net_http_server.o(i.netCGI_GetEnvVar)
    i.netCGI_Redirect                        0x08010ffc   Section        0  net_http_server.o(i.netCGI_Redirect)
    i.netCGX_ContentType                     0x08011000   Section        0  net_http_server.o(i.netCGX_ContentType)
    i.netCore_Thread                         0x08011004   Section        0  net_sys.o(i.netCore_Thread)
    i.netDHCP6_Notify                        0x08011068   Section        0  net_dhcp6_client.o(i.netDHCP6_Notify)
    i.netETH_Notify                          0x0801106a   Section        0  net_eth.o(i.netETH_Notify)
    i.netETH_ReceiveRaw                      0x0801106c   Section        0  net_eth.o(i.netETH_ReceiveRaw)
    i.netETH_Thread                          0x0801106e   Section        0  net_eth.o(i.netETH_Thread)
    i.netHTTPs_AcceptClient                  0x080110e0   Section        0  net_http_server.o(i.netHTTPs_AcceptClient)
    i.netHTTPs_CheckAccount                  0x080110e4   Section        0  net_http_server_auth.o(i.netHTTPs_CheckAccount)
    i.netHTTPs_FileAccess                    0x080110e8   Section        0  net_http_server.o(i.netHTTPs_FileAccess)
    i.netHTTPs_GetLanguage                   0x080110ec   Section        0  net_http_server.o(i.netHTTPs_GetLanguage)
    i.netHTTPs_GetPassword                   0x0801110c   Section        0  net_http_server.o(i.netHTTPs_GetPassword)
    i.netHTTPs_LoginActive                   0x08011118   Section        0  net_http_server.o(i.netHTTPs_LoginActive)
    i.netHTTPs_SetPassword                   0x08011124   Section        0  net_http_server.o(i.netHTTPs_SetPassword)
    i.netIF_GetOption                        0x08011168   Section        0  net_sys.o(i.netIF_GetOption)
    i.netIF_SetOption                        0x080111e4   Section        0  net_sys.o(i.netIF_SetOption)
    i.netIP_aton                             0x0801125c   Section        0  net_addr.o(i.netIP_aton)
    i.netIP_ntoa                             0x08011276   Section        0  net_addr.o(i.netIP_ntoa)
    i.netInitialize                          0x080112a8   Section        0  net_sys.o(i.netInitialize)
    i.netMAC_aton                            0x0801131c   Section        0  net_addr.o(i.netMAC_aton)
    i.netSNTPc_GetTimeX                      0x080113a8   Section        0  net_sntp_client.o(i.netSNTPc_GetTimeX)
    i.netTCP_GetLocalPort                    0x08011428   Section        0  net_tcp.o(i.netTCP_GetLocalPort)
    i.netTCP_GetPeer                         0x0801142c   Section        0  net_tcp.o(i.netTCP_GetPeer)
    i.netTCP_GetState                        0x0801144c   Section        0  net_tcp.o(i.netTCP_GetState)
    i.netTCP_GetTimer                        0x08011450   Section        0  net_tcp.o(i.netTCP_GetTimer)
    i.net_addr4_aton                         0x08011454   Section        0  net_addr.o(i.net_addr4_aton)
    i.net_addr4_to_mac                       0x080114d0   Section        0  net_addr.o(i.net_addr4_to_mac)
    i.net_addr6_aton                         0x080114f0   Section        0  net_addr.o(i.net_addr6_aton)
    i.net_addr6_comp                         0x080115d6   Section        0  net_addr.o(i.net_addr6_comp)
    i.net_addr6_copy                         0x080115fe   Section        0  net_addr.o(i.net_addr6_copy)
    i.net_addr6_create                       0x08011610   Section        0  net_addr.o(i.net_addr6_create)
    i.net_addr6_get_solicited                0x0801165c   Section        0  net_addr.o(i.net_addr6_get_solicited)
    i.net_addr6_is_linklocal                 0x08011684   Section        0  net_addr.o(i.net_addr6_is_linklocal)
    i.net_addr6_is_onlink                    0x0801169c   Section        0  net_addr.o(i.net_addr6_is_onlink)
    i.net_addr6_is_solicited                 0x0801170a   Section        0  net_addr.o(i.net_addr6_is_solicited)
    i.net_addr6_is_unspec                    0x08011752   Section        0  net_addr.o(i.net_addr6_is_unspec)
    i.net_addr6_to_mac                       0x0801176a   Section        0  net_addr.o(i.net_addr6_to_mac)
    i.net_addr_comp                          0x08011778   Section        0  net_addr.o(i.net_addr_comp)
    i.net_addr_copy                          0x080117a4   Section        0  net_addr.o(i.net_addr_copy)
    i.net_addr_find_route                    0x080117ca   Section        0  net_addr.o(i.net_addr_find_route)
    i.net_addr_get_lhost                     0x080117e4   Section        0  net_addr.o(i.net_addr_get_lhost)
    i.net_addr_get_local                     0x08011808   Section        0  net_addr.o(i.net_addr_get_local)
    i.net_addr_is_unspec                     0x08011828   Section        0  net_addr.o(i.net_addr_is_unspec)
    i.net_arp_cache_add                      0x0801184a   Section        0  net_arp.o(i.net_arp_cache_add)
    i.net_arp_cache_early                    0x080118ea   Section        0  net_arp.o(i.net_arp_cache_early)
    i.net_arp_cache_find                     0x08011970   Section        0  net_arp.o(i.net_arp_cache_find)
    i.net_arp_cache_init                     0x080119f0   Section        0  net_arp.o(i.net_arp_cache_init)
    i.net_arp_cache_run                      0x08011a28   Section        0  net_arp.o(i.net_arp_cache_run)
    i.net_arp_enqueue                        0x08011a44   Section        0  net_arp.o(i.net_arp_enqueue)
    i.net_arp_notify                         0x08011aaa   Section        0  net_arp.o(i.net_arp_notify)
    i.net_arp_process                        0x08011aca   Section        0  net_arp.o(i.net_arp_process)
    i.net_atoi                               0x08011c2c   Section        0  net_common.o(i.net_atoi)
    i.net_base64_decode                      0x08011c70   Section        0  net_base64.o(i.net_base64_decode)
    i.net_chksum_buf                         0x08011ce8   Section        0  net_common.o(i.net_chksum_buf)
    i.net_crc_buf                            0x08011d18   Section        0  net_common.o(i.net_crc_buf)
    i.net_dhcp6_client_init                  0x08011d38   Section        0  net_dhcp6_client.o(i.net_dhcp6_client_init)
    i.net_dhcp6_client_run                   0x08011d9c   Section        0  net_dhcp6_client.o(i.net_dhcp6_client_run)
    i.net_dns_client_init                    0x08011db8   Section        0  net_dns_client.o(i.net_dns_client_init)
    i.net_dns_client_resolve                 0x08011e08   Section        0  net_dns_client.o(i.net_dns_client_resolve)
    i.net_dns_client_run                     0x08011e74   Section        0  net_dns_client.o(i.net_dns_client_run)
    i.net_eth_callback                       0x08011f3c   Section        0  net_eth.o(i.net_eth_callback)
    i.net_eth_config_mcast                   0x08011f4a   Section        0  net_eth.o(i.net_eth_config_mcast)
    i.net_eth_get_option                     0x08011fb2   Section        0  net_eth.o(i.net_eth_get_option)
    i.net_eth_iface_init                     0x08012090   Section        0  net_eth.o(i.net_eth_iface_init)
    i.net_eth_iface_run                      0x080120ac   Section        0  net_eth.o(i.net_eth_iface_run)
    i.net_eth_output                         0x080120c8   Section        0  net_eth.o(i.net_eth_output)
    i.net_eth_send_frame                     0x08012160   Section        0  net_eth.o(i.net_eth_send_frame)
    i.net_eth_set_option                     0x08012280   Section        0  net_eth.o(i.net_eth_set_option)
    i.net_http_server_init                   0x080123f4   Section        0  net_http_server.o(i.net_http_server_init)
    i.net_http_server_run                    0x0801249c   Section        0  net_http_server.o(i.net_http_server_run)
    i.net_icmp6_init                         0x080124c4   Section        0  net_icmp6.o(i.net_icmp6_init)
    i.net_icmp6_process                      0x080124dc   Section        0  net_icmp6.o(i.net_icmp6_process)
    i.net_icmp6_send                         0x08012624   Section        0  net_icmp6.o(i.net_icmp6_send)
    i.net_icmp6_send_echo                    0x08012688   Section        0  net_icmp6.o(i.net_icmp6_send_echo)
    i.net_icmp_init                          0x080126e0   Section        0  net_icmp.o(i.net_icmp_init)
    i.net_icmp_process                       0x080126f8   Section        0  net_icmp.o(i.net_icmp_process)
    i.net_icmp_send_echo                     0x08012800   Section        0  net_icmp.o(i.net_icmp_send_echo)
    i.net_if_map_all                         0x08012880   Section        0  net_sys.o(i.net_if_map_all)
    i.net_ip4_chk_frame                      0x0801288c   Section        0  net_ip4.o(i.net_ip4_chk_frame)
    i.net_ip4_chksum                         0x08012994   Section        0  net_ip4.o(i.net_ip4_chksum)
    i.net_ip4_chksum_buf                     0x080129c0   Section        0  net_ip4.o(i.net_ip4_chksum_buf)
    i.net_ip4_def_localm                     0x080129c8   Section        0  net_ip4.o(i.net_ip4_def_localm)
    i.net_ip4_find_route                     0x080129d8   Section        0  net_ip4.o(i.net_ip4_find_route)
    i.net_ip4_frag_add                       0x08012a58   Section        0  net_ip4_frag.o(i.net_ip4_frag_add)
    i.net_ip4_frag_get                       0x08012b7c   Section        0  net_ip4_frag.o(i.net_ip4_frag_get)
    i.net_ip4_frag_init                      0x08012c28   Section        0  net_ip4_frag.o(i.net_ip4_frag_init)
    i.net_ip4_frag_run                       0x08012c38   Section        0  net_ip4_frag.o(i.net_ip4_frag_run)
    i.net_ip4_get_local                      0x08012c74   Section        0  net_ip4.o(i.net_ip4_get_local)
    i.net_ip4_init                           0x08012ca0   Section        0  net_ip4.o(i.net_ip4_init)
    i.net_ip4_is_onlink                      0x08012cb8   Section        0  net_ip4.o(i.net_ip4_is_onlink)
    i.net_ip4_is_subcast                     0x08012cd8   Section        0  net_ip4.o(i.net_ip4_is_subcast)
    i.net_ip4_reass_frame                    0x08012cfe   Section        0  net_ip4.o(i.net_ip4_reass_frame)
    i.net_ip4_send_frame                     0x08012d0c   Section        0  net_ip4.o(i.net_ip4_send_frame)
    i.net_ip4_tx_offl_hl                     0x08012e30   Section        0  net_ip4.o(i.net_ip4_tx_offl_hl)
    i.net_ip6_chk_frame                      0x08012e5c   Section        0  net_ip6.o(i.net_ip6_chk_frame)
    i.net_ip6_chksum                         0x08012f04   Section        0  net_ip6.o(i.net_ip6_chksum)
    i.net_ip6_collect_mcast                  0x08012f38   Section        0  net_ip6.o(i.net_ip6_collect_mcast)
    i.net_ip6_def_localm                     0x08012fb4   Section        0  net_ip6.o(i.net_ip6_def_localm)
    i.net_ip6_find_route                     0x08012fc4   Section        0  net_ip6.o(i.net_ip6_find_route)
    i.net_ip6_get_local                      0x0801300c   Section        0  net_ip6.o(i.net_ip6_get_local)
    i.net_ip6_init                           0x08013060   Section        0  net_ip6.o(i.net_ip6_init)
    i.net_ip6_send_frame                     0x08013074   Section        0  net_ip6.o(i.net_ip6_send_frame)
    i.net_ip6_tx_offl_hl                     0x080130f4   Section        0  net_ip6.o(i.net_ip6_tx_offl_hl)
    i.net_itoa                               0x08013112   Section        0  net_common.o(i.net_itoa)
    i.net_itoa_n0                            0x0801311a   Section        0  net_common.o(i.net_itoa_n0)
    i.net_loop_iface_init                    0x08013120   Section        0  net_loopback.o(i.net_loop_iface_init)
    i.net_loop_iface_run                     0x08013144   Section        0  net_loopback.o(i.net_loop_iface_run)
    i.net_loop_send_frame                    0x080131f0   Section        0  net_loopback.o(i.net_loop_send_frame)
    i.net_mem_alloc                          0x08013248   Section        0  net_mem.o(i.net_mem_alloc)
    i.net_mem_avail                          0x080132d4   Section        0  net_mem.o(i.net_mem_avail)
    i.net_mem_free                           0x080132f0   Section        0  net_mem.o(i.net_mem_free)
    i.net_mem_init                           0x0801336c   Section        0  net_mem.o(i.net_mem_init)
    i.net_mem_shrink                         0x080133c8   Section        0  net_mem.o(i.net_mem_shrink)
    i.net_nbns_client_init                   0x08013400   Section        0  net_nbns_client.o(i.net_nbns_client_init)
    i.net_ndp_cache_find                     0x08013430   Section        0  net_ndp.o(i.net_ndp_cache_find)
    i.net_ndp_cache_init                     0x08013518   Section        0  net_ndp.o(i.net_ndp_cache_init)
    i.net_ndp_cache_refresh                  0x08013564   Section        0  net_ndp.o(i.net_ndp_cache_refresh)
    i.net_ndp_cache_run                      0x080135b0   Section        0  net_ndp.o(i.net_ndp_cache_run)
    i.net_ndp_enqueue                        0x080135cc   Section        0  net_ndp.o(i.net_ndp_enqueue)
    i.net_ndp_process                        0x0801362c   Section        0  net_ndp.o(i.net_ndp_process)
    i.net_path                               0x0801388c   Section        0  net_sys.o(i.net_path)
    i.net_ping_client_init                   0x080138c4   Section        0  net_ping_core.o(i.net_ping_client_init)
    i.net_ping_client_run                    0x080138d4   Section        0  net_ping_core.o(i.net_ping_client_run)
    i.net_rand32                             0x08013914   Section        0  net_sys.o(i.net_rand32)
    i.net_sntp_client_init                   0x08013930   Section        0  net_sntp_client_core.o(i.net_sntp_client_init)
    i.net_sntp_client_run                    0x08013974   Section        0  net_sntp_client_core.o(i.net_sntp_client_run)
    i.net_sntp_client_start                  0x080139bc   Section        0  net_sntp_client_core.o(i.net_sntp_client_start)
    i.net_strcasecmp                         0x08013aa8   Section        0  net_common.o(i.net_strcasecmp)
    i.net_strchr                             0x08013ad6   Section        0  net_common.o(i.net_strchr)
    i.net_strcmp                             0x08013aec   Section        0  net_common.o(i.net_strcmp)
    i.net_strcpy                             0x08013b06   Section        0  net_common.o(i.net_strcpy)
    i.net_strcrc                             0x08013b18   Section        0  net_common.o(i.net_strcrc)
    i.net_strnchr                            0x08013b32   Section        0  net_common.o(i.net_strnchr)
    i.net_strncpy                            0x08013b4e   Section        0  net_common.o(i.net_strncpy)
    i.net_strtoupper                         0x08013b68   Section        0  net_common.o(i.net_strtoupper)
    i.net_sys_lock                           0x08013b88   Section        0  net_sys.o(i.net_sys_lock)
    i.net_sys_resume                         0x08013b94   Section        0  net_sys.o(i.net_sys_resume)
    i.net_sys_suspend                        0x08013bac   Section        0  net_sys.o(i.net_sys_suspend)
    i.net_sys_tick                           0x08013bd8   Section        0  net_sys.o(i.net_sys_tick)
    i.net_sys_unlock                         0x08013bec   Section        0  net_sys.o(i.net_sys_unlock)
    i.net_sys_wakeup                         0x08013bf8   Section        0  net_sys.o(i.net_sys_wakeup)
    i.net_tcp_abort                          0x08013c18   Section        0  net_tcp.o(i.net_tcp_abort)
    i.net_tcp_close                          0x08013c74   Section        0  net_tcp.o(i.net_tcp_close)
    i.net_tcp_get_buf                        0x08013d20   Section        0  net_tcp.o(i.net_tcp_get_buf)
    i.net_tcp_get_local_port                 0x08013d40   Section        0  net_tcp.o(i.net_tcp_get_local_port)
    i.net_tcp_get_mss                        0x08013d74   Section        0  net_tcp.o(i.net_tcp_get_mss)
    i.net_tcp_get_peer                       0x08013d9c   Section        0  net_tcp.o(i.net_tcp_get_peer)
    i.net_tcp_get_socket                     0x08013df0   Section        0  net_tcp.o(i.net_tcp_get_socket)
    i.net_tcp_get_state                      0x08013e34   Section        0  net_tcp.o(i.net_tcp_get_state)
    i.net_tcp_get_timer                      0x08013e60   Section        0  net_tcp.o(i.net_tcp_get_timer)
    i.net_tcp_listen                         0x08013e94   Section        0  net_tcp.o(i.net_tcp_listen)
    i.net_tcp_process                        0x08013f10   Section        0  net_tcp.o(i.net_tcp_process)
    i.net_tcp_send                           0x08014430   Section        0  net_tcp.o(i.net_tcp_send)
    i.net_tcp_set_option                     0x08014518   Section        0  net_tcp.o(i.net_tcp_set_option)
    i.net_tcp_socket_init                    0x080145bc   Section        0  net_tcp.o(i.net_tcp_socket_init)
    i.net_tcp_socket_run                     0x080145d0   Section        0  net_tcp.o(i.net_tcp_socket_run)
    i.net_udp_close                          0x080148d8   Section        0  net_udp.o(i.net_udp_close)
    i.net_udp_get_buf                        0x08014900   Section        0  net_udp.o(i.net_udp_get_buf)
    i.net_udp_get_socket                     0x08014920   Section        0  net_udp.o(i.net_udp_get_socket)
    i.net_udp_open                           0x08014968   Section        0  net_udp.o(i.net_udp_open)
    i.net_udp_process                        0x080149d4   Section        0  net_udp.o(i.net_udp_process)
    i.net_udp_send                           0x08014ae4   Section        0  net_udp.o(i.net_udp_send)
    i.net_udp_send_if                        0x08014af8   Section        0  net_udp.o(i.net_udp_send_if)
    i.net_udp_socket_init                    0x08014cb0   Section        0  net_udp.o(i.net_udp_socket_init)
    i.net_ultoa                              0x08014cc0   Section        0  net_common.o(i.net_ultoa)
    i.net_ultox                              0x08014cc8   Section        0  net_common.o(i.net_ultox)
    i.net_xtoul                              0x08014cf8   Section        0  net_common.o(i.net_xtoul)
    i.ping_send_req                          0x08014d44   Section        0  net_ping_core.o(i.ping_send_req)
    ping_send_req                            0x08014d45   Thumb Code    24  net_ping_core.o(i.ping_send_req)
    i.proc_opt_ia_na                         0x08014d60   Section        0  net_dhcp6_client.o(i.proc_opt_ia_na)
    proc_opt_ia_na                           0x08014d61   Thumb Code   192  net_dhcp6_client.o(i.proc_opt_ia_na)
    i.proc_req_line                          0x08014e24   Section        0  net_http_server.o(i.proc_req_line)
    proc_req_line                            0x08014e25   Thumb Code    84  net_http_server.o(i.proc_req_line)
    i.que_free_list                          0x08014e7c   Section        0  net_ip4_frag.o(i.que_free_list)
    que_free_list                            0x08014e7d   Thumb Code    26  net_ip4_frag.o(i.que_free_list)
    i.read_script_line                       0x08014e96   Section        0  net_http_server.o(i.read_script_line)
    read_script_line                         0x08014e97   Thumb Code   160  net_http_server.o(i.read_script_line)
    i.search_delim                           0x08014f36   Section        0  net_http_server.o(i.search_delim)
    search_delim                             0x08014f37   Thumb Code    72  net_http_server.o(i.search_delim)
    i.select_server                          0x08014f7e   Section        0  net_dhcp6_client.o(i.select_server)
    select_server                            0x08014f7f   Thumb Code   112  net_dhcp6_client.o(i.select_server)
    i.sntp_listener                          0x08014ff0   Section        0  net_sntp_client_core.o(i.sntp_listener)
    sntp_listener                            0x08014ff1   Thumb Code   136  net_sntp_client_core.o(i.sntp_listener)
    i.sntp_notify                            0x08015080   Section        0  net_sntp_client.o(i.sntp_notify)
    sntp_notify                              0x08015081   Thumb Code    14  net_sntp_client.o(i.sntp_notify)
    i.sntp_send_message                      0x08015094   Section        0  net_sntp_client_core.o(i.sntp_send_message)
    sntp_send_message                        0x08015095   Thumb Code    40  net_sntp_client_core.o(i.sntp_send_message)
    i.sntp_stop                              0x080150c0   Section        0  net_sntp_client_core.o(i.sntp_stop)
    sntp_stop                                0x080150c1   Thumb Code    20  net_sntp_client_core.o(i.sntp_stop)
    i.sys_map_if                             0x080150d8   Section        0  net_sys.o(i.sys_map_if)
    sys_map_if                               0x080150d9   Thumb Code    24  net_sys.o(i.sys_map_if)
    i.sys_proc_tick                          0x080150f0   Section        0  net_sys.o(i.sys_proc_tick)
    sys_proc_tick                            0x080150f1   Thumb Code    72  net_sys.o(i.sys_proc_tick)
    i.tcp_map_socket                         0x0801513c   Section        0  net_tcp.o(i.tcp_map_socket)
    tcp_map_socket                           0x0801513d   Thumb Code   230  net_tcp.o(i.tcp_map_socket)
    i.tcp_parse_opt                          0x0801522c   Section        0  net_tcp.o(i.tcp_parse_opt)
    tcp_parse_opt                            0x0801522d   Thumb Code    94  net_tcp.o(i.tcp_parse_opt)
    i.tcp_proc_acknr                         0x0801528c   Section        0  net_tcp.o(i.tcp_proc_acknr)
    tcp_proc_acknr                           0x0801528d   Thumb Code   208  net_tcp.o(i.tcp_proc_acknr)
    i.tcp_proc_dupack                        0x08015360   Section        0  net_tcp.o(i.tcp_proc_dupack)
    tcp_proc_dupack                          0x08015361   Thumb Code    96  net_tcp.o(i.tcp_proc_dupack)
    i.tcp_que_free                           0x080153c0   Section        0  net_tcp.o(i.tcp_que_free)
    tcp_que_free                             0x080153c1   Thumb Code    26  net_tcp.o(i.tcp_que_free)
    i.tcp_que_init                           0x080153da   Section        0  net_tcp.o(i.tcp_que_init)
    tcp_que_init                             0x080153db   Thumb Code    26  net_tcp.o(i.tcp_que_init)
    i.tcp_que_resend                         0x080153f4   Section        0  net_tcp.o(i.tcp_que_resend)
    tcp_que_resend                           0x080153f5   Thumb Code   146  net_tcp.o(i.tcp_que_resend)
    i.tcp_send_ctrl                          0x0801548c   Section        0  net_tcp.o(i.tcp_send_ctrl)
    tcp_send_ctrl                            0x0801548d   Thumb Code   126  net_tcp.o(i.tcp_send_ctrl)
    i.tcp_send_data                          0x0801550a   Section        0  net_tcp.o(i.tcp_send_data)
    tcp_send_data                            0x0801550b   Thumb Code    98  net_tcp.o(i.tcp_send_data)
    i.tcp_send_reset                         0x0801556c   Section        0  net_tcp.o(i.tcp_send_reset)
    tcp_send_reset                           0x0801556d   Thumb Code   128  net_tcp.o(i.tcp_send_reset)
    i.tcp_set_cwnd                           0x080155ec   Section        0  net_tcp.o(i.tcp_set_cwnd)
    tcp_set_cwnd                             0x080155ed   Thumb Code    44  net_tcp.o(i.tcp_set_cwnd)
    i.tcp_transit                            0x08015618   Section        0  net_tcp.o(i.tcp_transit)
    tcp_transit                              0x08015619   Thumb Code   110  net_tcp.o(i.tcp_transit)
    i.tcp_write                              0x0801568c   Section        0  net_tcp.o(i.tcp_write)
    tcp_write                                0x0801568d   Thumb Code   248  net_tcp.o(i.tcp_write)
    i.udp_port_in_use                        0x08015788   Section        0  net_udp.o(i.udp_port_in_use)
    udp_port_in_use                          0x08015789   Thumb Code    40  net_udp.o(i.udp_port_in_use)
    i.ul2str                                 0x080157b4   Section        0  net_common.o(i.ul2str)
    ul2str                                   0x080157b5   Thumb Code    68  net_common.o(i.ul2str)
    i.utc_to_http                            0x080157f8   Section        0  net_http_server.o(i.utc_to_http)
    utc_to_http                              0x080157f9   Thumb Code   280  net_http_server.o(i.utc_to_http)
    .constdata                               0x0801591c   Section       36  http_server.o(.constdata)
    .constdata                               0x08015940   Section        4  web.o(.constdata)
    .constdata                               0x08015944   Section    27167  web.o(.constdata)
    imageFileData                            0x08015944   Data       27167  web.o(.constdata)
    .constdata                               0x0801c364   Section      176  web.o(.constdata)
    imageFileTable                           0x0801c364   Data         176  web.o(.constdata)
    .constdata                               0x0801c414   Section     2400  lcd.o(.constdata)
    .constdata                               0x0801cd74   Section       64  led_mcbstm32f400.o(.constdata)
    LED_PIN                                  0x0801cd74   Data          64  led_mcbstm32f400.o(.constdata)
    .constdata                               0x0801cdb4   Section       36  rtx_lib.o(.constdata)
    os_idle_thread_attr                      0x0801cdb4   Data          36  rtx_lib.o(.constdata)
    .constdata                               0x0801cdd8   Section       36  rtx_lib.o(.constdata)
    os_timer_thread_attr                     0x0801cdd8   Data          36  rtx_lib.o(.constdata)
    .constdata                               0x0801cdfc   Section       24  rtx_lib.o(.constdata)
    os_timer_mq_attr                         0x0801cdfc   Data          24  rtx_lib.o(.constdata)
    .constdata                               0x0801ce14   Section        4  rtx_lib.o(.constdata)
    .constdata                               0x0801ce18   Section        4  phy_lan8742a.o(.constdata)
    DriverVersion                            0x0801ce18   Data           4  phy_lan8742a.o(.constdata)
    .constdata                               0x0801ce1c   Section       32  phy_lan8742a.o(.constdata)
    .constdata                               0x0801ce3c   Section       80  emac_stm32f4xx.o(.constdata)
    DriverVersion                            0x0801ce3c   Data           4  emac_stm32f4xx.o(.constdata)
    DriverCapabilities                       0x0801ce40   Data           4  emac_stm32f4xx.o(.constdata)
    eth_pins                                 0x0801ce44   Data          72  emac_stm32f4xx.o(.constdata)
    .constdata                               0x0801ce8c   Section       68  emac_stm32f4xx.o(.constdata)
    .constdata                               0x0801ced0   Section       52  spi_stm32f4xx.o(.constdata)
    DriverVersion                            0x0801ced0   Data           4  spi_stm32f4xx.o(.constdata)
    DriverCapabilities                       0x0801ced4   Data           4  spi_stm32f4xx.o(.constdata)
    SPI3_Resources                           0x0801ced8   Data          44  spi_stm32f4xx.o(.constdata)
    .constdata                               0x0801cf04   Section       16  spi_stm32f4xx.o(.constdata)
    SPI3_mosi                                0x0801cf04   Data          16  spi_stm32f4xx.o(.constdata)
    .constdata                               0x0801cf14   Section       16  spi_stm32f4xx.o(.constdata)
    SPI3_sck                                 0x0801cf14   Data          16  spi_stm32f4xx.o(.constdata)
    .constdata                               0x0801cf24   Section       44  spi_stm32f4xx.o(.constdata)
    .constdata                               0x0801cf50   Section        8  stm32f4xx_hal_dma.o(.constdata)
    flagBitshiftOffset                       0x0801cf50   Data           8  stm32f4xx_hal_dma.o(.constdata)
    .constdata                               0x0801cf58   Section       16  system_stm32f4xx.o(.constdata)
    .constdata                               0x0801cf68   Section        8  system_stm32f4xx.o(.constdata)
    .constdata                               0x0801cf70   Section      168  net_config.o(.constdata)
    net_lock_attr                            0x0801cf70   Data          16  net_config.o(.constdata)
    mem_lock_attr                            0x0801cf80   Data          16  net_config.o(.constdata)
    net_timer_attr                           0x0801cf90   Data          16  net_config.o(.constdata)
    net_thread_attr                          0x0801cfa0   Data          36  net_config.o(.constdata)
    eth0_lock_attr                           0x0801cfc4   Data          16  net_config.o(.constdata)
    eth0_thread_attr                         0x0801cfd4   Data          36  net_config.o(.constdata)
    eth0_ll_config                           0x0801cff8   Data          32  net_config.o(.constdata)
    .constdata                               0x0801d018   Section       28  net_config.o(.constdata)
    .constdata                               0x0801d034   Section       20  net_config.o(.constdata)
    eth0_arp_config                          0x0801d034   Data          20  net_config.o(.constdata)
    .constdata                               0x0801d048   Section       12  net_config.o(.constdata)
    eth0_icmp_config                         0x0801d048   Data          12  net_config.o(.constdata)
    .constdata                               0x0801d054   Section       40  net_config.o(.constdata)
    eth0_ip4_config                          0x0801d054   Data          40  net_config.o(.constdata)
    .constdata                               0x0801d07c   Section       16  net_config.o(.constdata)
    eth0_ndp_config                          0x0801d07c   Data          16  net_config.o(.constdata)
    .constdata                               0x0801d08c   Section       12  net_config.o(.constdata)
    eth0_icmp6_config                        0x0801d08c   Data          12  net_config.o(.constdata)
    .constdata                               0x0801d098   Section       20  net_config.o(.constdata)
    eth0_dhcp6_config                        0x0801d098   Data          20  net_config.o(.constdata)
    .constdata                               0x0801d0ac   Section       32  net_config.o(.constdata)
    eth0_ip6_config                          0x0801d0ac   Data          32  net_config.o(.constdata)
    .constdata                               0x0801d0cc   Section       44  net_config.o(.constdata)
    .constdata                               0x0801d0f8   Section        8  net_config.o(.constdata)
    .constdata                               0x0801d100   Section        8  net_config.o(.constdata)
    .constdata                               0x0801d108   Section        8  net_config.o(.constdata)
    .constdata                               0x0801d110   Section        8  net_config.o(.constdata)
    .constdata                               0x0801d118   Section        8  net_config.o(.constdata)
    .constdata                               0x0801d120   Section        8  net_config.o(.constdata)
    .constdata                               0x0801d128   Section        8  net_config.o(.constdata)
    .constdata                               0x0801d130   Section        8  net_config.o(.constdata)
    .constdata                               0x0801d138   Section        8  net_config.o(.constdata)
    .constdata                               0x0801d140   Section        8  net_config.o(.constdata)
    .constdata                               0x0801d148   Section       12  net_config.o(.constdata)
    .constdata                               0x0801d154   Section       24  net_config.o(.constdata)
    .constdata                               0x0801d16c   Section       52  net_config.o(.constdata)
    .constdata                               0x0801d1a0   Section        8  net_config.o(.constdata)
    .constdata                               0x0801d1a8   Section        8  net_config.o(.constdata)
    .constdata                               0x0801d1b0   Section       56  net_config.o(.constdata)
    sys_fn_init                              0x0801d1b0   Data          56  net_config.o(.constdata)
    .constdata                               0x0801d1e8   Section       48  net_config.o(.constdata)
    sys_fn_run                               0x0801d1e8   Data          48  net_config.o(.constdata)
    .constdata                               0x0801d218   Section       16  net_config.o(.constdata)
    .constdata                               0x0801d228   Section       16  net_config.o(.constdata)
    .constdata                               0x0801d238   Section       44  net_loopback.o(.constdata)
    .constdata                               0x0801d264   Section       12  net_loopback.o(.constdata)
    loop_ll_config                           0x0801d264   Data          12  net_loopback.o(.constdata)
    .constdata                               0x0801d270   Section       16  net_dhcp6_client.o(.constdata)
    net_addr6_all_dhcp_agents                0x0801d270   Data          16  net_dhcp6_client.o(.constdata)
    .constdata                               0x0801d280   Section        8  net_nbns_client.o(.constdata)
    nbns_ttllen                              0x0801d280   Data           8  net_nbns_client.o(.constdata)
    .constdata                               0x0801d288   Section      250  net_http_server.o(.constdata)
    DYear                                    0x0801d288   Data           6  net_http_server.o(.constdata)
    Month                                    0x0801d28e   Data          48  net_http_server.o(.constdata)
    WkDay                                    0x0801d2be   Data          28  net_http_server.o(.constdata)
    DMonth                                   0x0801d2da   Data          24  net_http_server.o(.constdata)
    ftype                                    0x0801d2f2   Data         144  net_http_server.o(.constdata)
    .constdata                               0x0801d384   Section       24  net_http_server_auth.o(.constdata)
    .constdata                               0x0801d39c   Section       18  net_ping_core.o(.constdata)
    .constdata                               0x0801d3ae   Section       16  net_addr.o(.constdata)
    .constdata                               0x0801d3be   Section        6  net_addr.o(.constdata)
    .constdata                               0x0801d3c4   Section        4  net_ip4.o(.constdata)
    .constdata                               0x0801d3c8   Section       32  net_ip6.o(.constdata)
    .constdata                               0x0801d3e8   Section       16  net_ip6.o(.constdata)
    .constdata                               0x0801d3f8   Section       24  net_http_server_err.o(.constdata)
    .constdata                               0x0801d410   Section       16  net_common.o(.constdata)
    hex_digit                                0x0801d410   Data          16  net_common.o(.constdata)
    .constdata                               0x0801d420   Section      144  net_base64.o(.constdata)
    enc_map                                  0x0801d420   Data          64  net_base64.o(.constdata)
    dec_map                                  0x0801d460   Data          80  net_base64.o(.constdata)
    .constdata                               0x0801d4b0   Section        4  net_version.o(.constdata)
    .constdata                               0x0801d4b4   Section       12  localtime.o(.constdata)
    monlen                                   0x0801d4b4   Data          12  localtime.o(.constdata)
    .constdata                               0x0801d4c0   Section       86  strftime.o(.constdata)
    .constdata                               0x0801d516   Section      129  ctype_o.o(.constdata)
    .constdata                               0x0801d598   Section        4  ctype_o.o(.constdata)
    table                                    0x0801d598   Data           4  ctype_o.o(.constdata)
    .conststring                             0x0801d59c   Section      218  http_server_cgi.o(.conststring)
    .conststring                             0x0801d678   Section      120  net_config.o(.conststring)
    .conststring                             0x0801d6f0   Section       13  net_config.o(.conststring)
    .conststring                             0x0801d700   Section       60  net_config.o(.conststring)
    .conststring                             0x0801d73c   Section       61  net_config.o(.conststring)
    .conststring                             0x0801d77c   Section       29  net_config.o(.conststring)
    .conststring                             0x0801d79c   Section       15  net_config.o(.conststring)
    .conststring                             0x0801d7ac   Section      515  net_http_server_err.o(.conststring)
    .rodata                                  0x0801d9b0   Section      168  rtx_lib.o(.rodata)
    __tagsym$$used                           0x0801d9b0   Number         0  rtx_lib.o(.rodata)
    __tagsym$$used                           0x0801da20   Number         0  rtx_lib.o(.rodata)
    [Anonymous Symbol]                       0x0801da58   Section        0  rtx_kernel.o(.rodata.str1.4)
    .bss.os                                  0x20000000   Section    32768  rtx_lib.o(.bss.os)
    os_mem                                   0x20000000   Data       32768  rtx_lib.o(.bss.os)
    .bss.os                                  0x20008000   Section       64  rtx_lib.o(.bss.os)
    os_isr_queue                             0x20008000   Data          64  rtx_lib.o(.bss.os)
    .bss.os.msgqueue.cb                      0x20008040   Section       52  rtx_lib.o(.bss.os.msgqueue.cb)
    os_timer_mq_cb                           0x20008040   Data          52  rtx_lib.o(.bss.os.msgqueue.cb)
    .bss.os.msgqueue.mem                     0x20008074   Section       80  rtx_lib.o(.bss.os.msgqueue.mem)
    os_timer_mq_data                         0x20008074   Data          80  rtx_lib.o(.bss.os.msgqueue.mem)
    .bss.os.mutex.cb                         0x200080c4   Section       28  net_config.o(.bss.os.mutex.cb)
    net_lock_cb                              0x200080c4   Data          28  net_config.o(.bss.os.mutex.cb)
    .bss.os.mutex.cb                         0x200080e0   Section       28  net_config.o(.bss.os.mutex.cb)
    mem_lock_cb                              0x200080e0   Data          28  net_config.o(.bss.os.mutex.cb)
    .bss.os.semaphore.cb                     0x200080fc   Section       16  net_config.o(.bss.os.semaphore.cb)
    eth0_lock_cb                             0x200080fc   Data          16  net_config.o(.bss.os.semaphore.cb)
    .bss.os.thread.cb                        0x2000810c   Section       68  rtx_lib.o(.bss.os.thread.cb)
    os_idle_thread_cb                        0x2000810c   Data          68  rtx_lib.o(.bss.os.thread.cb)
    .bss.os.thread.cb                        0x20008150   Section       68  rtx_lib.o(.bss.os.thread.cb)
    os_timer_thread_cb                       0x20008150   Data          68  rtx_lib.o(.bss.os.thread.cb)
    .bss.os.thread.cb                        0x20008194   Section       68  net_config.o(.bss.os.thread.cb)
    net_thread_cb                            0x20008194   Data          68  net_config.o(.bss.os.thread.cb)
    .bss.os.thread.cb                        0x200081d8   Section       68  net_config.o(.bss.os.thread.cb)
    eth0_thread_cb                           0x200081d8   Data          68  net_config.o(.bss.os.thread.cb)
    .bss.os.thread.idle.stack                0x20008220   Section      512  rtx_lib.o(.bss.os.thread.idle.stack)
    os_idle_thread_stack                     0x20008220   Data         512  rtx_lib.o(.bss.os.thread.idle.stack)
    .bss.os.thread.timer.stack               0x20008420   Section      512  rtx_lib.o(.bss.os.thread.timer.stack)
    os_timer_thread_stack                    0x20008420   Data         512  rtx_lib.o(.bss.os.thread.timer.stack)
    .bss.os.timer.cb                         0x20008620   Section       32  net_config.o(.bss.os.timer.cb)
    net_timer_cb                             0x20008620   Data          32  net_config.o(.bss.os.timer.cb)
    .data                                    0x20008640   Section        4  main.o(.data)
    ticks                                    0x20008640   Data           4  main.o(.data)
    .data                                    0x20008648   Section       72  http_server.o(.data)
    execseg                                  0x2000864c   Data           4  http_server.o(.data)
    .data                                    0x20008690   Section        1  http_server.o(.data)
    .data                                    0x20008694   Section        8  http_server_cgi.o(.data)
    P2                                       0x20008694   Data           1  http_server_cgi.o(.data)
    adv                                      0x20008698   Data           4  http_server_cgi.o(.data)
    .data                                    0x2000869c   Section        8  lcd.o(.data)
    .data                                    0x200086a4   Section        8  adc.o(.data)
    tid_ThAdc                                0x200086a8   Data           4  adc.o(.data)
    .data                                    0x200086ac   Section        4  rtc.o(.data)
    .data                                    0x200086b0   Section       12  stm32f4xx_hal.o(.data)
    .data                                    0x200086bc   Section        4  system_stm32f4xx.o(.data)
    .data                                    0x200086c0   Section        4  net_config.o(.data)
    k_mul                                    0x200086c0   Data           4  net_config.o(.data)
    .data                                    0x200086c4   Section        6  net_config.o(.data)
    eth0_mac_addr                            0x200086c4   Data           6  net_config.o(.data)
    .data                                    0x200086ca   Section        4  net_config.o(.data)
    eth0_state                               0x200086ca   Data           4  net_config.o(.data)
    .data                                    0x200086d0   Section        4  net_loopback.o(.data)
    loop_control                             0x200086d0   Data           4  net_loopback.o(.data)
    .data                                    0x200086d4   Section        4  net_ip4_frag.o(.data)
    dfrag                                    0x200086d4   Data           4  net_ip4_frag.o(.data)
    .data                                    0x200086d8   Section        1  net_icmp.o(.data)
    .data                                    0x200086d9   Section        1  net_icmp6.o(.data)
    .data                                    0x200086da   Section        2  net_udp.o(.data)
    port                                     0x200086da   Data           2  net_udp.o(.data)
    .data                                    0x200086dc   Section        4  net_tcp.o(.data)
    socket                                   0x200086dc   Data           1  net_tcp.o(.data)
    port                                     0x200086de   Data           2  net_tcp.o(.data)
    .data                                    0x200086e0   Section        2  net_dhcp6_client.o(.data)
    dhcp6_socket                             0x200086e0   Data           1  net_dhcp6_client.o(.data)
    num_active                               0x200086e1   Data           1  net_dhcp6_client.o(.data)
    .data                                    0x200086e2   Section        1  net_nbns_client.o(.data)
    nbns_socket                              0x200086e2   Data           1  net_nbns_client.o(.data)
    .data                                    0x200086e4   Section       12  net_http_server.o(.data)
    session                                  0x200086e4   Data           1  net_http_server.o(.data)
    cgi                                      0x200086e8   Data           8  net_http_server.o(.data)
    .data                                    0x200086f0   Section        8  net_ip4.o(.data)
    ip4_control                              0x200086f0   Data           8  net_ip4.o(.data)
    .data                                    0x200086f8   Section        4  net_ip6.o(.data)
    ip6_control                              0x200086f8   Data           4  net_ip6.o(.data)
    .data                                    0x200086fc   Section        4  errno.o(.data)
    _errno                                   0x200086fc   Data           4  errno.o(.data)
    .bss                                     0x200087a4   Section      160  http_server.o(.bss)
    GPIO_InitStruct                          0x200087cc   Data          20  http_server.o(.bss)
    GPIO_InitStruct                          0x20008830   Data          20  http_server.o(.bss)
    .bss                                     0x20008848   Section     8192  http_server.o(.bss)
    .bss                                     0x2000a848   Section       56  http_server_cgi.o(.bss)
    ip_addr                                  0x2000a848   Data          16  http_server_cgi.o(.bss)
    ip_string                                0x2000a858   Data          40  http_server_cgi.o(.bss)
    .bss                                     0x2000a880   Section       20  led.o(.bss)
    GPIO_InitStruct                          0x2000a880   Data          20  led.o(.bss)
    .bss                                     0x2000a894   Section      596  lcd.o(.bss)
    htim7                                    0x2000a894   Data          64  lcd.o(.bss)
    GPIO_InitStruct                          0x2000a8d4   Data          20  lcd.o(.bss)
    buffer                                   0x2000a8e8   Data         512  lcd.o(.bss)
    .bss                                     0x2000aae8   Section       92  rtc.o(.bss)
    .bss                                     0x2000ab44   Section       12  phy_lan8742a.o(.bss)
    PHY                                      0x2000ab44   Data          12  phy_lan8742a.o(.bss)
    .bss                                     0x2000ab50   Section     9420  emac_stm32f4xx.o(.bss)
    Emac                                     0x2000ab50   Data          12  emac_stm32f4xx.o(.bss)
    rx_desc                                  0x2000ab5c   Data         128  emac_stm32f4xx.o(.bss)
    tx_desc                                  0x2000abdc   Data          64  emac_stm32f4xx.o(.bss)
    rx_buf                                   0x2000ac1c   Data        6144  emac_stm32f4xx.o(.bss)
    tx_buf                                   0x2000c41c   Data        3072  emac_stm32f4xx.o(.bss)
    .bss                                     0x2000d01c   Section       16  spi_stm32f4xx.o(.bss)
    SPI3_Info                                0x2000d01c   Data          16  spi_stm32f4xx.o(.bss)
    .bss                                     0x2000d02c   Section       28  spi_stm32f4xx.o(.bss)
    SPI3_TransferInfo                        0x2000d02c   Data          28  spi_stm32f4xx.o(.bss)
    .bss                                     0x2000d048   Section     1024  net_config.o(.bss)
    net_stack                                0x2000d048   Data        1024  net_config.o(.bss)
    .bss                                     0x2000d448   Section     1024  net_config.o(.bss)
    eth0_stack                               0x2000d448   Data        1024  net_config.o(.bss)
    .bss                                     0x2000d848   Section    12000  net_config.o(.bss)
    mem_pool                                 0x2000d848   Data       12000  net_config.o(.bss)
    .bss                                     0x20010728   Section      200  net_config.o(.bss)
    eth0_arp_table                           0x20010728   Data         200  net_config.o(.bss)
    .bss                                     0x200107f0   Section       24  net_config.o(.bss)
    eth0_localm                              0x200107f0   Data          24  net_config.o(.bss)
    .bss                                     0x20010808   Section      160  net_config.o(.bss)
    eth0_ndp_table                           0x20010808   Data         160  net_config.o(.bss)
    .bss                                     0x200108a8   Section      100  net_config.o(.bss)
    eth0_localm6                             0x200108a8   Data         100  net_config.o(.bss)
    .bss                                     0x2001090c   Section       40  net_config.o(.bss)
    ip4_frag_scb                             0x2001090c   Data          40  net_config.o(.bss)
    .bss                                     0x20010934   Section       80  net_config.o(.bss)
    udp_scb                                  0x20010934   Data          80  net_config.o(.bss)
    .bss                                     0x20010984   Section      552  net_config.o(.bss)
    tcp_scb                                  0x20010984   Data         552  net_config.o(.bss)
    .bss                                     0x20010bac   Section      336  net_config.o(.bss)
    http_scb                                 0x20010bac   Data         336  net_config.o(.bss)
    .bss                                     0x20010cfc   Section      240  net_config.o(.bss)
    dns_table                                0x20010cfc   Data         240  net_config.o(.bss)
    .bss                                     0x20010dec   Section      160  net_eth.o(.bss)
    .bss                                     0x20010e8c   Section       24  net_arp.o(.bss)
    .bss                                     0x20010ea4   Section       68  net_ndp.o(.bss)
    .bss                                     0x20010ee8   Section       28  net_udp.o(.bss)
    addr                                     0x20010ee8   Data          28  net_udp.o(.bss)
    .bss                                     0x20010f04   Section       68  net_dhcp6_client.o(.bss)
    .bss                                     0x20010f48   Section       56  net_dns_client.o(.bss)
    dns_control                              0x20010f48   Data          56  net_dns_client.o(.bss)
    .bss                                     0x20010f80   Section      152  net_http_server.o(.bss)
    root_buf                                 0x20010f80   Data          80  net_http_server.o(.bss)
    user_buf                                 0x20010fd0   Data          16  net_http_server.o(.bss)
    passw_buf                                0x20010fe0   Data          33  net_http_server.o(.bss)
    .bss                                     0x20011018   Section       44  net_sntp_client_core.o(.bss)
    .bss                                     0x20011044   Section       44  net_ping_core.o(.bss)
    .bss                                     0x20011070   Section       56  net_sys.o(.bss)
    name_buf                                 0x20011070   Data          16  net_sys.o(.bss)
    os_id                                    0x2001109c   Data          12  net_sys.o(.bss)
    .bss                                     0x200110a8   Section       92  net_addr.o(.bss)
    buf                                      0x200110a8   Data          16  net_addr.o(.bss)
    buf                                      0x200110b8   Data          40  net_addr.o(.bss)
    buf                                      0x200110e0   Data          18  net_addr.o(.bss)
    buf                                      0x200110f4   Data          16  net_addr.o(.bss)
    .bss                                     0x20011104   Section       20  net_mem.o(.bss)
    mem_control                              0x20011104   Data          20  net_mem.o(.bss)
    .bss                                     0x20011118   Section       44  localtime.o(.bss)
    _tms                                     0x20011118   Data          44  localtime.o(.bss)
    [Anonymous Symbol]                       0x20011144   Section        0  os_systick.o(.bss.os)
    PendST                                   0x20011144   Data           1  os_systick.o(.bss.os)
    STACK                                    0x20011148   Section    16384  startup_stm32f429xx.o(STACK)
    FPCCR                                    0xe000ef34   Number         0  irq_armv7m.o ABSOLUTE

    Global Symbols

    Symbol Name                              Value     Ov Type        Size  Object(Section)

    BuildAttributes$$THM_ISAv4$E$P$D$K$B$S$7EM$VFPi3$EXTD16$VFPS$VFMA$PE$A:L22UL41UL21$X:L11$S22US41US21$IEEE1$IW$~IW$USESV6$~STKCKD$USESV7$~SHL$OSPACE$ROPI$EBA8$MICROLIB$REQ8$PRES8$EABIv2 0x00000000   Number         0  anon$$obj.o ABSOLUTE
    __ARM_use_no_argv                        0x00000000   Number         0  main.o ABSOLUTE
    _printf_a                                0x00000000   Number         0  stubs.o ABSOLUTE
    _printf_c                                0x00000000   Number         0  stubs.o ABSOLUTE
    _printf_charcount                        0x00000000   Number         0  stubs.o ABSOLUTE
    _printf_d                                0x00000000   Number         0  stubs.o ABSOLUTE
    _printf_e                                0x00000000   Number         0  stubs.o ABSOLUTE
    _printf_f                                0x00000000   Number         0  stubs.o ABSOLUTE
    _printf_flags                            0x00000000   Number         0  stubs.o ABSOLUTE
    _printf_fp_dec                           0x00000000   Number         0  stubs.o ABSOLUTE
    _printf_fp_hex                           0x00000000   Number         0  stubs.o ABSOLUTE
    _printf_g                                0x00000000   Number         0  stubs.o ABSOLUTE
    _printf_i                                0x00000000   Number         0  stubs.o ABSOLUTE
    _printf_int_dec                          0x00000000   Number         0  stubs.o ABSOLUTE
    _printf_l                                0x00000000   Number         0  stubs.o ABSOLUTE
    _printf_lc                               0x00000000   Number         0  stubs.o ABSOLUTE
    _printf_ll                               0x00000000   Number         0  stubs.o ABSOLUTE
    _printf_lld                              0x00000000   Number         0  stubs.o ABSOLUTE
    _printf_lli                              0x00000000   Number         0  stubs.o ABSOLUTE
    _printf_llo                              0x00000000   Number         0  stubs.o ABSOLUTE
    _printf_llu                              0x00000000   Number         0  stubs.o ABSOLUTE
    _printf_llx                              0x00000000   Number         0  stubs.o ABSOLUTE
    _printf_longlong_dec                     0x00000000   Number         0  stubs.o ABSOLUTE
    _printf_longlong_hex                     0x00000000   Number         0  stubs.o ABSOLUTE
    _printf_longlong_oct                     0x00000000   Number         0  stubs.o ABSOLUTE
    _printf_ls                               0x00000000   Number         0  stubs.o ABSOLUTE
    _printf_mbtowc                           0x00000000   Number         0  stubs.o ABSOLUTE
    _printf_n                                0x00000000   Number         0  stubs.o ABSOLUTE
    _printf_o                                0x00000000   Number         0  stubs.o ABSOLUTE
    _printf_p                                0x00000000   Number         0  stubs.o ABSOLUTE
    _printf_percent                          0x00000000   Number         0  stubs.o ABSOLUTE
    _printf_pre_padding                      0x00000000   Number         0  stubs.o ABSOLUTE
    _printf_return_value                     0x00000000   Number         0  stubs.o ABSOLUTE
    _printf_s                                0x00000000   Number         0  stubs.o ABSOLUTE
    _printf_sizespec                         0x00000000   Number         0  stubs.o ABSOLUTE
    _printf_str                              0x00000000   Number         0  stubs.o ABSOLUTE
    _printf_truncate_signed                  0x00000000   Number         0  stubs.o ABSOLUTE
    _printf_truncate_unsigned                0x00000000   Number         0  stubs.o ABSOLUTE
    _printf_u                                0x00000000   Number         0  stubs.o ABSOLUTE
    _printf_wc                               0x00000000   Number         0  stubs.o ABSOLUTE
    _printf_wctomb                           0x00000000   Number         0  stubs.o ABSOLUTE
    _printf_widthprec                        0x00000000   Number         0  stubs.o ABSOLUTE
    _printf_x                                0x00000000   Number         0  stubs.o ABSOLUTE
    .bss.os.evflags.cb$$Base                  - Undefined Weak Reference
    .bss.os.evflags.cb$$Limit                 - Undefined Weak Reference
    .bss.os.mempool.cb$$Base                  - Undefined Weak Reference
    .bss.os.mempool.cb$$Limit                 - Undefined Weak Reference
    __arm_fini_                               - Undefined Weak Reference
    __cpp_initialize__aeabi_                  - Undefined Weak Reference
    __cxa_finalize                            - Undefined Weak Reference
    _clock_init                               - Undefined Weak Reference
    _microlib_exit                            - Undefined Weak Reference
    __Vectors_Size                           0x000001ac   Number         0  startup_stm32f429xx.o ABSOLUTE
    __Vectors                                0x08000000   Data           4  startup_stm32f429xx.o(RESET)
    __Vectors_End                            0x080001ac   Data           0  startup_stm32f429xx.o(RESET)
    __main                                   0x080001ad   Thumb Code     0  entry.o(.ARM.Collect$$$$00000000)
    _main_stk                                0x080001ad   Thumb Code     0  entry2.o(.ARM.Collect$$$$00000001)
    _main_scatterload                        0x080001b1   Thumb Code     0  entry5.o(.ARM.Collect$$$$00000004)
    __main_after_scatterload                 0x080001b5   Thumb Code     0  entry5.o(.ARM.Collect$$$$00000004)
    _main_clock                              0x080001b5   Thumb Code     0  entry7b.o(.ARM.Collect$$$$00000008)
    _main_cpp_init                           0x080001b5   Thumb Code     0  entry8b.o(.ARM.Collect$$$$0000000A)
    _main_init                               0x080001b5   Thumb Code     0  entry9a.o(.ARM.Collect$$$$0000000B)
    __rt_lib_shutdown_fini                   0x080001bd   Thumb Code     0  entry12b.o(.ARM.Collect$$$$0000000E)
    __rt_final_cpp                           0x080001c1   Thumb Code     0  entry10a.o(.ARM.Collect$$$$0000000F)
    __rt_final_exit                          0x080001c1   Thumb Code     0  entry11a.o(.ARM.Collect$$$$00000011)
    HAL_GetTick                              0x080001c5   Thumb Code    66  main.o(.text)
    main                                     0x0800029b   Thumb Code    32  main.o(.text)
    AD_in                                    0x080002d9   Thumb Code     4  http_server.o(.text)
    netDHCP_Notify                           0x080002dd   Thumb Code     2  http_server.o(.text)
    Timer_Callback                           0x080002df   Thumb Code    10  http_server.o(.text)
    GetDateTimeSNTP_Callback                 0x080002e9   Thumb Code    12  http_server.o(.text)
    EnterSleepMode                           0x080002f5   Thumb Code    80  http_server.o(.text)
    SLEEPMODE_Callback                       0x08000345   Thumb Code    30  http_server.o(.text)
    Init_Timers                              0x08000363   Thumb Code    56  http_server.o(.text)
    Init_ThWaterSensor                       0x080003bb   Thumb Code    18  http_server.o(.text)
    Init_ThWaterSensorOff                    0x080003ed   Thumb Code    18  http_server.o(.text)
    WaterLevel                               0x080003ff   Thumb Code  1090  http_server.o(.text)
    Init_ThSLEEP                             0x08000883   Thumb Code    30  http_server.o(.text)
    Init_ThSNTP                              0x0800096b   Thumb Code    28  http_server.o(.text)
    Init_ThSetCalendar                       0x08000a03   Thumb Code    30  http_server.o(.text)
    Init_ThAlarmLED                          0x08000a4f   Thumb Code    28  http_server.o(.text)
    Init_ThRtc                               0x08000aa7   Thumb Code    28  http_server.o(.text)
    Thlcd                                    0x08000ac3   Thumb Code   116  http_server.o(.text)
    Init_Thlcd                               0x08000b37   Thumb Code   152  http_server.o(.text)
    Init_ThAdcRead                           0x08000bed   Thumb Code    30  http_server.o(.text)
    Read_Adc                                 0x08000c0b   Thumb Code     6  http_server.o(.text)
    Init_Button                              0x08000c3f   Thumb Code    56  http_server.o(.text)
    server_init                              0x08000c77   Thumb Code    68  http_server.o(.text)
    app_main                                 0x08000cbb   Thumb Code     8  http_server.o(.text)
    EXTI15_10_IRQHandler                     0x08000cc3   Thumb Code     8  http_server.o(.text)
    ExitSleepMode                            0x08000ccb   Thumb Code   126  http_server.o(.text)
    HAL_GPIO_EXTI_Callback                   0x08000d49   Thumb Code    64  http_server.o(.text)
    netCGI_ProcessQuery                      0x08000dc1   Thumb Code   204  http_server_cgi.o(.text)
    netCGI_ProcessData                       0x08000e8d   Thumb Code   602  http_server_cgi.o(.text)
    netCGI_Script                            0x080010e7   Thumb Code  1210  http_server_cgi.o(.text)
    imageFileInfo                            0x08001639   Thumb Code    82  web.o(.text)
    LED_init                                 0x08001695   Thumb Code    48  led.o(.text)
    SPI_init                                 0x080016d1   Thumb Code    36  lcd.o(.text)
    GPIO_init                                0x080016f5   Thumb Code   162  lcd.o(.text)
    delay                                    0x08001797   Thumb Code    86  lcd.o(.text)
    LCD_reset                                0x080017ed   Thumb Code    54  lcd.o(.text)
    LCD_wr_data                              0x08001823   Thumb Code    74  lcd.o(.text)
    LCD_wr_cmd                               0x0800186d   Thumb Code    74  lcd.o(.text)
    LCD_init                                 0x080018b7   Thumb Code    76  lcd.o(.text)
    LCD_update                               0x08001903   Thumb Code   144  lcd.o(.text)
    symbolToLocalBuffer                      0x08001993   Thumb Code   112  lcd.o(.text)
    LCD_clear                                0x08001a03   Thumb Code    22  lcd.o(.text)
    ADC_getVoltage                           0x08001a3d   Thumb Code    66  adc.o(.text)
    ADC_Init_Single_Conversion               0x08001a7f   Thumb Code    52  adc.o(.text)
    ADC1_pins_F429ZI_config                  0x08001ab3   Thumb Code    74  adc.o(.text)
    ThAdc                                    0x08001afd   Thumb Code    60  adc.o(.text)
    Init_ThAdc                               0x08001b39   Thumb Code    30  adc.o(.text)
    Init_MsgQueueAdc                         0x08001b57   Thumb Code    20  adc.o(.text)
    RTC_init                                 0x08001b85   Thumb Code    30  rtc.o(.text)
    RTC_AlarmConfig                          0x08001ba3   Thumb Code   102  rtc.o(.text)
    RTC_CalendarConfig                       0x08001c09   Thumb Code   112  rtc.o(.text)
    RTC_CalendarShow                         0x08001c79   Thumb Code    72  rtc.o(.text)
    RTC_Alarm_IRQHandler                     0x08001cc1   Thumb Code     6  rtc.o(.text)
    HAL_RTC_AlarmAEventCallback              0x08001cc7   Thumb Code    12  rtc.o(.text)
    HAL_RTC_MspInit                          0x08001d09   Thumb Code    48  stm32f4xx_hal_msp.o(.text)
    HAL_RTC_MspDeInit                        0x08001d39   Thumb Code    24  stm32f4xx_hal_msp.o(.text)
    LED_Initialize                           0x08001d59   Thumb Code   122  led_mcbstm32f400.o(.text)
    LED_Uninitialize                         0x08001dd3   Thumb Code    34  led_mcbstm32f400.o(.text)
    LED_On                                   0x08001df5   Thumb Code    36  led_mcbstm32f400.o(.text)
    LED_Off                                  0x08001e19   Thumb Code    36  led_mcbstm32f400.o(.text)
    LED_SetOut                               0x08001e3d   Thumb Code    40  led_mcbstm32f400.o(.text)
    LED_GetCount                             0x08001e65   Thumb Code     4  led_mcbstm32f400.o(.text)
    osRtxIdleThread                          0x08001e7d   Thumb Code     2  rtx_config.o(.text)
    osRtxErrorNotify                         0x08001e7f   Thumb Code     2  rtx_config.o(.text)
    ETH_IRQHandler                           0x080029cb   Thumb Code    56  emac_stm32f4xx.o(.text)
    SPI3_IRQHandler                          0x08003667   Thumb Code     4  spi_stm32f4xx.o(.text)
    HAL_MspInit                              0x08003671   Thumb Code     2  stm32f4xx_hal.o(.text)
    HAL_InitTick                             0x08003673   Thumb Code    58  stm32f4xx_hal.o(.text)
    HAL_Init                                 0x080036ad   Thumb Code    40  stm32f4xx_hal.o(.text)
    HAL_MspDeInit                            0x080036d5   Thumb Code     2  stm32f4xx_hal.o(.text)
    HAL_DeInit                               0x080036d7   Thumb Code    48  stm32f4xx_hal.o(.text)
    HAL_IncTick                              0x08003707   Thumb Code    12  stm32f4xx_hal.o(.text)
    HAL_GetTickPrio                          0x08003719   Thumb Code     6  stm32f4xx_hal.o(.text)
    HAL_SetTickFreq                          0x0800371f   Thumb Code    30  stm32f4xx_hal.o(.text)
    HAL_GetTickFreq                          0x0800373d   Thumb Code     6  stm32f4xx_hal.o(.text)
    HAL_Delay                                0x08003743   Thumb Code    32  stm32f4xx_hal.o(.text)
    HAL_SuspendTick                          0x08003763   Thumb Code    14  stm32f4xx_hal.o(.text)
    HAL_ResumeTick                           0x08003771   Thumb Code    14  stm32f4xx_hal.o(.text)
    HAL_GetHalVersion                        0x0800377f   Thumb Code     4  stm32f4xx_hal.o(.text)
    HAL_GetREVID                             0x08003783   Thumb Code     8  stm32f4xx_hal.o(.text)
    HAL_GetDEVID                             0x0800378b   Thumb Code    10  stm32f4xx_hal.o(.text)
    HAL_DBGMCU_EnableDBGSleepMode            0x08003795   Thumb Code    12  stm32f4xx_hal.o(.text)
    HAL_DBGMCU_DisableDBGSleepMode           0x080037a1   Thumb Code    12  stm32f4xx_hal.o(.text)
    HAL_DBGMCU_EnableDBGStopMode             0x080037ad   Thumb Code    12  stm32f4xx_hal.o(.text)
    HAL_DBGMCU_DisableDBGStopMode            0x080037b9   Thumb Code    12  stm32f4xx_hal.o(.text)
    HAL_DBGMCU_EnableDBGStandbyMode          0x080037c5   Thumb Code    12  stm32f4xx_hal.o(.text)
    HAL_DBGMCU_DisableDBGStandbyMode         0x080037d1   Thumb Code    12  stm32f4xx_hal.o(.text)
    HAL_EnableCompensationCell               0x080037dd   Thumb Code     8  stm32f4xx_hal.o(.text)
    HAL_DisableCompensationCell              0x080037e5   Thumb Code     8  stm32f4xx_hal.o(.text)
    HAL_GetUIDw0                             0x080037ed   Thumb Code     6  stm32f4xx_hal.o(.text)
    HAL_GetUIDw1                             0x080037f3   Thumb Code     8  stm32f4xx_hal.o(.text)
    HAL_GetUIDw2                             0x080037fb   Thumb Code     8  stm32f4xx_hal.o(.text)
    HAL_EnableMemorySwappingBank             0x08003803   Thumb Code     8  stm32f4xx_hal.o(.text)
    HAL_DisableMemorySwappingBank            0x0800380b   Thumb Code     8  stm32f4xx_hal.o(.text)
    HAL_ADC_MspInit                          0x08003963   Thumb Code     2  stm32f4xx_hal_adc.o(.text)
    HAL_ADC_Init                             0x08003965   Thumb Code    84  stm32f4xx_hal_adc.o(.text)
    HAL_ADC_MspDeInit                        0x080039b9   Thumb Code     2  stm32f4xx_hal_adc.o(.text)
    HAL_ADC_DeInit                           0x080039bb   Thumb Code    62  stm32f4xx_hal_adc.o(.text)
    HAL_ADC_Start                            0x080039f9   Thumb Code   234  stm32f4xx_hal_adc.o(.text)
    HAL_ADC_Stop                             0x08003ae3   Thumb Code    60  stm32f4xx_hal_adc.o(.text)
    HAL_ADC_PollForConversion                0x08003b1f   Thumb Code   162  stm32f4xx_hal_adc.o(.text)
    HAL_ADC_PollForEvent                     0x08003bc1   Thumb Code   138  stm32f4xx_hal_adc.o(.text)
    HAL_ADC_Start_IT                         0x08003c4b   Thumb Code   244  stm32f4xx_hal_adc.o(.text)
    HAL_ADC_Stop_IT                          0x08003d3f   Thumb Code    70  stm32f4xx_hal_adc.o(.text)
    HAL_ADC_ErrorCallback                    0x08003d85   Thumb Code     2  stm32f4xx_hal_adc.o(.text)
    HAL_ADC_LevelOutOfWindowCallback         0x08003d87   Thumb Code     2  stm32f4xx_hal_adc.o(.text)
    HAL_ADC_ConvCpltCallback                 0x08003d89   Thumb Code     2  stm32f4xx_hal_adc.o(.text)
    HAL_ADC_IRQHandler                       0x08003d8b   Thumb Code   318  stm32f4xx_hal_adc.o(.text)
    HAL_ADC_ConvHalfCpltCallback             0x08003edf   Thumb Code     2  stm32f4xx_hal_adc.o(.text)
    HAL_ADC_Start_DMA                        0x08003f59   Thumb Code   336  stm32f4xx_hal_adc.o(.text)
    HAL_ADC_Stop_DMA                         0x080040a9   Thumb Code    88  stm32f4xx_hal_adc.o(.text)
    HAL_ADC_GetValue                         0x08004101   Thumb Code     6  stm32f4xx_hal_adc.o(.text)
    HAL_ADC_ConfigChannel                    0x08004107   Thumb Code   344  stm32f4xx_hal_adc.o(.text)
    HAL_ADC_AnalogWDGConfig                  0x0800425f   Thumb Code   112  stm32f4xx_hal_adc.o(.text)
    HAL_ADC_GetState                         0x080042cf   Thumb Code     4  stm32f4xx_hal_adc.o(.text)
    HAL_ADC_GetError                         0x080042d3   Thumb Code     4  stm32f4xx_hal_adc.o(.text)
    HAL_ADCEx_InjectedStart                  0x080042f1   Thumb Code   208  stm32f4xx_hal_adc_ex.o(.text)
    HAL_ADCEx_InjectedStart_IT               0x080043c1   Thumb Code   218  stm32f4xx_hal_adc_ex.o(.text)
    HAL_ADCEx_InjectedStop                   0x0800449b   Thumb Code    86  stm32f4xx_hal_adc_ex.o(.text)
    HAL_ADCEx_InjectedPollForConversion      0x080044f1   Thumb Code   136  stm32f4xx_hal_adc_ex.o(.text)
    HAL_ADCEx_InjectedStop_IT                0x08004579   Thumb Code    94  stm32f4xx_hal_adc_ex.o(.text)
    HAL_ADCEx_InjectedGetValue               0x080045d7   Thumb Code    62  stm32f4xx_hal_adc_ex.o(.text)
    HAL_ADCEx_MultiModeStart_DMA             0x08004687   Thumb Code   252  stm32f4xx_hal_adc_ex.o(.text)
    HAL_ADCEx_MultiModeStop_DMA              0x08004783   Thumb Code    90  stm32f4xx_hal_adc_ex.o(.text)
    HAL_ADCEx_MultiModeGetValue              0x080047dd   Thumb Code     6  stm32f4xx_hal_adc_ex.o(.text)
    HAL_ADCEx_InjectedConvCpltCallback       0x080047e3   Thumb Code     2  stm32f4xx_hal_adc_ex.o(.text)
    HAL_ADCEx_InjectedConfigChannel          0x080047e5   Thumb Code   458  stm32f4xx_hal_adc_ex.o(.text)
    HAL_ADCEx_MultiModeConfigChannel         0x080049af   Thumb Code    78  stm32f4xx_hal_adc_ex.o(.text)
    HAL_NVIC_SetPriorityGrouping             0x08004a15   Thumb Code    26  stm32f4xx_hal_cortex.o(.text)
    HAL_NVIC_SetPriority                     0x08004a2f   Thumb Code    60  stm32f4xx_hal_cortex.o(.text)
    HAL_NVIC_EnableIRQ                       0x08004a6b   Thumb Code    26  stm32f4xx_hal_cortex.o(.text)
    HAL_NVIC_DisableIRQ                      0x08004a85   Thumb Code    34  stm32f4xx_hal_cortex.o(.text)
    HAL_NVIC_SystemReset                     0x08004aa7   Thumb Code    28  stm32f4xx_hal_cortex.o(.text)
    HAL_SYSTICK_Config                       0x08004ac3   Thumb Code    40  stm32f4xx_hal_cortex.o(.text)
    HAL_MPU_Disable                          0x08004aeb   Thumb Code    26  stm32f4xx_hal_cortex.o(.text)
    HAL_MPU_Enable                           0x08004b05   Thumb Code    32  stm32f4xx_hal_cortex.o(.text)
    HAL_MPU_ConfigRegion                     0x08004b25   Thumb Code    84  stm32f4xx_hal_cortex.o(.text)
    HAL_NVIC_GetPriorityGrouping             0x08004b79   Thumb Code    10  stm32f4xx_hal_cortex.o(.text)
    HAL_NVIC_GetPriority                     0x08004b83   Thumb Code    86  stm32f4xx_hal_cortex.o(.text)
    HAL_NVIC_SetPendingIRQ                   0x08004bd9   Thumb Code    26  stm32f4xx_hal_cortex.o(.text)
    HAL_NVIC_GetPendingIRQ                   0x08004bf3   Thumb Code    40  stm32f4xx_hal_cortex.o(.text)
    HAL_NVIC_ClearPendingIRQ                 0x08004c1b   Thumb Code    26  stm32f4xx_hal_cortex.o(.text)
    HAL_NVIC_GetActive                       0x08004c35   Thumb Code    40  stm32f4xx_hal_cortex.o(.text)
    HAL_SYSTICK_CLKSourceConfig              0x08004c5d   Thumb Code    28  stm32f4xx_hal_cortex.o(.text)
    HAL_SYSTICK_Callback                     0x08004c79   Thumb Code     2  stm32f4xx_hal_cortex.o(.text)
    HAL_SYSTICK_IRQHandler                   0x08004c7b   Thumb Code     8  stm32f4xx_hal_cortex.o(.text)
    HAL_DMA_Init                             0x08004d4b   Thumb Code   208  stm32f4xx_hal_dma.o(.text)
    HAL_DMA_DeInit                           0x08004e1b   Thumb Code   102  stm32f4xx_hal_dma.o(.text)
    HAL_DMA_Start                            0x08004eab   Thumb Code    70  stm32f4xx_hal_dma.o(.text)
    HAL_DMA_Start_IT                         0x08004ef1   Thumb Code   108  stm32f4xx_hal_dma.o(.text)
    HAL_DMA_Abort                            0x08004f5d   Thumb Code   140  stm32f4xx_hal_dma.o(.text)
    HAL_DMA_Abort_IT                         0x08004fe9   Thumb Code    36  stm32f4xx_hal_dma.o(.text)
    HAL_DMA_PollForTransfer                  0x0800500d   Thumb Code   296  stm32f4xx_hal_dma.o(.text)
    HAL_DMA_IRQHandler                       0x08005135   Thumb Code   460  stm32f4xx_hal_dma.o(.text)
    HAL_DMA_RegisterCallback                 0x08005301   Thumb Code    80  stm32f4xx_hal_dma.o(.text)
    HAL_DMA_UnRegisterCallback               0x08005351   Thumb Code   100  stm32f4xx_hal_dma.o(.text)
    HAL_DMA_GetState                         0x080053b5   Thumb Code     6  stm32f4xx_hal_dma.o(.text)
    HAL_DMA_GetError                         0x080053bb   Thumb Code     4  stm32f4xx_hal_dma.o(.text)
    HAL_GPIO_Init                            0x080053c5   Thumb Code   410  stm32f4xx_hal_gpio.o(.text)
    HAL_GPIO_DeInit                          0x0800555f   Thumb Code   300  stm32f4xx_hal_gpio.o(.text)
    HAL_GPIO_ReadPin                         0x0800568b   Thumb Code    14  stm32f4xx_hal_gpio.o(.text)
    HAL_GPIO_WritePin                        0x08005699   Thumb Code    14  stm32f4xx_hal_gpio.o(.text)
    HAL_GPIO_TogglePin                       0x080056a7   Thumb Code    18  stm32f4xx_hal_gpio.o(.text)
    HAL_GPIO_LockPin                         0x080056b9   Thumb Code    36  stm32f4xx_hal_gpio.o(.text)
    HAL_GPIO_EXTI_IRQHandler                 0x080056df   Thumb Code    20  stm32f4xx_hal_gpio.o(.text)
    HAL_PWR_DeInit                           0x08005729   Thumb Code    20  stm32f4xx_hal_pwr.o(.text)
    HAL_PWR_EnableBkUpAccess                 0x0800573d   Thumb Code     8  stm32f4xx_hal_pwr.o(.text)
    HAL_PWR_DisableBkUpAccess                0x08005745   Thumb Code     8  stm32f4xx_hal_pwr.o(.text)
    HAL_PWR_ConfigPVD                        0x0800574d   Thumb Code   114  stm32f4xx_hal_pwr.o(.text)
    HAL_PWR_EnablePVD                        0x080057bf   Thumb Code     8  stm32f4xx_hal_pwr.o(.text)
    HAL_PWR_DisablePVD                       0x080057c7   Thumb Code     8  stm32f4xx_hal_pwr.o(.text)
    HAL_PWR_EnableWakeUpPin                  0x080057cf   Thumb Code    10  stm32f4xx_hal_pwr.o(.text)
    HAL_PWR_DisableWakeUpPin                 0x080057d9   Thumb Code    10  stm32f4xx_hal_pwr.o(.text)
    HAL_PWR_EnterSLEEPMode                   0x080057e3   Thumb Code    26  stm32f4xx_hal_pwr.o(.text)
    HAL_PWR_EnterSTOPMode                    0x080057fd   Thumb Code    46  stm32f4xx_hal_pwr.o(.text)
    HAL_PWR_EnterSTANDBYMode                 0x0800582b   Thumb Code    24  stm32f4xx_hal_pwr.o(.text)
    HAL_PWR_PVDCallback                      0x08005843   Thumb Code     2  stm32f4xx_hal_pwr.o(.text)
    HAL_PWR_PVD_IRQHandler                   0x08005845   Thumb Code    24  stm32f4xx_hal_pwr.o(.text)
    HAL_PWR_EnableSleepOnExit                0x0800585d   Thumb Code    12  stm32f4xx_hal_pwr.o(.text)
    HAL_PWR_DisableSleepOnExit               0x08005869   Thumb Code    12  stm32f4xx_hal_pwr.o(.text)
    HAL_PWR_EnableSEVOnPend                  0x08005875   Thumb Code    12  stm32f4xx_hal_pwr.o(.text)
    HAL_PWR_DisableSEVOnPend                 0x08005881   Thumb Code    12  stm32f4xx_hal_pwr.o(.text)
    HAL_RCC_OscConfig                        0x080058a5   Thumb Code   954  stm32f4xx_hal_rcc.o(.text)
    HAL_RCC_GetSysClockFreq                  0x08005c5f   Thumb Code    94  stm32f4xx_hal_rcc.o(.text)
    HAL_RCC_ClockConfig                      0x08005cbd   Thumb Code   340  stm32f4xx_hal_rcc.o(.text)
    HAL_RCC_MCOConfig                        0x08005e11   Thumb Code   130  stm32f4xx_hal_rcc.o(.text)
    HAL_RCC_EnableCSS                        0x08005e93   Thumb Code     8  stm32f4xx_hal_rcc.o(.text)
    HAL_RCC_DisableCSS                       0x08005e9b   Thumb Code     8  stm32f4xx_hal_rcc.o(.text)
    HAL_RCC_GetHCLKFreq                      0x08005ea3   Thumb Code     6  stm32f4xx_hal_rcc.o(.text)
    HAL_RCC_GetPCLK1Freq                     0x08005ea9   Thumb Code    24  stm32f4xx_hal_rcc.o(.text)
    HAL_RCC_GetPCLK2Freq                     0x08005ec1   Thumb Code    24  stm32f4xx_hal_rcc.o(.text)
    HAL_RCC_GetOscConfig                     0x08005ed9   Thumb Code   178  stm32f4xx_hal_rcc.o(.text)
    HAL_RCC_GetClockConfig                   0x08005f8b   Thumb Code    54  stm32f4xx_hal_rcc.o(.text)
    HAL_RCC_CSSCallback                      0x08005fc1   Thumb Code     2  stm32f4xx_hal_rcc.o(.text)
    HAL_RCC_NMI_IRQHandler                   0x08005fc3   Thumb Code    26  stm32f4xx_hal_rcc.o(.text)
    HAL_RCCEx_PeriphCLKConfig                0x08006001   Thumb Code   574  stm32f4xx_hal_rcc_ex.o(.text)
    HAL_RCCEx_GetPeriphCLKConfig             0x0800623f   Thumb Code   128  stm32f4xx_hal_rcc_ex.o(.text)
    HAL_RCCEx_GetPeriphCLKFreq               0x080062bf   Thumb Code    86  stm32f4xx_hal_rcc_ex.o(.text)
    HAL_RCCEx_EnablePLLI2S                   0x08006315   Thumb Code   100  stm32f4xx_hal_rcc_ex.o(.text)
    HAL_RCCEx_DisablePLLI2S                  0x08006379   Thumb Code    42  stm32f4xx_hal_rcc_ex.o(.text)
    HAL_RCCEx_EnablePLLSAI                   0x080063a3   Thumb Code   152  stm32f4xx_hal_rcc_ex.o(.text)
    HAL_RCCEx_DisablePLLSAI                  0x0800643b   Thumb Code    44  stm32f4xx_hal_rcc_ex.o(.text)
    HAL_RCC_DeInit                           0x08006467   Thumb Code   352  stm32f4xx_hal_rcc_ex.o(.text)
    HAL_RTC_WaitForSynchro                   0x080065e5   Thumb Code    52  stm32f4xx_hal_rtc.o(.text)
    RTC_EnterInitMode                        0x08006619   Thumb Code    56  stm32f4xx_hal_rtc.o(.text)
    HAL_RTC_Init                             0x08006653   Thumb Code   180  stm32f4xx_hal_rtc.o(.text)
    HAL_RTC_DeInit                           0x08006709   Thumb Code   216  stm32f4xx_hal_rtc.o(.text)
    RTC_ByteToBcd2                           0x080067e1   Thumb Code    22  stm32f4xx_hal_rtc.o(.text)
    HAL_RTC_SetTime                          0x080067f7   Thumb Code   242  stm32f4xx_hal_rtc.o(.text)
    RTC_Bcd2ToByte                           0x080068e9   Thumb Code    18  stm32f4xx_hal_rtc.o(.text)
    HAL_RTC_GetTime                          0x080068fb   Thumb Code    84  stm32f4xx_hal_rtc.o(.text)
    HAL_RTC_SetDate                          0x0800694f   Thumb Code   208  stm32f4xx_hal_rtc.o(.text)
    HAL_RTC_GetDate                          0x08006a1f   Thumb Code    64  stm32f4xx_hal_rtc.o(.text)
    HAL_RTC_SetAlarm                         0x08006a5f   Thumb Code   384  stm32f4xx_hal_rtc.o(.text)
    HAL_RTC_SetAlarm_IT                      0x08006bdf   Thumb Code   394  stm32f4xx_hal_rtc.o(.text)
    HAL_RTC_DeactivateAlarm                  0x08006d69   Thumb Code   194  stm32f4xx_hal_rtc.o(.text)
    HAL_RTC_GetAlarm                         0x08006e2b   Thumb Code   130  stm32f4xx_hal_rtc.o(.text)
    HAL_RTC_AlarmIRQHandler                  0x08006eaf   Thumb Code    88  stm32f4xx_hal_rtc.o(.text)
    HAL_RTC_PollForAlarmAEvent               0x08006f07   Thumb Code    66  stm32f4xx_hal_rtc.o(.text)
    HAL_RTC_GetState                         0x08006f49   Thumb Code     4  stm32f4xx_hal_rtc.o(.text)
    HAL_RTCEx_SetTimeStamp                   0x08006f55   Thumb Code    90  stm32f4xx_hal_rtc_ex.o(.text)
    HAL_RTCEx_SetTimeStamp_IT                0x08006faf   Thumb Code   136  stm32f4xx_hal_rtc_ex.o(.text)
    HAL_RTCEx_DeactivateTimeStamp            0x08007037   Thumb Code    70  stm32f4xx_hal_rtc_ex.o(.text)
    HAL_RTCEx_GetTimeStamp                   0x0800707d   Thumb Code   148  stm32f4xx_hal_rtc_ex.o(.text)
    HAL_RTCEx_SetTamper                      0x08007111   Thumb Code    94  stm32f4xx_hal_rtc_ex.o(.text)
    HAL_RTCEx_SetTamper_IT                   0x0800716f   Thumb Code   166  stm32f4xx_hal_rtc_ex.o(.text)
    HAL_RTCEx_DeactivateTamper               0x08007215   Thumb Code    38  stm32f4xx_hal_rtc_ex.o(.text)
    HAL_RTCEx_Tamper2EventCallback           0x0800723b   Thumb Code     2  stm32f4xx_hal_rtc_ex.o(.text)
    HAL_RTCEx_Tamper1EventCallback           0x0800723d   Thumb Code     2  stm32f4xx_hal_rtc_ex.o(.text)
    HAL_RTCEx_TimeStampEventCallback         0x0800723f   Thumb Code     2  stm32f4xx_hal_rtc_ex.o(.text)
    HAL_RTCEx_TamperTimeStampIRQHandler      0x08007241   Thumb Code   122  stm32f4xx_hal_rtc_ex.o(.text)
    HAL_RTCEx_PollForTimeStampEvent          0x080072bb   Thumb Code    80  stm32f4xx_hal_rtc_ex.o(.text)
    HAL_RTCEx_PollForTamper1Event            0x0800730b   Thumb Code    66  stm32f4xx_hal_rtc_ex.o(.text)
    HAL_RTCEx_PollForTamper2Event            0x0800734d   Thumb Code    66  stm32f4xx_hal_rtc_ex.o(.text)
    HAL_RTCEx_SetWakeUpTimer                 0x0800738f   Thumb Code   222  stm32f4xx_hal_rtc_ex.o(.text)
    HAL_RTCEx_SetWakeUpTimer_IT              0x0800746d   Thumb Code   254  stm32f4xx_hal_rtc_ex.o(.text)
    HAL_RTCEx_DeactivateWakeUpTimer          0x0800756b   Thumb Code   122  stm32f4xx_hal_rtc_ex.o(.text)
    HAL_RTCEx_GetWakeUpTimer                 0x080075e5   Thumb Code     8  stm32f4xx_hal_rtc_ex.o(.text)
    HAL_RTCEx_WakeUpTimerEventCallback       0x080075ed   Thumb Code     2  stm32f4xx_hal_rtc_ex.o(.text)
    HAL_RTCEx_WakeUpTimerIRQHandler          0x080075ef   Thumb Code    48  stm32f4xx_hal_rtc_ex.o(.text)
    HAL_RTCEx_PollForWakeUpTimerEvent        0x0800761f   Thumb Code    66  stm32f4xx_hal_rtc_ex.o(.text)
    HAL_RTCEx_BKUPWrite                      0x08007661   Thumb Code    12  stm32f4xx_hal_rtc_ex.o(.text)
    HAL_RTCEx_BKUPRead                       0x0800766d   Thumb Code    12  stm32f4xx_hal_rtc_ex.o(.text)
    HAL_RTCEx_SetCoarseCalib                 0x08007679   Thumb Code   106  stm32f4xx_hal_rtc_ex.o(.text)
    HAL_RTCEx_DeactivateCoarseCalib          0x080076e3   Thumb Code    92  stm32f4xx_hal_rtc_ex.o(.text)
    HAL_RTCEx_SetSmoothCalib                 0x0800773f   Thumb Code   134  stm32f4xx_hal_rtc_ex.o(.text)
    HAL_RTCEx_SetSynchroShift                0x080077c5   Thumb Code   162  stm32f4xx_hal_rtc_ex.o(.text)
    HAL_RTCEx_SetCalibrationOutPut           0x08007867   Thumb Code    86  stm32f4xx_hal_rtc_ex.o(.text)
    HAL_RTCEx_DeactivateCalibrationOutPut    0x080078bd   Thumb Code    56  stm32f4xx_hal_rtc_ex.o(.text)
    HAL_RTCEx_SetRefClock                    0x080078f5   Thumb Code    92  stm32f4xx_hal_rtc_ex.o(.text)
    HAL_RTCEx_DeactivateRefClock             0x08007951   Thumb Code    92  stm32f4xx_hal_rtc_ex.o(.text)
    HAL_RTCEx_EnableBypassShadow             0x080079ad   Thumb Code    56  stm32f4xx_hal_rtc_ex.o(.text)
    HAL_RTCEx_DisableBypassShadow            0x080079e5   Thumb Code    56  stm32f4xx_hal_rtc_ex.o(.text)
    HAL_RTCEx_AlarmBEventCallback            0x08007a1d   Thumb Code     2  stm32f4xx_hal_rtc_ex.o(.text)
    HAL_RTCEx_PollForAlarmBEvent             0x08007a1f   Thumb Code    66  stm32f4xx_hal_rtc_ex.o(.text)
    TIM_Base_SetConfig                       0x08007a61   Thumb Code   160  stm32f4xx_hal_tim.o(.text)
    HAL_TIM_Base_MspInit                     0x08007b01   Thumb Code     2  stm32f4xx_hal_tim.o(.text)
    HAL_TIM_Base_Init                        0x08007b03   Thumb Code    56  stm32f4xx_hal_tim.o(.text)
    HAL_TIM_Base_MspDeInit                   0x08007b3b   Thumb Code     2  stm32f4xx_hal_tim.o(.text)
    HAL_TIM_Base_DeInit                      0x08007b3d   Thumb Code    54  stm32f4xx_hal_tim.o(.text)
    HAL_TIM_Base_Start                       0x08007b73   Thumb Code    36  stm32f4xx_hal_tim.o(.text)
    HAL_TIM_Base_Stop                        0x08007b97   Thumb Code    44  stm32f4xx_hal_tim.o(.text)
    HAL_TIM_Base_Start_IT                    0x08007bc3   Thumb Code    34  stm32f4xx_hal_tim.o(.text)
    HAL_TIM_Base_Stop_IT                     0x08007be5   Thumb Code    42  stm32f4xx_hal_tim.o(.text)
    HAL_TIM_ErrorCallback                    0x08007c0f   Thumb Code     2  stm32f4xx_hal_tim.o(.text)
    TIM_DMAError                             0x08007c11   Thumb Code    16  stm32f4xx_hal_tim.o(.text)
    HAL_TIM_PeriodElapsedHalfCpltCallback    0x08007c21   Thumb Code     2  stm32f4xx_hal_tim.o(.text)
    HAL_TIM_PeriodElapsedCallback            0x08007c33   Thumb Code     2  stm32f4xx_hal_tim.o(.text)
    HAL_TIM_Base_Start_DMA                   0x08007c45   Thumb Code   112  stm32f4xx_hal_tim.o(.text)
    HAL_TIM_Base_Stop_DMA                    0x08007cb5   Thumb Code    58  stm32f4xx_hal_tim.o(.text)
    HAL_TIM_OC_MspInit                       0x08007cef   Thumb Code     2  stm32f4xx_hal_tim.o(.text)
    HAL_TIM_OC_Init                          0x08007cf1   Thumb Code    56  stm32f4xx_hal_tim.o(.text)
    HAL_TIM_OC_MspDeInit                     0x08007d29   Thumb Code     2  stm32f4xx_hal_tim.o(.text)
    HAL_TIM_OC_DeInit                        0x08007d2b   Thumb Code    54  stm32f4xx_hal_tim.o(.text)
    TIM_CCxChannelCmd                        0x08007d61   Thumb Code    26  stm32f4xx_hal_tim.o(.text)
    HAL_TIM_OC_Start                         0x08007d7b   Thumb Code    58  stm32f4xx_hal_tim.o(.text)
    HAL_TIM_OC_Stop                          0x08007db5   Thumb Code    78  stm32f4xx_hal_tim.o(.text)
    HAL_TIM_OC_Start_IT                      0x08007e03   Thumb Code   170  stm32f4xx_hal_tim.o(.text)
    HAL_TIM_OC_Stop_IT                       0x08007ead   Thumb Code   136  stm32f4xx_hal_tim.o(.text)
    HAL_TIM_PWM_PulseFinishedHalfCpltCallback 0x08007f35   Thumb Code     2  stm32f4xx_hal_tim.o(.text)
    TIM_DMADelayPulseHalfCplt                0x08007f37   Thumb Code    66  stm32f4xx_hal_tim.o(.text)
    HAL_TIM_PWM_PulseFinishedCallback        0x08007f79   Thumb Code     2  stm32f4xx_hal_tim.o(.text)
    TIM_DMADelayPulseCplt                    0x08007f7b   Thumb Code    66  stm32f4xx_hal_tim.o(.text)
    HAL_TIM_OC_Start_DMA                     0x08007fbd   Thumb Code   288  stm32f4xx_hal_tim.o(.text)
    HAL_TIM_OC_Stop_DMA                      0x080080dd   Thumb Code   170  stm32f4xx_hal_tim.o(.text)
    HAL_TIM_PWM_MspInit                      0x08008187   Thumb Code     2  stm32f4xx_hal_tim.o(.text)
    HAL_TIM_PWM_Init                         0x08008189   Thumb Code    56  stm32f4xx_hal_tim.o(.text)
    HAL_TIM_PWM_MspDeInit                    0x080081c1   Thumb Code     2  stm32f4xx_hal_tim.o(.text)
    HAL_TIM_PWM_DeInit                       0x080081c3   Thumb Code    54  stm32f4xx_hal_tim.o(.text)
    HAL_TIM_PWM_Start                        0x080081f9   Thumb Code    58  stm32f4xx_hal_tim.o(.text)
    HAL_TIM_PWM_Stop                         0x08008233   Thumb Code    84  stm32f4xx_hal_tim.o(.text)
    HAL_TIM_PWM_Start_IT                     0x08008287   Thumb Code   126  stm32f4xx_hal_tim.o(.text)
    HAL_TIM_PWM_Stop_IT                      0x08008305   Thumb Code   136  stm32f4xx_hal_tim.o(.text)
    HAL_TIM_PWM_Start_DMA                    0x0800838d   Thumb Code   288  stm32f4xx_hal_tim.o(.text)
    HAL_TIM_PWM_Stop_DMA                     0x080084ad   Thumb Code   170  stm32f4xx_hal_tim.o(.text)
    HAL_TIM_IC_MspInit                       0x08008557   Thumb Code     2  stm32f4xx_hal_tim.o(.text)
    HAL_TIM_IC_Init                          0x08008559   Thumb Code    56  stm32f4xx_hal_tim.o(.text)
    HAL_TIM_IC_MspDeInit                     0x08008591   Thumb Code     2  stm32f4xx_hal_tim.o(.text)
    HAL_TIM_IC_DeInit                        0x08008593   Thumb Code    54  stm32f4xx_hal_tim.o(.text)
    HAL_TIM_IC_Start                         0x080085c9   Thumb Code    36  stm32f4xx_hal_tim.o(.text)
    HAL_TIM_IC_Stop                          0x080085ed   Thumb Code    44  stm32f4xx_hal_tim.o(.text)
    HAL_TIM_IC_Start_IT                      0x08008619   Thumb Code    94  stm32f4xx_hal_tim.o(.text)
    HAL_TIM_IC_Stop_IT                       0x08008677   Thumb Code   102  stm32f4xx_hal_tim.o(.text)
    HAL_TIM_IC_CaptureHalfCpltCallback       0x080086dd   Thumb Code     2  stm32f4xx_hal_tim.o(.text)
    TIM_DMACaptureHalfCplt                   0x080086df   Thumb Code    66  stm32f4xx_hal_tim.o(.text)
    HAL_TIM_IC_CaptureCallback               0x08008721   Thumb Code     2  stm32f4xx_hal_tim.o(.text)
    TIM_DMACaptureCplt                       0x08008723   Thumb Code    76  stm32f4xx_hal_tim.o(.text)
    HAL_TIM_IC_Start_DMA                     0x0800876f   Thumb Code   264  stm32f4xx_hal_tim.o(.text)
    HAL_TIM_IC_Stop_DMA                      0x08008877   Thumb Code   136  stm32f4xx_hal_tim.o(.text)
    HAL_TIM_OnePulse_MspInit                 0x080088ff   Thumb Code     2  stm32f4xx_hal_tim.o(.text)
    HAL_TIM_OnePulse_Init                    0x08008901   Thumb Code    76  stm32f4xx_hal_tim.o(.text)
    HAL_TIM_OnePulse_MspDeInit               0x0800894d   Thumb Code     2  stm32f4xx_hal_tim.o(.text)
    HAL_TIM_OnePulse_DeInit                  0x0800894f   Thumb Code    54  stm32f4xx_hal_tim.o(.text)
    HAL_TIM_OnePulse_Start                   0x08008985   Thumb Code    50  stm32f4xx_hal_tim.o(.text)
    HAL_TIM_OnePulse_Stop                    0x080089b7   Thumb Code    90  stm32f4xx_hal_tim.o(.text)
    HAL_TIM_OnePulse_Start_IT                0x08008a11   Thumb Code    70  stm32f4xx_hal_tim.o(.text)
    HAL_TIM_OnePulse_Stop_IT                 0x08008a57   Thumb Code   110  stm32f4xx_hal_tim.o(.text)
    HAL_TIM_Encoder_MspInit                  0x08008ac5   Thumb Code     2  stm32f4xx_hal_tim.o(.text)
    HAL_TIM_Encoder_Init                     0x08008ac7   Thumb Code   162  stm32f4xx_hal_tim.o(.text)
    HAL_TIM_Encoder_MspDeInit                0x08008b69   Thumb Code     2  stm32f4xx_hal_tim.o(.text)
    HAL_TIM_Encoder_DeInit                   0x08008b6b   Thumb Code    54  stm32f4xx_hal_tim.o(.text)
    HAL_TIM_Encoder_Start                    0x08008ba1   Thumb Code    66  stm32f4xx_hal_tim.o(.text)
    HAL_TIM_Encoder_Stop                     0x08008be3   Thumb Code    84  stm32f4xx_hal_tim.o(.text)
    HAL_TIM_Encoder_Start_IT                 0x08008c37   Thumb Code   106  stm32f4xx_hal_tim.o(.text)
    HAL_TIM_Encoder_Stop_IT                  0x08008ca1   Thumb Code   130  stm32f4xx_hal_tim.o(.text)
    HAL_TIM_Encoder_Start_DMA                0x08008d23   Thumb Code   340  stm32f4xx_hal_tim.o(.text)
    HAL_TIM_Encoder_Stop_DMA                 0x08008e77   Thumb Code   154  stm32f4xx_hal_tim.o(.text)
    HAL_TIM_TriggerCallback                  0x08008f11   Thumb Code     2  stm32f4xx_hal_tim.o(.text)
    HAL_TIM_OC_DelayElapsedCallback          0x08008f13   Thumb Code     2  stm32f4xx_hal_tim.o(.text)
    HAL_TIM_IRQHandler                       0x08008f15   Thumb Code   366  stm32f4xx_hal_tim.o(.text)
    TIM_OC2_SetConfig                        0x08009135   Thumb Code   106  stm32f4xx_hal_tim.o(.text)
    HAL_TIM_OC_ConfigChannel                 0x080091ff   Thumb Code    84  stm32f4xx_hal_tim.o(.text)
    TIM_TI1_SetConfig                        0x080092f3   Thumb Code   100  stm32f4xx_hal_tim.o(.text)
    HAL_TIM_IC_ConfigChannel                 0x08009357   Thumb Code   188  stm32f4xx_hal_tim.o(.text)
    HAL_TIM_PWM_ConfigChannel                0x08009413   Thumb Code   248  stm32f4xx_hal_tim.o(.text)
    HAL_TIM_OnePulse_ConfigChannel           0x0800950b   Thumb Code   234  stm32f4xx_hal_tim.o(.text)
    HAL_TIM_TriggerHalfCpltCallback          0x080095f5   Thumb Code     2  stm32f4xx_hal_tim.o(.text)
    HAL_TIM_DMABurst_WriteStart              0x08009617   Thumb Code   398  stm32f4xx_hal_tim.o(.text)
    HAL_TIM_DMABurst_WriteStop               0x080097a5   Thumb Code   124  stm32f4xx_hal_tim.o(.text)
    HAL_TIM_DMABurst_ReadStart               0x08009821   Thumb Code   398  stm32f4xx_hal_tim.o(.text)
    HAL_TIM_DMABurst_ReadStop                0x080099af   Thumb Code   170  stm32f4xx_hal_tim.o(.text)
    HAL_TIM_GenerateEvent                    0x08009a59   Thumb Code    38  stm32f4xx_hal_tim.o(.text)
    TIM_ETR_SetConfig                        0x08009a7f   Thumb Code    20  stm32f4xx_hal_tim.o(.text)
    HAL_TIM_ConfigOCrefClear                 0x08009a93   Thumb Code   226  stm32f4xx_hal_tim.o(.text)
    HAL_TIM_ConfigClockSource                0x08009bcb   Thumb Code   226  stm32f4xx_hal_tim.o(.text)
    HAL_TIM_ConfigTI1Input                   0x08009cad   Thumb Code    16  stm32f4xx_hal_tim.o(.text)
    HAL_TIM_SlaveConfigSynchro               0x08009d43   Thumb Code    80  stm32f4xx_hal_tim.o(.text)
    HAL_TIM_SlaveConfigSynchro_IT            0x08009d93   Thumb Code    80  stm32f4xx_hal_tim.o(.text)
    HAL_TIM_ReadCapturedValue                0x08009de3   Thumb Code    44  stm32f4xx_hal_tim.o(.text)
    HAL_TIM_Base_GetState                    0x08009e0f   Thumb Code     6  stm32f4xx_hal_tim.o(.text)
    HAL_TIM_OC_GetState                      0x08009e15   Thumb Code     6  stm32f4xx_hal_tim.o(.text)
    HAL_TIM_PWM_GetState                     0x08009e1b   Thumb Code     6  stm32f4xx_hal_tim.o(.text)
    HAL_TIM_IC_GetState                      0x08009e21   Thumb Code     6  stm32f4xx_hal_tim.o(.text)
    HAL_TIM_OnePulse_GetState                0x08009e27   Thumb Code     6  stm32f4xx_hal_tim.o(.text)
    HAL_TIM_Encoder_GetState                 0x08009e2d   Thumb Code     6  stm32f4xx_hal_tim.o(.text)
    HAL_TIMEx_HallSensor_MspInit             0x08009e35   Thumb Code     2  stm32f4xx_hal_tim_ex.o(.text)
    HAL_TIMEx_HallSensor_Init                0x08009e37   Thumb Code   190  stm32f4xx_hal_tim_ex.o(.text)
    HAL_TIMEx_HallSensor_MspDeInit           0x08009ef5   Thumb Code     2  stm32f4xx_hal_tim_ex.o(.text)
    HAL_TIMEx_HallSensor_DeInit              0x08009ef7   Thumb Code    54  stm32f4xx_hal_tim_ex.o(.text)
    HAL_TIMEx_HallSensor_Start               0x08009f2d   Thumb Code    38  stm32f4xx_hal_tim_ex.o(.text)
    HAL_TIMEx_HallSensor_Stop                0x08009f53   Thumb Code    46  stm32f4xx_hal_tim_ex.o(.text)
    HAL_TIMEx_HallSensor_Start_IT            0x08009f81   Thumb Code    48  stm32f4xx_hal_tim_ex.o(.text)
    HAL_TIMEx_HallSensor_Stop_IT             0x08009fb1   Thumb Code    56  stm32f4xx_hal_tim_ex.o(.text)
    HAL_TIMEx_HallSensor_Start_DMA           0x08009fe9   Thumb Code   126  stm32f4xx_hal_tim_ex.o(.text)
    HAL_TIMEx_HallSensor_Stop_DMA            0x0800a067   Thumb Code    62  stm32f4xx_hal_tim_ex.o(.text)
    HAL_TIMEx_OCN_Start                      0x0800a0bf   Thumb Code    46  stm32f4xx_hal_tim_ex.o(.text)
    HAL_TIMEx_OCN_Stop                       0x0800a0ed   Thumb Code    68  stm32f4xx_hal_tim_ex.o(.text)
    HAL_TIMEx_OCN_Start_IT                   0x0800a131   Thumb Code   100  stm32f4xx_hal_tim_ex.o(.text)
    HAL_TIMEx_OCN_Stop_IT                    0x0800a195   Thumb Code   128  stm32f4xx_hal_tim_ex.o(.text)
    HAL_TIMEx_OCN_Start_DMA                  0x0800a215   Thumb Code   228  stm32f4xx_hal_tim_ex.o(.text)
    HAL_TIMEx_OCN_Stop_DMA                   0x0800a2f9   Thumb Code   140  stm32f4xx_hal_tim_ex.o(.text)
    HAL_TIMEx_PWMN_Start                     0x0800a385   Thumb Code    46  stm32f4xx_hal_tim_ex.o(.text)
    HAL_TIMEx_PWMN_Stop                      0x0800a3b3   Thumb Code    68  stm32f4xx_hal_tim_ex.o(.text)
    HAL_TIMEx_PWMN_Start_IT                  0x0800a3f7   Thumb Code   122  stm32f4xx_hal_tim_ex.o(.text)
    HAL_TIMEx_PWMN_Stop_IT                   0x0800a471   Thumb Code   128  stm32f4xx_hal_tim_ex.o(.text)
    HAL_TIMEx_PWMN_Start_DMA                 0x0800a4f1   Thumb Code   226  stm32f4xx_hal_tim_ex.o(.text)
    HAL_TIMEx_PWMN_Stop_DMA                  0x0800a5d3   Thumb Code   140  stm32f4xx_hal_tim_ex.o(.text)
    HAL_TIMEx_OnePulseN_Start                0x0800a65f   Thumb Code    26  stm32f4xx_hal_tim_ex.o(.text)
    HAL_TIMEx_OnePulseN_Stop                 0x0800a679   Thumb Code    68  stm32f4xx_hal_tim_ex.o(.text)
    HAL_TIMEx_OnePulseN_Start_IT             0x0800a6bd   Thumb Code    46  stm32f4xx_hal_tim_ex.o(.text)
    HAL_TIMEx_OnePulseN_Stop_IT              0x0800a6eb   Thumb Code    88  stm32f4xx_hal_tim_ex.o(.text)
    HAL_TIMEx_ConfigCommutEvent              0x0800a743   Thumb Code   112  stm32f4xx_hal_tim_ex.o(.text)
    HAL_TIMEx_ConfigCommutEvent_IT           0x0800a7b3   Thumb Code   112  stm32f4xx_hal_tim_ex.o(.text)
    HAL_TIMEx_CommutHalfCpltCallback         0x0800a823   Thumb Code     2  stm32f4xx_hal_tim_ex.o(.text)
    TIMEx_DMACommutationHalfCplt             0x0800a825   Thumb Code    16  stm32f4xx_hal_tim_ex.o(.text)
    HAL_TIMEx_CommutCallback                 0x0800a835   Thumb Code     2  stm32f4xx_hal_tim_ex.o(.text)
    TIMEx_DMACommutationCplt                 0x0800a837   Thumb Code    16  stm32f4xx_hal_tim_ex.o(.text)
    HAL_TIMEx_ConfigCommutEvent_DMA          0x0800a847   Thumb Code   134  stm32f4xx_hal_tim_ex.o(.text)
    HAL_TIMEx_MasterConfigSynchronization    0x0800a8cd   Thumb Code   144  stm32f4xx_hal_tim_ex.o(.text)
    HAL_TIMEx_ConfigBreakDeadTime            0x0800a95d   Thumb Code    84  stm32f4xx_hal_tim_ex.o(.text)
    HAL_TIMEx_RemapConfig                    0x0800a9b1   Thumb Code    32  stm32f4xx_hal_tim_ex.o(.text)
    HAL_TIMEx_BreakCallback                  0x0800a9d1   Thumb Code     2  stm32f4xx_hal_tim_ex.o(.text)
    HAL_TIMEx_HallSensor_GetState            0x0800a9d3   Thumb Code     6  stm32f4xx_hal_tim_ex.o(.text)
    Reset_Handler                            0x0800a9e5   Thumb Code     8  startup_stm32f429xx.o(.text)
    NMI_Handler                              0x0800a9ed   Thumb Code     2  startup_stm32f429xx.o(.text)
    HardFault_Handler                        0x0800a9ef   Thumb Code     2  startup_stm32f429xx.o(.text)
    MemManage_Handler                        0x0800a9f1   Thumb Code     2  startup_stm32f429xx.o(.text)
    BusFault_Handler                         0x0800a9f3   Thumb Code     2  startup_stm32f429xx.o(.text)
    UsageFault_Handler                       0x0800a9f5   Thumb Code     2  startup_stm32f429xx.o(.text)
    DebugMon_Handler                         0x0800a9f9   Thumb Code     2  startup_stm32f429xx.o(.text)
    ADC_IRQHandler                           0x0800a9ff   Thumb Code     0  startup_stm32f429xx.o(.text)
    CAN1_RX0_IRQHandler                      0x0800a9ff   Thumb Code     0  startup_stm32f429xx.o(.text)
    CAN1_RX1_IRQHandler                      0x0800a9ff   Thumb Code     0  startup_stm32f429xx.o(.text)
    CAN1_SCE_IRQHandler                      0x0800a9ff   Thumb Code     0  startup_stm32f429xx.o(.text)
    CAN1_TX_IRQHandler                       0x0800a9ff   Thumb Code     0  startup_stm32f429xx.o(.text)
    CAN2_RX0_IRQHandler                      0x0800a9ff   Thumb Code     0  startup_stm32f429xx.o(.text)
    CAN2_RX1_IRQHandler                      0x0800a9ff   Thumb Code     0  startup_stm32f429xx.o(.text)
    CAN2_SCE_IRQHandler                      0x0800a9ff   Thumb Code     0  startup_stm32f429xx.o(.text)
    CAN2_TX_IRQHandler                       0x0800a9ff   Thumb Code     0  startup_stm32f429xx.o(.text)
    DCMI_IRQHandler                          0x0800a9ff   Thumb Code     0  startup_stm32f429xx.o(.text)
    DMA1_Stream0_IRQHandler                  0x0800a9ff   Thumb Code     0  startup_stm32f429xx.o(.text)
    DMA1_Stream1_IRQHandler                  0x0800a9ff   Thumb Code     0  startup_stm32f429xx.o(.text)
    DMA1_Stream2_IRQHandler                  0x0800a9ff   Thumb Code     0  startup_stm32f429xx.o(.text)
    DMA1_Stream3_IRQHandler                  0x0800a9ff   Thumb Code     0  startup_stm32f429xx.o(.text)
    DMA1_Stream4_IRQHandler                  0x0800a9ff   Thumb Code     0  startup_stm32f429xx.o(.text)
    DMA1_Stream5_IRQHandler                  0x0800a9ff   Thumb Code     0  startup_stm32f429xx.o(.text)
    DMA1_Stream6_IRQHandler                  0x0800a9ff   Thumb Code     0  startup_stm32f429xx.o(.text)
    DMA1_Stream7_IRQHandler                  0x0800a9ff   Thumb Code     0  startup_stm32f429xx.o(.text)
    DMA2D_IRQHandler                         0x0800a9ff   Thumb Code     0  startup_stm32f429xx.o(.text)
    DMA2_Stream0_IRQHandler                  0x0800a9ff   Thumb Code     0  startup_stm32f429xx.o(.text)
    DMA2_Stream1_IRQHandler                  0x0800a9ff   Thumb Code     0  startup_stm32f429xx.o(.text)
    DMA2_Stream2_IRQHandler                  0x0800a9ff   Thumb Code     0  startup_stm32f429xx.o(.text)
    DMA2_Stream3_IRQHandler                  0x0800a9ff   Thumb Code     0  startup_stm32f429xx.o(.text)
    DMA2_Stream4_IRQHandler                  0x0800a9ff   Thumb Code     0  startup_stm32f429xx.o(.text)
    DMA2_Stream5_IRQHandler                  0x0800a9ff   Thumb Code     0  startup_stm32f429xx.o(.text)
    DMA2_Stream6_IRQHandler                  0x0800a9ff   Thumb Code     0  startup_stm32f429xx.o(.text)
    DMA2_Stream7_IRQHandler                  0x0800a9ff   Thumb Code     0  startup_stm32f429xx.o(.text)
    ETH_WKUP_IRQHandler                      0x0800a9ff   Thumb Code     0  startup_stm32f429xx.o(.text)
    EXTI0_IRQHandler                         0x0800a9ff   Thumb Code     0  startup_stm32f429xx.o(.text)
    EXTI1_IRQHandler                         0x0800a9ff   Thumb Code     0  startup_stm32f429xx.o(.text)
    EXTI2_IRQHandler                         0x0800a9ff   Thumb Code     0  startup_stm32f429xx.o(.text)
    EXTI3_IRQHandler                         0x0800a9ff   Thumb Code     0  startup_stm32f429xx.o(.text)
    EXTI4_IRQHandler                         0x0800a9ff   Thumb Code     0  startup_stm32f429xx.o(.text)
    EXTI9_5_IRQHandler                       0x0800a9ff   Thumb Code     0  startup_stm32f429xx.o(.text)
    FLASH_IRQHandler                         0x0800a9ff   Thumb Code     0  startup_stm32f429xx.o(.text)
    FMC_IRQHandler                           0x0800a9ff   Thumb Code     0  startup_stm32f429xx.o(.text)
    FPU_IRQHandler                           0x0800a9ff   Thumb Code     0  startup_stm32f429xx.o(.text)
    HASH_RNG_IRQHandler                      0x0800a9ff   Thumb Code     0  startup_stm32f429xx.o(.text)
    I2C1_ER_IRQHandler                       0x0800a9ff   Thumb Code     0  startup_stm32f429xx.o(.text)
    I2C1_EV_IRQHandler                       0x0800a9ff   Thumb Code     0  startup_stm32f429xx.o(.text)
    I2C2_ER_IRQHandler                       0x0800a9ff   Thumb Code     0  startup_stm32f429xx.o(.text)
    I2C2_EV_IRQHandler                       0x0800a9ff   Thumb Code     0  startup_stm32f429xx.o(.text)
    I2C3_ER_IRQHandler                       0x0800a9ff   Thumb Code     0  startup_stm32f429xx.o(.text)
    I2C3_EV_IRQHandler                       0x0800a9ff   Thumb Code     0  startup_stm32f429xx.o(.text)
    LTDC_ER_IRQHandler                       0x0800a9ff   Thumb Code     0  startup_stm32f429xx.o(.text)
    LTDC_IRQHandler                          0x0800a9ff   Thumb Code     0  startup_stm32f429xx.o(.text)
    OTG_FS_IRQHandler                        0x0800a9ff   Thumb Code     0  startup_stm32f429xx.o(.text)
    OTG_FS_WKUP_IRQHandler                   0x0800a9ff   Thumb Code     0  startup_stm32f429xx.o(.text)
    OTG_HS_EP1_IN_IRQHandler                 0x0800a9ff   Thumb Code     0  startup_stm32f429xx.o(.text)
    OTG_HS_EP1_OUT_IRQHandler                0x0800a9ff   Thumb Code     0  startup_stm32f429xx.o(.text)
    OTG_HS_IRQHandler                        0x0800a9ff   Thumb Code     0  startup_stm32f429xx.o(.text)
    OTG_HS_WKUP_IRQHandler                   0x0800a9ff   Thumb Code     0  startup_stm32f429xx.o(.text)
    PVD_IRQHandler                           0x0800a9ff   Thumb Code     0  startup_stm32f429xx.o(.text)
    RCC_IRQHandler                           0x0800a9ff   Thumb Code     0  startup_stm32f429xx.o(.text)
    RTC_WKUP_IRQHandler                      0x0800a9ff   Thumb Code     0  startup_stm32f429xx.o(.text)
